:1000000000800020BD010000659701001D970100E0
:100010001D9701001D9701001D9701001D9701000C
:100020001D9701001D9701001D97010065970100B4
:10003000659701001D970100A1BF010011C50100D6
:1000400065970100659701006597010065970100BC
:1000500065970100659701006597010065970100AC
:10006000659701006597010065970100659701009C
:10007000659701006597010065970100659701008C
:10008000659701006597010065970100659701007C
:10009000659701006597010065970100659701006C
:1000A00011DF01001DDF0100659701006597010068
:1000B000659701006597010065970100659701004C
:1000C000659701006597010065970100659701003C
:1000D000659701006597010065970100659701002C
:1000E000659701006597010065970100659701001C
:1000F00065970100597801006597010029A6010064
:10010000659701000D4A01006597010065970100A0
:1001100065970100659701006597010065970100EB
:1001200065970100293C0100353D010065970100FC
:1001300065970100659701006597010065970100CB
:1001400065970100659701006597010065970100BB
:10015000EDB6010001B7010015B7010029B7010094
:1001600065970100E98B0100659701006597010023
:10017000659701006597010065970100659701008B
:10018000659701006597010065970100659701007B
:10019000659701006597010065970100659701006B
:1001A000659701006597010065970100659701005B
:1001B000659701006597010001BB0100564B4CF2A9
:1001C000205210B51A804DF628121A8000BF00BFC9
:1001D00019F0CCFA514B4FF010621A60504A9A60F5
:1001E000504ADA60504A136813F4807304D14F49BF
:1001F0000B604FF4A85313604D4B1A78110703D5C9
:100200001A7842F008021A704A4B4B492A221A7097
:100210004A4A4B4B8B4204D252F8040F43F8040B6A
:10022000F8E7484B484900228B4202D243F8042B9E
:10023000FAE74649464A002352F8230041F82300D2
:1002400001336F2BF8D1434B434A802103F8011B44
:100250009342FBD1414B3D4A1A60414B8A221A70AE
:10026000A3F5805324225A70A0221A709A7992071B
:10027000FCD59A79D406FCD43A4A937903F00C035E
:10028000082B384BF9D103221A7140225A719A79FE
:100290009006FCD5334A9179324B4906FBD5324A58
:1002A000324911600221516020221A709A7902F0BD
:1002B0000C020C2AFAD12E4B2E4A1A602E4B2F4AD2
:1002C0001A6000225A60072243F8042C2C4AC3F813
:1002D0000C2D62B614F052FD144B1B68DA0705D5DD
:1002E000284814F005FD284B284A1A60284B1B7833
:1002F0005B0609D5244C254B22689A4204D121483B
:1003000014F0F6FC0023236023F024FD19F034FAE6
:100310001BF038FCFEE700BF0E2005403080044093
:10032000823F04000100002B10D0034014D0034092
:1003300002D0074000E00740909BFF1F801403009D
:100340002087FF1F909BFF1F884500200082FF1F12
:100350000000000000E400E05FE400E008ED00E0E1
:100360000050064000400640448004400000030165
:1003700004800440C010050014E000E0FF76010096
:100380000000202000DD68501CE00340A5C3945A03
:1003900000F00740FFFFFFFFFFFFFFFFFFFFFFFF32
:1003A000FFFFFFFFFFFFFFFFFFFFFFFFFFFFFFFF5D
:1003B000FFFFFFFFFFFFFFFFFFFFFFFFFFFFFFFF4D
:1003C000FFFFFFFFFFFFFFFFFFFFFFFFFFFFFFFF3D
:1003D000FFFFFFFFFFFFFFFFFFFFFFFFFFFFFFFF2D
:1003E000FFFFFFFFFFFFFFFFFFFFFFFFFFFFFFFF1D
:1003F000FFFFFFFFFFFFFFFFFFFFFFFFFFFFFFFF0D
:10040000FFFFFFFFFFFFFFFFFFFFFFFFDEF9FFFF23
:1004100010B5054C237833B9044B13B10448AFF33E
:1004200000800123237010BD909BFF1F000000007F
:100430007C140300084B10B51BB108490848AFF302
:1004400000800848036803B910BD074B002BFBD0A0
:10045000BDE81040184700BF00000000949BFF1F3C
:100460007C140300909BFF1F00000000F0B4164FA7
:10047000164E174A07624662164F174E8262174A97
:10048000C7620663164F174E4263174A8763C663F7
:100490000127052602641922078046807D2740F245
:1004A000712682800022C780068142648264C26411
:1004B00002654265C260026142618261C261826519
:1004C00080F85C20F0BC70474531000059320000D4
:1004D00009C30000D1E20000513300005D34000088
:1004E000693500003D360000E1370000704700BF6D
:1004F00008291FD8042A1DD8F0B54FF0010E8469D1
:10050000C768066945690EFA01F1CB4304EA030C9A
:10051000C469C0F818C000EB82021F401E401D4095
:100520002340C76006614561C361D3681943D16048
:100530007046F0BD00207047082913D8F0B401239D
:10054000C76806694469C56982698B40D9430F4011
:100550000E400C400A40C760294006614461F0BC6F
:100560008261C161704700BF2DE9F84F794B93F963
:100570000030002B0646C0F2E58017F0F3F814288F
:10058000D4BF00200120002800F0C88006F1080038
:10059000012250F8043FDFF8C4C16F49002B3546F3
:1005A00006F1580E02F1FF3B40F3B480DCF8004046
:1005B000876BB5F800A0DFF8A481E41B544540F236
:1005C0009B809EF8009009F1010981FB094A4FEADE
:1005D000E974C4EB6A0404EBC404C4EB090443FAF1
:1005E00004F919F0010F40F09D8004F1010981FB2D
:1005F000094A4FEAE974C4EB6A0404EBC404C4EB8F
:10060000090443FA04F919F0010F40F08B8004F15A
:10061000010981FB094A4FEAE974C4EB6A0404EB5F
:10062000C404C4EB090443FA04F919F0010F79D1A9
:1006300004F1010981FB094A4FEAE974C4EB6A0439
:1006400004EBC404C4EB090443FA04F919F0010FE4
:1006500068D104F1010981FB094A4FEAE974C4EB4E
:100660006A0404EBC404C4EB090443FA04F919F066
:10067000010F57D104F1010981FB094A4FEAE974DE
:10068000C4EB6A0404EBC404C4EB090443FA04F9A0
:1006900019F0010F46D104F1010981FB094A4FEA23
:1006A000E974C4EB6A0404EBC404C4EB090443FA20
:1006B00004F919F0010F35D104F1010981FB094A50
:1006C0004FEAE974C4EB6A0404EBC404C4EB090404
:1006D00043FA04F919F0010F24D104F1010981FB57
:1006E000094A4FEAE974C4EB6A0404EBC404C4EB9E
:1006F00009042341DB0715D4052A11D050F8043F23
:100700000132002B05F102050EF1010E02F1FF3B53
:100710003FF74CAF052AF1D1BDE8F88FBDE8F88F5F
:10072000BDE8F88F04F1080356F82330984706EB2C
:100730000B0206EB8B06D8F8003082F85840736441
:10074000BDE8F88F1AF07AFC3C28D4BF00200120C5
:1007500019E700BF0488FF1F398EE3387C3F002073
:100760002DE9F043861EA5B000F10805002455F8D8
:10077000043F36F8022F0092C3F3801CC3F3401EDF
:10078000C3F3C000C3F38001C3F34002C3F30029E5
:10079000C3F3C018C3F3001703F00103CDF81CC066
:1007A000CDF818E004900391029201930A4ACDF823
:1007B000249023466421CDF8208005970BA824F0CF
:1007C00045F9013400210BA805F074F9052CCED1B0
:1007D00025B0BDE8F08300BF18A6020070B44FF446
:1007E0000062094E094D0A4C0A49026000228661E6
:1007F0008662C561C56204620463416241638260CE
:100800000273426070BC704740A6020024AD020033
:1008100068B4020018BB02002DE9F04F9DB000291A
:1008200058D090468A46B8F1000F35DD00252C4699
:1008300023462E4A6E21684624F008F9684624F0C3
:10084000BFF904F1010B0DEB000604460AEB0507A6
:1008500005F1200901E04D4521D0C4F16E0117F8E2
:10086000013B234A304624F0F1F8304624F0A8F941
:100870000135044445450DEB0406ECDB1CAB1A19AD
:1008800000230A271946684606F8017C02F8703CE6
:1008900005F010F96A2C15DC1DB0BDE8F08F1CAB1B
:1008A0001A1900234FF05C0E0A271946684606F80D
:1008B00001EC02F8707C737005F0FCF86A2C01DC26
:1008C0005C46B5E700210B4805F0F4F84545E3DA4E
:1008D0005C46ADE7D0F804A0D0F81480BAF1000F60
:1008E000A1D1054805F0E6F8D6E700BF48C20200EE
:1008F00054C202005CC2020018C2020010B5037BA1
:1009000082B0044601912BB143685BB10269019842
:10091000985007E019F03EF90028FBD001992069B2
:1009200019F030FA23696269043393422361C8BF26
:10093000636102B010BD00BF38B5037B04460D46AD
:1009400023B1436853B10269995407E019F022F9C1
:100950000028FBD02946206919F024F9236962692F
:10096000013393422361C8BF636138BD10B5037B77
:1009700082B00446ADF8061033B143686BB102692A
:10098000DDF80610995008E019F004F90028FBD0B2
:10099000BDF80610206919F06BF92369626902330A
:1009A00093422361C8BF636102B010BD38B5037BB9
:1009B000054633B140682C6900B1005904342C61FC
:1009C00038BD04692046043419F026F82C6138BD7E
:1009D00038B5037B054633B140682C6900B1005D32
:1009E00001342C6138BD04692046013418F064FFDD
:1009F0002C6138BD38B5037B054633B140682C699E
:100A000000B1005B02342C6138BD04692046023419
:100A100018F0A8FF2C6138BD2DE9F04104239EB0E9
:100A200004460361436101730D4602F033FA237BF0
:100A30000290002B59D0636813B122690298985034
:100A40002369626904339342C8BF6361236107F07D
:100A500075F905F0ABF90BF0AFFB404806F07AF8FA
:100A60003F4812F0A7FB0EF0B1FD0BF0F7FD3D483B
:100A700009F068F93C480CF0D9FA0DF09DFB3B4BAE
:100A80002669B3F9002000239A42236139DD237BD4
:100A900004963BB16368002B5CD00498186023690E
:100AA000043309E019F076F80028FBD031462069BC
:100AB00019F068F923690433626923619342C8BF5E
:100AC00063612B4BDDB92B4A1B6800930DF11408B1
:100AD00040463346642123F0B9FF26614046002199
:100AE00004F0E8FF1EB0BDE8F081064619F052F8A8
:100AF0000028FBD03146206919F044F9A0E71E4ACE
:100B0000E2E7227B0393D2B163682BB303981860AA
:100B1000236904336269194F23619342C8BF63613B
:100B20000FCF0DF1140845460FC50FCF0FC50FCFDE
:100B30000FC53B6825F8023B1B0C2B70CDE719F065
:100B400029F80028FBD00021206919F01BF923693E
:100B50000433DFE70423AFE70423DBE7983F0020FB
:100B6000404000201C9EFF1F644100200C420020DA
:100B700060050300D8C20200ACC2020078C20200C5
:100B80002DE9F04100239EB004460173036129B1B1
:100B90004768002F00F08980C0CF08E0084618F0B1
:100BA0003BFF06460420206118F036FF0746082365
:100BB000236102F06FF905AD01906421009728468A
:100BC0003346484A23F042FF2846002104F072FFD2
:100BD0001EB12368B34200D96FB93346424A009729
:100BE0006421284623F032FF2846002104F062FFEA
:100BF0001EB0BDE8F08102F04DF9B8421DD002F000
:100C000049F98046384622F095F90022374B22F008
:100C100031FBCDE90201404622F09CF90022334B22
:100C200022F028FB324ACDE900016421284623F056
:100C30000DFF0021284604F03DFF07F0C7F82D4BBB
:100C4000B3F90030002B48DD05F0C6F80BF0DAFAF6
:100C5000294805F0A9FF294812F03AFB0EF0FAFCEA
:100C60000BF028FD264808F0F1FF26480BF000FEA7
:100C700024480CF0F1F92369B34229D20DF0D4FADB
:100C80002369B3420AD00093642133461E4A2846A2
:100C900023F0DCFE2846002104F00CFF002108466A
:100CA0000CF0B4FA1EB0BDE8F0810823036102F035
:100CB000F1F805AD0190009728463B46094A6421AA
:100CC00023F0C4FE394628463E4604F0F3FE84E78E
:100CD00000210E4804F0EEFED2E700210C4804F09B
:100CE000E9FEDBE704C302004CC3020000005940E8
:100CF00098C302000C420020983F00204040002092
:100D00001C9EFF1F6441002008C40200DCC30200D7
:100D10003CC402002DE9F04792B0002932D0032AEA
:100D200030D800EB82068946B46A0294204623F04C
:100D300047FF00250746B5F5006F15DAB36AE31AD9
:100D40009F4211DD2378232B25D0304A00953C218A
:100D500003A823F07BFE002103A804F0ABFE029C55
:100D600001340294002CE6D12B46294A3C2103A8E9
:100D700023F06CFE03A8002104F09CFE284612B06C
:100D8000BDE8F0870021234804F094FE00252846A2
:100D900012B0BDE8F087043420460A2202A902946A
:100DA00025F0C2FA402824DC029C0134029409EBAD
:100DB000050A05F120082046102202A925F0B4FA00
:100DC000029C0AF8010B2278013562B1B36AE31A7A
:100DD0009F4201DB4545EED1202A04D10134029423
:100DE0002378202BFAD0B5F5006FBDDA002CA2D104
:100DF000BAE703460095084A3C2103A823F026FEE3
:100E0000002103A804F056FEAEE700BFB0C4020004
:100E100000C502006CC40200DCC40200F0B5184C2E
:100E2000ADF6040D0025174620460A466946C4F86B
:100E300004D025616561FFF76DFF64280BDD064670
:100E400001212046FFF79CFE7FB90120002363604B
:100E50000DF6040DF0BD29460A4804F02BFE284685
:100E6000002363600DF6040DF0BD2046324669464E
:100E7000FFF7D2FC0120002363600DF6040DF0BDE6
:100E8000AC9BFF1F20C50200036970B540F2FD74E2
:100E9000D518A5421DDC1546027B0E46044652B10C
:100EA0006068314618442A4623F074FA22692A44BD
:100EB0002261012070BD18F06DFE0028FBD0227B5E
:100EC0002369002AECD1194630462A4619F01CF84D
:100ED000ECE7002070BD00BFF8B5036940F2FD7477
:100EE0001344A3422BDC037B0E4617460546EBB1A9
:100EF000002FC8BFBF190ADC16E068682C6900B172
:100F0000005D01342C6106F8010BB7420CD02B7B3D
:100F1000002BF2D12C69204618F0CEFC01342C6154
:100F200006F8010BB742F2D10120F8BD18F032FEED
:100F30000028DDD118F02EFE0028F7D0D8E70020D9
:100F4000F8BD00BF70B40B4B0B4D0C4C0C480D4959
:100F50009D6100224FF400661E609D62DC61DC62D0
:100F600018621863596259639A601A735A6070BCA8
:100F7000704700BFAC9BFF1F40A6020024AD0200DB
:100F800068B4020018BB020010B5044600F0F4FD7E
:100F90000023C4F87431204610BD00BF70B400F5C2
:100FA000B876002501248662456280F82C40C16134
:100FB0000262C0F8743170BC704700BF2DE9704305
:100FC000044601F067F9D4F874519DB3224BD4F86C
:100FD00070611B7883B326F0004021F0CDFF1F4BDA
:100FE0008046186820F00040894621F0C5FF16A30E
:100FF000D3E9002322F014F815A3D3E9002321F04C
:101000005DFE02460B464046494622F07BFA98B9FF
:101010000021304622F016FE30B13146304622F033
:101020004DFB2860BDE8708306F10041084622F0C0
:1010300045FB6860BDE870832E60D4F8703103F121
:1010400000436B60BDE87083333333333333D33FB6
:101050009A9999999999B93F6C9DFF1F889DFF1F97
:1010600010B5044600F088FD4FF07C53C4F8803181
:101070000023C4F87431C4F87831204610BD00BF95
:10108000F0B4C16100F5B8770026012500F5BE7403
:1010900004998762466280F82C500462C0F874316B
:1010A000C0F87821C0F88011F0BC70472DE970437A
:1010B000D0F878615C4975680446284622F0A4FDA2
:1010C000002840D0594B1B78002B60D0584BD86873
:1010D00020F0004021F050FF4BA3D3E9002322F081
:1010E00011FA002840F08D803668E36930461D68AB
:1010F00021F042FF80462846894621F03DFF44A367
:10110000D3E9002321F0DAFD02460B46404649466A
:1011100022F0F8F9002837D1C4F87C51002120468C
:1011200001F0B8F8D4F8745165B3404BD4F870614D
:101130001B78002B33D12E60D4F8703103F10043BB
:101140006B60BDE870834FF07A51284622F05CFD59
:101150000028C9D0354B1B78002BC5D1E6694FF06C
:101160007A51284622F0A8FA0146306822F0A6FA01
:101170000021C4F87C01204601F08CF8D4F87451A9
:10118000002DD2D1BDE87083C4F87C61C6E74FF072
:101190007A51284622F038FD0028DFD1A4E726F056
:1011A000004021F0E9FE234B8046186820F0004003
:1011B000894621F0E1FE18A3D3E9002321F030FF96
:1011C00017A3D3E9002321F079FD02460B464046E0
:1011D000494622F097F90028ADD10021304622F08F
:1011E00031FD30B13146304622F068FA2860BDE862
:1011F000708306F10041084622F060FA6860BDE89D
:101200007083E6690849ACE7333333333333C33F84
:10121000EC51B81E85EBB13F333333333333D33F17
:101220009A9999999999B93F3333B33E6C9DFF1FB1
:10123000C89DFF1F889DFF1F10B5044600F09CFC51
:101240000023C4F87431C4F87C31C4F880312046DE
:1012500010BD00BFF0B4059CC16100F5B87700F582
:10126000BC7600250499C0F87C21069A8762066244
:101270004562C0F87441C0F88031C0F88411C0F8EC
:101280008821F0BC704700BF2DE9F843D0F88431C5
:101290001B78044623B13A4B93F90030002B44D01D
:1012A0000021204600F0F6FFD4F87451002775B3F2
:1012B000344BD4F870611B7883B326F0004021F0E2
:1012C0005BFE314B8046186820F00040894621F0D3
:1012D00053FE27A3D3E9002321F0A2FE26A3D3E9DE
:1012E000002321F0EBFC02460B464046494622F023
:1012F00009F998B90021304622F0A4FC40B33146E8
:10130000304622F0DBF928600FB1BDE8F883A26A0D
:1013100000232B606B601360BDE8F8832E60D4F867
:10132000703103F100436B60EEE7D0F888311B7831
:10133000ABB9D0F880311B68C0F878310021204665
:1013400000F0A8FFD4F87451002DDED00127AFE7DC
:1013500006F10041084622F0B1F96860D4E7D0F800
:101360007C311B68C0F87831E8E700BFAFF300803C
:10137000333333333333D33F9A9999999999B93F9A
:10138000551E00206C9DFF1F889DFF1F10B5044651
:1013900000F0F2FB0023C4F87431C4F87831204621
:1013A00010BD00BF70B4161D00F5B8750024C0F85C
:1013B000786105624462C161C0F87421836270BCC7
:1013C000704700BFD0F87421D0F8783170B5156837
:1013D0001E6804463146284622F034FC00B93546E2
:1013E000C4F8705120460021BDE8704000F052BFA3
:1013F00010B5044600F0C0FB204610BDF0B4049CBC
:10140000C0F8784100F5BE77002600F5C075076288
:1014100046628562C161C0F87021C0F87431F0BCC9
:10142000704700BFD0F87431D0F87021196870B5DA
:101430000446106822F040F90021C4F87C012046DF
:1014400000F028FFA26A0C4B16681D68304629463A
:1014500022F0F8FB50B905F100452946304622F04C
:10146000D3FB18B9D4F878311E6070BDD4F8782158
:1014700001231560637070BD889DFF1F10B5044681
:1014800000F07AFB00220023C4F87021C4F8743104
:10149000204610BD70B582B000261546009600F5B6
:1014A000BA72044600F0EEFEC4F8705102B070BD8E
:1014B00070B5144B93F90030032B0446D0F870310B
:1014C00008D05B68C0F8743100212046BDE8704048
:1014D00000F0E0BE1E685D683046294622F094FBAD
:1014E00038B1C4F8746120460021BDE8704000F0B6
:1014F000D1BEC4F8745120460021BDE8704000F010
:10150000C9BE00BF8C9DFF1F0449C1604FF07E52D1
:101510000021017082604260704700BF6F12833A01
:101520002DE9F041416004460F46826000211846D3
:1015300090461E4622F072FB78B9034600252370C0
:101540003046294622F06AFB50B94FF07E532561A0
:101550006561A361E361BDE8F0814FF00103EDE750
:101560004146404622F0AAF8E6683146804622F01D
:10157000A5F841460546A061304622F09DF829466F
:1015800022F058FA3946E061384622F097F80146D1
:101590000746304622F092F8294622F04BFA3946A7
:1015A0002061304622F088F8294622F043FA606133
:1015B000BDE8F081F8B503783BB94FF07E520023C7
:1015C0008261C26103614361F8BD816804460846D7
:1015D00022F074F8E6683146074622F06FF8394683
:1015E0000546A061304622F067F8294622F022FA2B
:1015F0006168E061084622F061F80146074630461E
:1016000022F05CF8294622F015FA3946206130466E
:1016100022F052F8294622F00DFA6061F8BD00BFB1
:101620000023036243628362C3627047037870B52C
:10163000044613B90020A06270BDC069E16A256A42
:1016400000F1004022F042F921690646284622F0C6
:101650003DF90146304622F031F8616A064660697C
:1016600022F034F90146304622F028F86562E06243
:10167000A06270BD2DE9F0430E4683B0044601A977
:101680003046002224F050FE019D031C18BF0123A8
:10169000AE4223700ED303BB4FF07E520023A261F3
:1016A000E26123616361AE4234BF2846002003B08B
:1016B000BDE8F083284601A924F078FD2F46019D5E
:1016C0006060AF422E4632D2284601A924F06EFD5A
:1016D0002378019DA060002BDED0A168084621F090
:1016E000EDFFD4F80C804146814621F0E7FF4946E2
:1016F0000746A061404621F0DFFF394622F09AF903
:101700006168E061084621F0D9FF01468146404604
:1017100021F0D4FF394622F08DF949462061404638
:1017200021F0CAFF394622F085F96061BBE73E46E9
:101730002378B0E7F0B5044685B080682778164670
:101740000D4621F019FCCDE90201606821F014FC7E
:101750003B46CDE90001054A3146284623F076F99B
:10176000284605B0BDE8F04023F02ABA3CC5020087
:10177000037803B9704710B5044641680448FFF781
:10178000BDF8A1680248BDE81040FFF7B7B800BF38
:10179000AC9BFF1FF8B5037804467BB1234BB3F92C
:1017A0000030002B12DD2248FFF700F9606020486E
:1017B000FFF7FCF82378A060002B34D14FF07E5265
:1017C0000023A261E26123616361F8BD184A816868
:1017D000136908331361084621F070FFE66831464B
:1017E000074621F06BFF39460546A061304621F0DF
:1017F00063FF294622F01EF96168E061084621F086
:101800005DFF01460746304621F058FF294622F089
:1018100011F939462061304621F04EFF294622F069
:1018200009F96061F8BD0146D5E700BF0C42002010
:10183000AC9BFF1F30B4074A074C82604FF07E55C7
:10184000002201214560C46041700270027430BC06
:10185000704700BF6F12833A0024744938B504788A
:10186000C26041603CB94FF07E520023C261026207
:101870004361836138BD04460846154621F01EFFCA
:101880000A4B23620146E061A06822F0D3F80849C0
:101890006061A061284622F0B7F94FF0010308B15A
:1018A000237438BD0346237438BD00BF000080BFD9
:1018B0000000C6422DE9F04383B002AF0E4647F860
:1018C000041D044639463046002224F02DFD019DBA
:1018D000003018BF0120AE42207010D32378002BB7
:1018E00032D14FF07E520023E26122626361A36134
:1018F000AE4234BF2846002003B0BDE8F08328463E
:10190000394624F053FCA846019D6060A845A946CD
:1019100041D22846394624F049FC2049E06005467A
:1019200022F072F948BB019D2E46A94531D22846C6
:101930003946002224F0F8FC2378019D003018BFBE
:1019400001206070002BCCD06168084621F0B6FE03
:10195000134B23620146E061A06822F06BF8114945
:101960006061A061E06822F04FF94FF0010308B117
:101970002374BDE703462374BAE72846002122F00A
:1019800057F9019D18B101232E462374CDE72E4649
:10199000CBE74E46A2E74646A0E700BF00247449C5
:1019A000000080BF0000C64270B5037C86B00446CC
:1019B0000D461646CBB1C06821F0DEFA02460B4652
:1019C000617860680491CDE9022321F0D5FA23788B
:1019D0000B4ACDE900013146284623F037F8284666
:1019E00006B0BDE8704023F0EBB803A3D3E90023B1
:1019F000E6E700BFAFF300800000000080842E41C6
:101A000048C5020003783BB94FF07E520023C26103
:101A10000262436183617047416810B5044608461D
:101A200021F04CFE0A4B23620146E061A06822F0DF
:101A300001F808496061A061E06822F0E5F84FF024
:101A4000010308B1237410BD0346237410BD00BF09
:101A5000000080BF0000C642002343628362C3626D
:101A600003637047F8B503783BB30446006A216B03
:101A7000676A00F1004021F029FF61690546384698
:101A800021F024FF0146284621F018FEA16A0546F0
:101A9000A06921F01BFF0146284621F00FFE237CA0
:101AA000E062054633B1E668314622F0CBF838B142
:101AB000E66235462563A762F8BD0023C362F8BD20
:101AC00006F100463146284622F09EF80028EFD164
:101AD000F0E700BF037803B9704710B504464168CA
:101AE0000448FEF70BFFE1680248BDE81040FEF72E
:101AF00005BF00BFAC9BFF1F037810B5044673B150
:101B0000194BB3F90030002B11DD1848FEF74EFFDA
:101B100060601648FEF74AFF2378E0605BB94FF03B
:101B20007E520023E26122626361A36110BD0F4A0D
:101B30001369083313616168084621F0BFFD0C4B3F
:101B400023620146E061A06821F074FF09496061E9
:101B5000A061E06822F058F84FF0010308B1237447
:101B600010BD0346237410BD0C420020AC9BFF1F28
:101B7000000080BF0000C642F8B5044600254FF0C3
:101B80007E56254B254F4FF0010E00220261E36384
:101B9000A366C4F8A030C4F8CC30C4F80431C4F84B
:101BA000343184F861E0062284F8305084F86050C3
:101BB00084F8705084F8945084F8C45084F8D45059
:101BC00084F8F85084F8285125702575A66366635B
:101BD0006666C4F89C60C4F89860C4F8C860C4F82D
:101BE0000061C4F8FC60C4F83061C4F82C61A660E0
:101BF000E766C4F8D070023084F8C5E0A76123F02E
:101C0000CDF826612573E56125626562A56284F8D9
:101C10002C502046F8BD00BF6F12833A002474494F
:101C20000023036543658365C365C0F88430C0F84D
:101C30008830C0F88C30C0F89030C0F8B430C0F8AC
:101C4000B830C0F8BC30C0F8C030C0F8E830C0F8D8
:101C5000EC30C0F8F030C0F8F430C0F81831C0F8FB
:101C60001C31C0F82031C0F82431C0F84831C0F828
:101C70004C31C0F85031C0F8543170472DE9F0476D
:101C8000861C82B0044630460F4622F099FF31464A
:101C900002460546384623F031F8B0F100080CBF83
:101CA0000126002603D0304602B0BDE8F0873D444F
:101CB000284669460A2224F037FB009F003018BFEF
:101CC0000120BD422070EED26946384624F06EFAFB
:101CD0000099A0608F42E6D204F1C400FFF7EAFD4C
:101CE00005460028DFD0424601A924F01DFB019FD4
:101CF000031C18BF0123BD4284F8F830B846C0F079
:101D00009D80002B40F0F4804FF07E520023C4F8F9
:101D10001021C4F81421C4F80831C4F80C31AF42C2
:101D2000C1D9002FBFD0002201A9384624F0FCFA07
:101D3000019D031C18BF0123AF4284F82831A84637
:101D400067D3002B40F004814FF07E520023C4F88B
:101D50004021C4F84421C4F83831C4F83C31BD42B4
:101D6000A1D9002D9FD0002201A9284624F0DCFA39
:101D7000019F031C18BF0123BD4284F83030B846D0
:101D800034D3002B40F014814FF07E520023A26424
:101D9000E26423646364AF4285D9002F83D039465F
:101DA00004F16000FFF786FD054600283FF47BAF95
:101DB0000022694624F0B8FA009F003018BF0120C5
:101DC000BD4220734FD300226946284624F0ACFA66
:101DD000009B003018BF0120AB4220757FF663AF37
:101DE0006946184624F0E2F9A0615CE7384601A98B
:101DF00024F0DCF9019F6063B8453D4680F03481F2
:101E0000384601A924F0D2F994F83030019FA0633C
:101E1000B7E7284601A924F0C9F9019DC4F82C01AF
:101E2000A8452F4680F02881284601A924F0BEF954
:101E300094F82831019DC4F8300182E7384601A9A1
:101E400024F0B4F9019FC4F8FC00B8453D4680F089
:101E50000F81384601A924F0A9F994F8F830019FC0
:101E6000C4F800014DE76946384624F09FF9206127
:101E7000002F3FF418AFDDF80080474580F0F28076
:101E8000002201A9404624F04FFA019D031C18BF0F
:101E90000123454584F894302F4614D8002B40F098
:101EA000B1804FF07E520023C4F8AC20C4F8B020BB
:101EB000C4F8A430C4F8A83045457FF6F4AE002D30
:101EC0003FF4F1AE7FE7284601A924F06FF9019DA8
:101ED000C4F89800AF42A84680F0D280284601A9F5
:101EE00024F064F994F89430019DC4F89C00D5E77F
:101EF000D4F80011084621F0E1FBD4F804914946DA
:101F0000824621F0DBFB51468046C4F8100148466A
:101F100021F0D2FB414621F08DFDD4F8FC10C4F82D
:101F20001401084621F0CAFB01468246484621F0CA
:101F3000C5FB414621F07EFD5146C4F808014846E4
:101F400021F0BAFB414621F075FDC4F80C01E6E62C
:101F5000D4F83011084621F0B1FBD4F83491494649
:101F6000824621F0ABFB51468046C4F8400148460A
:101F700021F0A2FB414621F05DFDD4F82C11C4F8FC
:101F80004401084621F09AFB01468246484621F06A
:101F900095FB414621F04EFD5146C4F838014846B4
:101FA00021F08AFB414621F045FDC4F83C01D6E60C
:101FB000A16B084621F082FBD4F83C90494682464A
:101FC00021F07CFB51468046A064484621F074FB1A
:101FD000414621F02FFD616BE064084621F06EFB65
:101FE00001468246484621F069FB414621F022FD28
:101FF00051462064484621F05FFB414621F01AFD1E
:102000006064C8E6D4F89C10084621F057FBD4F869
:10201000A0904946824621F051FB51460746C4F83C
:10202000AC00484621F048FB394621F003FDD4F8C6
:102030009810C4F8B000084621F040FB01468246E3
:10204000484621F03BFB394621F0F4FC5146C4F8E8
:10205000A400484621F030FB394621F0EBFCC4F8DF
:10206000A80029E73D46AEE6454694F8303088E6BC
:10207000454694F8F83044E6474694F8283160E63F
:10208000B84694F8943009E72DE9F043054687B047
:10209000806817460E4620F06FFF2A780092CDE93F
:1020A0000201AB1C39463046714A22F0CFFC95F84C
:1020B000D430044606EB0008C0EB0709002B00F003
:1020C000CB80D5F8D00020F057FF02460B4695F89C
:1020D000C510D5F8C8000491CDE9022320F04CFFCB
:1020E00095F8C430634ACDE900014946404622F0E4
:1020F000ADFC404622F064FD0444D5F8000195F89B
:10210000F89020F039FFCDE90201D5F8FC0020F06D
:1021100033FF06EB04083A1B4B46CDE9000111469C
:102120004046554A22F092FC404622F049FD0444C4
:10213000D5F8300195F8289120F01EFFCDE9020175
:10214000D5F82C0120F018FF06EB04083A1B4B468B
:10215000CDE9000111464046474A22F077FC40464F
:1021600022F02EFD0444A86B95F8309020F004FF77
:10217000CDE90201686B20F0FFFE06EB04083A1B74
:102180004B46CDE90001114640463B4A22F05EFC39
:10219000404622F015FD95F87030044406EB040823
:1021A000C4EB0709002B5BD0E86E20F0E5FE024689
:1021B0000B4695F86110686E0491CDE9022320F07A
:1021C000DBFE95F860302B4ACDE9000149464046D8
:1021D00022F03CFC404622F0F3FC0444286995F8C8
:1021E0000C8020F0C9FEC4EB070E32194346CDE93E
:1021F000000171461046214A22F028FC0444D5F81B
:102200009C0095F8949020F0B7FECDE90201D5F836
:10221000980020F0B1FE06EB04083A1B4B46CDE9CE
:10222000000111464046144A22F010FC404622F0BC
:10223000C7FC0444A8692D7D20F09EFE3F1B264468
:10224000CDE900012B46394630460D4A22F0FEFB0F
:10225000204407B0BDE8F08303A3D3E9002336E7A9
:1022600001A3D3E90023A4E70000000080842E41ED
:1022700058C5020048C502003CC5020064C5020002
:102280006CC5020010B4019C4462C16102628362A9
:1022900010BC70472DE9F84F0378002B00F0308117
:1022A000037B0E460446002B40F0C9800023C5691D
:1022B000C0F8583194F83030002B40F032812B6850
:1022C000C4F85C3194F82831002B00F02381636A54
:1022D000002B00F0C881D4F820801968D4F82C01B4
:1022E00021F0F4FAD8F8001021F0E8F90746C4F814
:1022F000600194F82C30D4F85C512BB3D8F800105E
:10230000284621F0D9F920F037FEA7A3D3E900230E
:102310008046894621F014F9002840F02281404689
:102320004946A3A3D3E9002321F0ECF860B1284685
:1023300020F022FEA0A3D3E9002320F0BFFC21F06F
:1023400067F90546C4F85C013946284621F0B4F91E
:10235000A16821F0BBFA94F8F830C4F8640105468E
:102360008BB3002E40F00B81D4F81C71D4F82411EB
:10237000D4F81401C4F8185100F1004021F0A6FA75
:10238000D4F808118046284621F0A0FA01464046BC
:1023900021F094F9D4F80C118046384621F096FAD1
:1023A0000146404621F08AF9C4F81C51C4F82001C6
:1023B000C4F82401C4F86401002E00F0EE80804BC4
:1023C0009D61D861054694F8C430002B73D06378C2
:1023D000C4F8E850002B67D1D4F8E400D4F8F41026
:1023E00000F1004021F072FAD4F8D81006462846D1
:1023F00021F06CFA0146304621F060F9D4F8EC1077
:102400000646D4F8DC0021F061FA0146304621F09E
:1024100055F994F8D430C4F8F000064653B1D4F816
:10242000D070394621F00EFC002800F01281C4F86B
:10243000F0703E46C4F8F460C4F8EC5036E0C5696C
:102440000169286821F042FA94F89430C4F85801E0
:102450000746002B3FF42EAFD4F8B000D4F8C010DC
:10246000C4F8B47000F1004021F030FAD4F8A410A0
:102470008046384621F02AFA0146404621F01EF9EE
:10248000D4F8B8108046D4F8A80021F01FFA01460D
:10249000404621F013F9C4F8B870C4F8BC00C4F881
:1024A000C000C4F8580105E7D4F8F060284631466A
:1024B00021F004F905462846D4F8581121F0FEF819
:1024C00094F86030C4F868010546002B7AD1C4F84E
:1024D0006C51237DCBB1A6692946304621F094FB8F
:1024E000002854D106F100463046294621F0AAFBC7
:1024F000A26A002853D0012316606370BDE8F88FEC
:10250000836A00221A60BDE8F88FA26A15606370C2
:10251000BDE8F88FD4F82080D8F80070C4F8607156
:10252000E7E6E06C2D68E16D256500F1004021F0E3
:10253000CDF9216C0746284621F0C8F901463846F6
:1025400021F0BCF8616D0746606C21F0BFF90146CF
:10255000384621F0B3F86565A065E065C4F85C0114
:10256000B0E6284620F008FD13A3D3E9002320F0AD
:10257000A3FB21F04DF80546C4F85C01E4E6104BDE
:10258000D4F81C71D4F824111F615961F0E6A26AD5
:10259000012316606370BDE8F88F054613E700233A
:1025A00015606370BDE8F88F182D4454FB21094075
:1025B000182D4454FB2109C0182D4454FB21194007
:1025C000EC180020D4F88000D4F89010C4F884509F
:1025D00000F1004021F07AF9616F0646284621F0AB
:1025E00075F90146304621F069F8D4F8881006469E
:1025F000A06F21F06BF90146304621F05FF894F8A6
:102600007030C4F88C0006463BB1E76E394621F0C5
:1026100019FBA8B1C4F88C703E4694F86130C4F838
:102620009060C4F888503BB12846314621F046F806
:102630000546C4F86C014CE7C4F86C61354648E7C0
:1026400007F100473946304621F0DEFA0028E1D193
:10265000E3E707F100473946304621F0D5FA002874
:102660007FF4E5AEE6E6002E5FD1D4F84C71D4F8E5
:102670005491D4F82080D8F800503946284621F0EB
:102680001BF820F079FC40A3D3E9002382468B4657
:1026900020F056FF002851D0384620F06DFC3CA3B6
:1026A000D3E9002320F00AFB20F0B2FFC4F84C016C
:1026B0000746484620F060FC35A3D3E9002320F00C
:1026C000FDFA20F0A5FFC4F85401D8F80050814667
:1026D000D4F84401C4F84851494600F1004021F0C3
:1026E000F5F8D4F838118146284621F0EFF8014674
:1026F000484620F0E3FFD4F83C118146384621F0EB
:10270000E5F80146484620F0D9FFC4F84C51074689
:10271000C4F85001C4F85401C4F86001002E3FF41D
:10272000E8AD1F4B9D60D860E3E51D4BD4F84C71BC
:10273000D4F854911F60C3F804909AE75046594664
:1027400015A3D3E9002320F0DDFE0028C0D03846D1
:1027500020F012FC0EA3D3E9002320F0ADFA20F004
:1027600057FFC4F84C010746484620F005FC08A373
:10277000D3E9002320F0A0FA20F04AFFC4F8540166
:102780008146D8F80050A3E7182D4454FB21094096
:10279000182D4454FB211940182D4454FB2109C025
:1027A000EC18002090F8C430017810B504460BB145
:1027B00041F0020194F8F8300BB141F0040194F8B3
:1027C00028310BB141F0080194F830300BB141F0E1
:1027D000100194F860300BB141F02001237B0BB164
:1027E00041F0400194F894300BB141F08001237D19
:1027F0000BB141F4807194F861300BB141F4007178
:102800003648FEF7B3F8237803B910BDA168334802
:10281000FEF774F894F8C430002B53D194F8F830D4
:10282000002B44D194F82831002B35D194F8303066
:102830004BBB94F86030EBB9237B43B9237D002B6D
:10284000E3D0A1692548BDE81040FEF757B82169DB
:102850002248FEF753F894F89430002BEED0D4F8C9
:1028600098101E48FEF74AF8D4F89C101B48FEF753
:1028700045F8E3E7616E1948FEF740F8E16E174846
:10288000FEF73CF8D8E7616B1448FEF737F8A16B08
:102890001248FEF733F8CCE7D4F82C110F48FEF7B6
:1028A0002DF8D4F830110D48FEF728F8BEE7D4F81B
:1028B000FC100A48FEF722F8D4F800110748FEF78A
:1028C0001DF8AFE7D4F8C8100448FEF717F8D4F89D
:1028D000D0100248FEF712F8A0E700BFAC9BFF1F24
:1028E0002DE9F041B64D04462846FEF783F8C0F3C3
:1028F000001300F00107C0F34006C0F38001C0F3ED
:10290000C00284F83030C0F34023277084F8C460DC
:10291000C0F34017C0F3801684F8F81084F828211B
:10292000C0F3C011C0F3002284F86130C30784F8FB
:102930006070267384F89410227501D4BDE8F0818C
:102940002846FEF733F894F8C430A060A3B19D4B3D
:10295000B3F90030002B40F3CD812846FEF726F86E
:10296000C4F8C8002846FEF721F894F8C430C4F82B
:10297000D000002B40F0C1814FF07E520023C4F8FC
:10298000E020C4F8E420C4F8D830C4F8DC3094F86F
:10299000F830A3B18B4BB3F90030002B40F37781B3
:1029A0008748FEF703F8C4F8FC008548FDF7FEFFF2
:1029B00094F8F830C4F80001002B40F0C0814FF0CB
:1029C0007E520023C4F81021C4F81421C4F8083141
:1029D000C4F80C3194F82831A3B17A4BB3F9003024
:1029E000002B40F321817648FDF7E0FFC4F82C016D
:1029F0007348FDF7DBFF94F82831C4F83001002B51
:102A000040F09F814FF07E520023C4F84021C4F86B
:102A10004421C4F83831C4F83C3194F8303093B1D3
:102A2000684BB3F90030002B40F3D2806448FDF7C7
:102A3000BDFF60636248FDF7B9FF94F83030A063D2
:102A4000002B40F080814FF07E520023A264E264AC
:102A50002364636494F8603083B15A4BB3F9003057
:102A6000002B56DD5648FDF7A1FF60665448FDF780
:102A70009DFF94F86030E066002B4DD14FF07E5200
:102A80000023E267C4F880206367A367237B63B3F6
:102A90004C4EB6F90030002B58DD494F3846FDF753
:102AA00085FF94F894302061A3B1B6F90030002B73
:102AB000D8BF3B6951DD3846FDF778FFC4F8980070
:102AC0003846FDF773FF94F89430C4F89C00002B4F
:102AD00040F03B814FF07E520023C4F8AC20C4F894
:102AE000B020C4F8A430C4F8A830237D002B3FF4F4
:102AF00025AF344BB3F90030002B04DC2B690433D1
:102B00002B61BDE8F0812E48FDF750FFA061BDE8C4
:102B1000F0812B6908332B61616E084620F0CEFDF1
:102B2000294BC4F880300146E067A06E20F082FF98
:102B300026496067A067E06E21F066F84FF0010358
:102B4000002800F0FA8084F870309FE72B6994F831
:102B5000942004332B61002ABCD00833D4F89C1095
:102B60002B61084620F0AAFDD4F8A07039468046B3
:102B700020F0A4FD41460646C4F8AC00384620F0DB
:102B80009BFD314620F056FFD4F89810C4F8B000F1
:102B9000084620F093FD01468046384620F08EFD21
:102BA000314620F047FF4146C4F8A400384620F0E3
:102BB00083FD314620F03EFFC4F8A80095E700BF32
:102BC000AC9BFF1F0C420020000080BF0000C642EB
:102BD0002B69A16B08332B61084620F06FFDE76B72
:102BE0003946804620F06AFD41460646A0643846D4
:102BF00020F062FD314620F01DFF616BE064084665
:102C000020F05CFD01468046384620F057FD3146F5
:102C100020F010FF41462064384620F04DFD31463B
:102C200020F008FF606415E72B69D4F830110833F1
:102C30002B61084620F042FDD4F8347139468046B5
:102C400020F03CFD41460646C4F84001384620F0DD
:102C500033FD314620F0EEFED4F82C11C4F84401C7
:102C6000084620F02BFD01468046384620F026FD20
:102C7000314620F0DFFE4146C4F83801384620F0E6
:102C80001BFD314620F0D6FEC4F83C01C5E62B6999
:102C9000D4F8001108332B61084620F00FFDD4F85A
:102CA00004713946804620F009FD41460646C4F8C5
:102CB0001001384620F000FD314620F0BBFED4F86C
:102CC000FC10C4F81401084620F0F8FC01468046C8
:102CD000384620F0F3FC314620F0ACFE4146C4F803
:102CE0000801384620F0E8FC314620F0A3FEC4F885
:102CF0000C016FE62B6908332B61D4F8C810084625
:102D000020F0DCFC124BC4F8E4300146C4F8E000CB
:102D1000D4F8CC0020F08EFE0E49C4F8D800C4F8D8
:102D2000DC00D4F8D00020F06FFF4FF0010310B1A9
:102D300084F8D4302BE60346FAE7034603E701465E
:102D4000AAE7014675E7014646E7014609E700BFE5
:102D5000000080BF0000C64238B5841C20460D46E6
:102D600021F02EFF29460246204621F0C7FFB0FA87
:102D700080F0400938BD00BF70B5C3698AB0044611
:102D80000D46016A1868D4F86021D4F85C310090CF
:102D90000968D4F8586101911846114602920493CB
:102DA000039620F089FCA16820F090FDD4F8F01083
:102DB000D4F86821D4F86461A36A05900791089259
:102DC00006961B68099328462822694608F002FDEA
:102DD0000AB070BDFFFFFFFF2DE9F0410378232B00
:102DE00082B0044620D021F0EBFE274A1278054637
:102DF0005AB1264A92F90010052938D0CBB2042BDB
:102E000008D9012002B0BDE8F0810146204618F043
:102E100041F8EEE7002000902B4622461C4806F0C1
:102E2000BFFE02B0BDE8F081184DFF2395F9007098
:102E30002B7021F0C5FE144A16788046A6B90146CB
:102E4000204618F027F895F90010052915D0CBB2C7
:102E5000042B09D80096434622460D4806F0A0FEF2
:102E60002F7002B0BDE8F08101202F70F9E72046F5
:102E7000294611F001FD0120C4E72046414611F02A
:102E8000FBFC01202F70ECE7E49BFF1F0488FF1F71
:102E90001C9EFF1F08B50A220021044823F044FAB3
:102EA00000EB80004000013080B208BD84C5020004
:102EB000F0B54C4A4C4B14684C4918684C4BB1F96E
:102EC0000E601B884B4A4C4DD5B004EB8404109621
:102ED000640000EB8000B1F90CE0B1F90A701294C3
:102EE0004000B1F908601190B1F90640CDF838E022
:102EF000B1F904000C97B1F902700A96B2F90E60AC
:102F00000894B2F90C400690B2F90A000497B2F99D
:102F100008700F96B2F906600D94B2F904400B9058
:102F2000B2F902000997079605940390B1F90000E1
:102F3000B2F900102A8800920290019115A82F4A38
:102F4000FA2121F083FD9DF85430232B1ED015A8C3
:102F500021F036FE2A4A127804464AB1294A92F9EB
:102F60000010052932D0CBB2042B06D955B0F0BDE4
:102F7000014615A817F08EFFF0E7002000902346C9
:102F800015AA214806F00CFE55B0F0BD1D4CFF23DC
:102F900015A894F90060237021F012FE184A1578E4
:102FA000074685B9014615A817F074FF94F900107B
:102FB000052910D0CBB2042B05D800953B4615AAA5
:102FC000114806F0EDFD267055B0F0BD214615A85C
:102FD00011F052FCCAE7394615A811F04DFC2670D5
:102FE000F2E700BF683F0020703F0020588AFF1FB3
:102FF000883F0020488AFF1F8A3F0020A8C50200A2
:10300000E49BFF1F0488FF1F1C9EFF1F2DE9F0415A
:10301000434A444B5788D3F80480434915881E68B7
:103020000C88CAB0C8EB070020F0FCFB3F4900F158
:10303000004020F04BFC1FF09FFFCDE90801A81BCA
:10304000CDF81C80069720F0EDFB384920F03EFCBF
:103050001FF092FFCDE9040120460396029520F06F
:10306000E1FB334920F032FC1FF086FF2346CDE917
:103070000001304A0BA8FA2121F0E8FC9DF82C3021
:10308000232B20D00BA821F09BFD2B4A127804465D
:1030900052B12A4A92F90010052935D0CBB2042B3F
:1030A00007D94AB0BDE8F08101460BA817F0F2FE3F
:1030B000EFE70020009023460BAA214806F070FDA0
:1030C0004AB0BDE8F0811D4CFF230BA894F90060C5
:1030D000237021F075FD184A1578074685B9014619
:1030E0000BA817F0D7FE94F90010052911D0CBB228
:1030F000042B05D800953B460BAA114806F050FD5D
:1031000026704AB0BDE8F08121460BA811F0B4FB4F
:10311000C7E739460BA811F0AFFB2670F1E700BFF7
:10312000381E0020301E0020EE410020E62A3136F5
:10313000B4A1013BF4C50200E49BFF1F0488FF1FFC
:103140001C9EFF1FF0B53A4B3A4C9B683A493B4AEC
:103150003B480D780088B2F97C1092F87E2093B03D
:10316000A4FB03439B09079304920591069520F065
:1031700059FB3449344C20F0A9FB1FF0FDFECDE98A
:10318000020160681FF0F8FE304ACDE9000109A88D
:10319000232121F05BFC9DF82430232B1DD009A8AE
:1031A00021F00EFD227805464AB1294A92F9001015
:1031B000052931D0CBB2042B06D913B0F0BD01469E
:1031C00009A817F067FEF0E7002000902B4609AA37
:1031D000204806F0E5FC13B0F0BD1D4DFF2309A803
:1031E00095F900602B7021F0EBFC2478074684B938
:1031F000014609A817F04EFE95F90010052910D0D8
:10320000CBB2042B05D800943B4609AA114806F01E
:10321000C7FC2E7013B0F0BD294609A811F02CFB95
:10322000CBE7394609A811F027FB2E70F2E700BF63
:10323000F4410020ABAAAAAA649DFF1F983F00207A
:10324000EE410020B4A1013BE49BFF1F1CC602001D
:103250000488FF1F1C9EFF1FF0B5374CA9B0E06823
:103260001FF08AFECDE90801344B18681FF084FE78
:10327000CDE90601A0681FF07FFECDE9040160687A
:103280001FF07AFECDE9020120681FF075FE2C4A7E
:10329000CDE900010AA8782121F0D8FB9DF828305B
:1032A000232B1ED00AA821F08BFC264A1278044654
:1032B0004AB1254A92F90010052932D0CBB2042B2D
:1032C00006D929B0F0BD01460AA817F0E3FDF0E7E2
:1032D0000020009023460AAA1C4806F061FC29B091
:1032E000F0BD194CFF230AA894F90060237021F067
:1032F00067FC144A1578074685B901460AA817F0F5
:10330000C9FD94F90010052910D0CBB2042B05D8C3
:1033100000953B460AAA0D4806F042FC267029B0EB
:10332000F0BD21460AA811F0A7FACAE739460AA853
:1033300011F0A2FA2670F2E7C89DFF1FD89DFF1F6B
:1033400038C60200E49BFF1F0488FF1F1C9EFF1F5E
:10335000F0B53C4B3C4D1C68B5F9040097B020F02B
:1033600061FA214620F0B2FA1FF006FECDE9040111
:10337000B5F9020020F056FA214620F0A7FA1FF016
:10338000FBFDCDE90201B5F9000020F04BFA214622
:1033900020F09CFA1FF0F0FD2C4ACDE9000106A8B0
:1033A000402121F053FB9DF81830232B1ED006A896
:1033B00021F006FC264A127804464AB1254A92F9C1
:1033C0000010052932D0CBB2042B06D917B0F0BDBE
:1033D000014606A817F05EFDF0E7002000902346A6
:1033E00006AA1D4806F0DCFB17B0F0BD194CFF2300
:1033F00006A894F90060237021F0E2FB144A1578C6
:10340000074685B9014606A817F044FD94F9001057
:10341000052910D0CBB2042B05D800953B4606AA4F
:103420000D4806F0BDFB267017B0F0BD214606A87A
:1034300011F022FACAE7394606A811F01DFA2670E3
:10344000F2E700BF54E10200409DFF1F50C602009A
:10345000E49BFF1F0488FF1F1C9EFF1FF0B53C4B21
:103460003C4D1C68B5F9040097B020F0DBF921460B
:1034700020F02CFA1FF080FDCDE90401B5F902001F
:1034800020F0D0F9214620F021FA1FF075FDCDE99A
:103490000201B5F9000020F0C5F9214620F016FA26
:1034A0001FF06AFD2C4ACDE9000106A8402121F059
:1034B000CDFA9DF81830232B1ED006A821F080FBF2
:1034C000264A127804464AB1254A92F90010052985
:1034D00032D0CBB2042B06D917B0F0BD014606A8F6
:1034E00017F0D8FCF0E700200090234606AA1D48FC
:1034F00006F056FB17B0F0BD194CFF2306A894F94F
:103500000060237021F05CFB144A1578074685B9EA
:10351000014606A817F0BEFC94F90010052910D04A
:10352000CBB2042B05D800953B4606AA0D4806F001
:1035300037FB267017B0F0BD214606A811F09CF9A4
:10354000CAE7394606A811F097F92670F2E700BFDE
:1035500058E10200489DFF1F60C60200E49BFF1F68
:103560000488FF1F1C9EFF1FF0B52F4C95B06068AC
:103570001FF002FDCDE9020120681FF0FDFC2B4A7F
:10358000CDE9000104A8402121F060FA9DF8103037
:10359000232B1ED004A821F013FB254A12780446E1
:1035A0004AB1244A92F90010052932D0CBB2042B3B
:1035B00006D915B0F0BD014604A817F06BFCF0E782
:1035C00000200090234604AA1B4806F0E9FA15B033
:1035D000F0BD184CFF2304A894F90060237021F07B
:1035E000EFFA134A1578074685B9014604A817F083
:1035F00051FC94F90010052910D0CBB2042B05D84A
:1036000000953B4604AA0C4806F0CAFA267015B08D
:10361000F0BD214604A811F02FF9CAE7394604A8E5
:1036200011F02AF92670F2E73C1E002070C6020055
:10363000E49BFF1F0488FF1F1C9EFF1FF0B52F4C4B
:1036400095B060681FF098FCCDE9020120681FF07A
:1036500093FC2B4ACDE9000104A8402121F0F6F9A2
:103660009DF81030232B1ED004A821F0A9FA254A7A
:10367000127804464AB1244A92F90010052932D042
:10368000CBB2042B06D915B0F0BD014604A817F043
:1036900001FCF0E700200090234604AA1B4806F036
:1036A0007FFA15B0F0BD184CFF2304A894F9006010
:1036B000237021F085FA134A1578074685B901462B
:1036C00004A817F0E7FB94F90010052910D0CBB23D
:1036D000042B05D800953B4604AA0C4806F060FA76
:1036E000267015B0F0BD214604A811F0C5F8CAE750
:1036F000394604A811F0C0F82670F2E7049EFF1FB7
:103700007CC60200E49BFF1F0488FF1F1C9EFF1F56
:10371000F0B52DA3D3E9002393B0CDE9002302A88F
:103720002B4A402121F092F99DF80830232B1ED01E
:1037300002A821F045FA274A127804464AB1264ADF
:1037400092F90010052932D0CBB2042B06D913B060
:10375000F0BD014602A817F09DFBF0E700200090A5
:10376000234602AA1D4806F01BFA13B0F0BD1A4CFE
:10377000FF2302A894F90060237021F021FA154A72
:103780001578074685B9014602A817F083FB94F91E
:103790000010052910D0CBB2042B05D800953B466C
:1037A00002AA0E4806F0FCF9267013B0F0BD2146BF
:1037B00002A811F061F8CAE7394602A811F05CF8D6
:1037C0002670F2E7AFF30080FCA9F1D24D62503FC2
:1037D00088C60200E49BFF1F0488FF1F1C9EFF1F7A
:1037E0000021014802F03EBF983F00202DE9F04340
:1037F000ADF5417D0022431C8DF83C21112B45D8AD
:10380000DFE813F04D00120029014F01A601BC01B1
:10381000C901D601EA0110021B022F022F02640225
:1038200064029A02F2024800B44BB54D1C68B5F927
:1038300004001FF0F7FF214620F048F81FF09CFB22
:10384000CDE90401B5F902001FF0ECFF214620F09C
:103850003DF81FF091FBCDE90201B5F900001FF022
:10386000E1FF214620F032F81FF086FBCDE9000190
:10387000A44A402131A821F0E9F831A8FFF7ACFAB9
:103880009DF83C3113B14FA8FFF7A6FA0DF5417D25
:10389000BDE8F0830AF064FE9DF83C31F2E79A49F6
:1038A000964A9A4B088816681C68994DDFF89882EA
:1038B000984FDFF898921FF0B5FF974920F006F86F
:1038C0001FF05AFBCDE92E01944BE8681B7A2C932C
:1038D0001FF052FBCDE92A01914B18681FF04CFBF9
:1038E000CDE92801A8681FF047FBCDE926016868EB
:1038F0001FF042FBCDE9240128688A4D1FF03CFBF4
:10390000CDE92201D8F804001FF036FBCDE92001F3
:10391000D8F80000DFF828821FF02EFBCDE91E0149
:1039200078681FF029FBCDE91C0138681FF024FBE3
:103930006B68B9F802707C4ACDE91A01F81A0CCA12
:10394000199318921FF06EFF7849794F00F10040EB
:103950001FF0BCFF1FF010FBB9F800202B68684D6A
:10396000CDE91601D01A1FF05DFF70491FF0AEFFC0
:103970001FF002FBCDE914016E4BD8F808001B784C
:1039800012931FF04FFF21461FF0A0FF1FF0F4FA23
:10399000CDE91001D8F804001FF044FF21461FF0C4
:1039A00095FF1FF0E9FACDE90E01D8F800001FF0ED
:1039B00039FF21461FF08AFF1FF0DEFACDE90C0126
:1039C000B7F904001FF02EFF21461FF07FFF1FF004
:1039D000D3FACDE90A01B7F902001FF023FF21460F
:1039E0001FF074FF1FF0C8FACDE90801B7F9000015
:1039F0001FF018FF21461FF069FF1FF0BDFACDE947
:103A00000601B5F904001FF00DFF31461FF05EFFFF
:103A10001FF0B2FACDE90401B5F902001FF002FF70
:103A200031461FF053FF1FF0A7FACDE90201B5F9A7
:103A300000001FF0F7FE31461FF048FF1FF09CFA10
:103A40003D4ACDE900014FF4E1714FA820F0FEFF9F
:103A50009DF83C3116E72D4B354D1C68B5F9040037
:103A60001FF0E0FE21461FF031FF1FF085FACDE97F
:103A70000401B5F902001FF0D5FE21461FF026FF14
:103A80001FF07AFACDE90201B5F900001FF0CAFE75
:103A900021461FF01BFF1FF06FFA284ACDE90001F5
:103AA000E7E61A4A264D234B14681B78A86806934C
:103AB0001FF0B8FE21461FF009FF1FF05DFACDE9A7
:103AC000040168681FF0AEFE21461FF0FFFE1FF0E4
:103AD00053FACDE9020128681FF0A4FE21461FF029
:103AE000F5FE1FF049FA174ACDE900014FF4E171E4
:103AF0004FA820F0ABFF9DF83C31C3E654E1020033
:103B0000409DFF1F50C60200EE41002058E1020018
:103B1000C89DFF1F049EFF1FB4A1013BE49BFF1F34
:103B2000D89DFF1F301E0020041B0020E62A3136DE
:103B3000489DFF1F4E9DFF1F94C6020060C60200F5
:103B4000509DFF1F10C70200DC9DFF1F381E002084
:103B5000864C60681FF010FACDE9020120681FF062
:103B60000BFACDE90001824A402131A820F06EFF16
:103B700031A8FFF731F99DF83C3183E67D497E4A53
:103B80000B68496800914FA84FF4E17120F05EFF87
:103B90009DF83C3176E6794C60681FF0EDF9CDE98F
:103BA000020120681FF0E8F9754ACDE90001DBE762
:103BB000744C60681FF0E0F9CDE9020120681FF045
:103BC000DBF9714ACDE900014FF4E1714FA820F013
:103BD0003DFF9DF83C3155E66C4CE0681FF0CCF998
:103BE000CDE908016A4B18681FF0C6F9CDE9060156
:103BF000A0681FF0C1F9CDE9040160681FF0BCF9AD
:103C0000CDE9020120681FF0B7F9624ACDE9000151
:103C1000782131A820F01AFF31A8FFF7DDF89DF8D0
:103C20003C312FE65C4B5D4A1B7A4FF4E1714FA8A3
:103C300020F00CFF9DF83C3124E6594B18881FF00A
:103C4000F1FD58491FF042FE1FF096F9564ACDE9A2
:103C500000014FF4E1714FA820F0F8FE9DF83C31CF
:103C600010E6A0F10A05514B019330222B46009239
:103C70004FF4E1714E4A4F4F4FA820F0E7FE4FA896
:103C800020F09EFF044605EB4500C001051F4FAB29
:103C9000BC303D441E19074455F8043F464AC4F55C
:103CA000E171304620F0D2FE304620F089FF4FAB64
:103CB0000444BD4203EB0406EED1C4F5E171304685
:103CC0003E4A20F0C3FE9DF83C31DBE5A0F10C0537
:103CD00030222B4600924FF4E171394A394F4FA8F8
:103CE00020F0B4FE4FA820F06BFF044605EB450022
:103CF0008001051F4FABBC303D441E19074455F8E9
:103D0000040F1FF08BFD1FF037F900222E4B1FF020
:103D1000B1FAC4F5E173CDE900012C4A19463046E9
:103D200020F094FE304620F04BFF4FAB0444BD42E0
:103D300003EB0406E3D1C0E7254A264C1278264857
:103D40002649274B0078097824681B78029082F076
:103D50000102019200910394224A4FF4E1714FA8AD
:103D600020F074FE9DF83C318CE500BF3C1E002025
:103D700070C60200041B002024C70200049EFF1F1F
:103D80007CC60200DC9DFF1F38C70200C89DFF1FD4
:103D9000D89DFF1F38C60200E49BFF1F44C70200E6
:103DA000EE410020B4A1013B50C7020000D8B80585
:103DB0005CC70200181B002068C70200BCCF0200CD
:103DC00070C702006C19002000408F4078C70200C5
:103DD000141B0020048AFF1F008AFF1F0C8AFF1F8C
:103DE000241E00207CC702002B4A2C4992F9002097
:103DF0002B4B08681C921D682A4C1FF0BDF8CDE9BA
:103E00001A01294B18681FF0B7F8284A284B126886
:103E10001B681792CDE91801E06916931FF0ACF802
:103E2000CDE91401A0691FF0A7F8CDE9120160697E
:103E30001FF0A2F8CDE9100120691FF09DF8CDE92F
:103E40000E01E0681FF098F8CDE90C01A0681FF0A2
:103E500093F8CDE90A0160681FF08EF8CDE90801FA
:103E600020681FF089F8134A134B12780492CDE9A9
:103E7000060118681FF080F8104B114A1B68009368
:103E8000CDE902012B464FF4E1714FA820F0DEFD91
:103E90009DF83C31F6E400BF541E0020E41E0020D3
:103EA000F81E0020681E0020E81E0020EC1E0020E6
:103EB000F01E0020B51E0020B01E0020F41E0020C1
:103EC00090C70200F0B50A229FB00021334822F0CB
:103ED0002BFA00EB80004000314B01301B7802933D
:103EE00080B21FF09BFC1FF047F82E4B00221FF002
:103EF000C1F92D4ACDE9000105A8642120F0A6FDF5
:103F00009DF81430232B1ED005A820F059FE274A17
:103F1000127804464AB1264A92F90010052932D097
:103F2000CBB2042B06D91FB0F0BD014605A816F090
:103F3000B1FFF0E700200090234605AA1D4805F0D8
:103F40002FFE1FB0F0BD1A4CFF2305A894F90060A6
:103F5000237020F035FE154A1578074685B90146CD
:103F600005A816F097FF94F90010052910D0CBB2E0
:103F7000042B05D800953B4605AA0E4805F010FE17
:103F800026701FB0F0BD214605A810F075FCCAE7E9
:103F9000394605A810F070FC2670F2E784C50200CF
:103FA000EC410020000024404CC80200E49BFF1FAD
:103FB0000488FF1F1C9EFF1F2DE9F0470422ADF56A
:103FC000066D0D469C49044620F098FE70B99B4A48
:103FD0009B4C9C49907200230120507223600B601F
:103FE000994B1D700DF5066DBDE8F08704229749C9
:103FF000204620F083FE38B923791F2B00F2A380DE
:10400000934B01221A70EBE78C4FBB7A002BE9D15E
:1040100063788D4E3D2B357000F0A0802378782B8F
:1040200000F0B68003228B49204620F067FE00286E
:1040300059D02146884802F009FF0028D2D12046F5
:104040000AF0E2FB0028CDD1204608F0E3F98046D3
:104050000028C7D194F80090B9F13C0F00F01A8104
:10406000B9F1750F00F0FD84B9F1760F00F04981C8
:1040700009F0DF02482A00F07181032277492046C7
:1040800020F03CFE8246002800F03A850322744965
:10409000204620F033FE8246002800F045850322AA
:1040A0007049204620F02AFE002800F06285032295
:1040B0006D49204620F022FE8246002840F04E85C1
:1040C00020463D2120F010FD002800F0D285514609
:1040D00001300A2222F028F920EAE0710122634827
:1040E000FCF79CFE7EE703340A2220460EA90E94BC
:1040F000189422F019F90EA905460E9822F056F8E8
:1041000018A906460E9822F051F8189C0E9A94426F
:1041100007467FF667AF18A920460A220E9422F0C0
:1041200003F90E9A189B003018BF01209A4208BF6D
:104130000020291C00903B46324618BF012146480A
:1041400002F04EFA4EE701460A22601D22F0ECF81A
:104150003F4B003018BF0120187041E723784D3BDA
:10416000262B5CD8DFE803F04A5B5B5B5B5B5B5B49
:104170005B5B5B5B5B5B5B5B5B5B5B5B3E5B5B5BAC
:104180005B5B5B5B375B5B5B5B5B5B5B5B5B1F003A
:10419000611C314802F092FE00287FF423AF3448BE
:1041A000FEF71AFE1EE70EA90A22A01C22F0BCF898
:1041B000304B186003F01CFC0E9803781F2B7FF621
:1041C00011AF0EA90A2222F0AFF82B4B003018BF16
:1041D0000120187006E7A01C0A22002122F0A4F892
:1041E000F872FFE62548FEF7F7FD01F0A5FED0B115
:1041F0002348FEF7F1FD01F0FDFCF3E6164DB5F99D
:104200007C10A1B9A01C0A2222F08EF81D4BA867D1
:104210001B689842FFF6E6AE013BAB67E2E61A4840
:10422000FEF7DAFDDEE61948FEF7D6FDE3E71848AB
:10423000FEF7D2FDD6E600BF60C80200E49BFF1F78
:10424000709DFF1F749DFF1F0488FF1F68C8020038
:104250000442002034C90200983F00206CDC0200B8
:1042600084DC020088DC02008CDC0200AC9BFF1FB7
:1042700014C90200C089FF1FCC89FF1F98C8020023
:10428000C4C8020044E20200FCC80200E0C8020008
:1042900070C80200651C28460522274920F02EFD23
:1042A000002800F03C8403222449284620F026FD03
:1042B000002800F04D8405222149284620F01EFDEB
:1042C000002800F05C8403221E49284620F016FDD9
:1042D0000646002800F087841B490322284620F068
:1042E0000DFD0146002800F0B2842846052217493A
:1042F00020F004FD002840F0A58415480FF0CCFA0A
:1043000070E66378303B042B12D8DFE803F00E0A26
:1043100006110300FFF7FCF964E60E4804F0F4FA16
:1043200060E60C4804F0AEFA5CE607F0EDFF59E6F3
:104330000948FEF751FD55E638C9020040C90200A0
:1043400044C902004CC90200BCC90200C0C9020035
:10435000404000201C9EFF1F0CCA0200A149A24C35
:1043600018A820F017F818A8FEF736FD9F4BA04AB2
:104370009B6FDC2118A820F069FB18A8FEF72CFD24
:1043800097F90B309B4ADC2118A820F05FFB18A896
:10439000FEF722FD984A994B12781B680092DC21A7
:1043A000974A18A820F052FB18A8FEF715FDA2792D
:1043B000637865792079E1780492A2780092039578
:1043C00002900191A07B627B217BE57A0C90A07A20
:1043D0000B92627A0A91217A0995E5790890079201
:1043E0000691884A0595DC2118A820F02FFB207E35
:1043F000E37BE17DA27D667D0790257D0691E07CD3
:104400000592A17C627C0092029001917E4A049602
:10441000DC21039518A820F019FB18A8FEF7DCFC96
:104420007A4B1B781BB17A4B1B7883F001037949D7
:10443000794A096812680192009302911E23774A13
:10444000774C784D784EDC2118A820F0FFFA18A898
:10445000FEF7C2FCBB7A754A754FDC2118A820F024
:10446000F5FA18A8FEF7B8FC7249734AB1F90030A2
:10447000B1F90210009118A8DC2120F0E7FA18A881
:10448000FEF7AAFC60681EF077FDCDE90201206806
:104490001EF072FD694ACDE90001DC2118A820F068
:1044A000D5FA18A8FEF798FC6549664A91F90030DC
:1044B00091F90110009118A8DC2120F0C7FA18A882
:1044C000FEF78AFC6822604918A81FF063FF18A84D
:1044D000FEF782FC6C225D4918A81FF05BFF18A84C
:1044E000FEF77AFC8C225A4918A81FF053FF18A82F
:1044F000FEF772FCA322574918A81FF04BFF18A81B
:10450000FEF76AFC6F22544918A81FF043FF18A851
:10451000FEF762FCBE22514918A81FF03BFF18A805
:10452000FEF75AFC4E48FEF757FC4E48FEF754FC87
:104530004D48FEF751FC7C224C4918A81FF02AFF79
:1045400018A8FEF749FC0FCD18AC0FC40FCD0FC44F
:104550000FCD0FC42B68237018A8FEF73DFC0FCFBA
:1045600018AD0FC50FCF0FC597E80F0007C525F889
:10457000023B3F4F1B0C2B7018A8FEF72DFC0FCFF2
:1045800018AD0FC50FCF0FC50FCF0FC525463B6820
:1045900025F8023B1B0C2B7018A8FEF71DFC5B22B4
:1045A000344918A81FF0F6FE18A8FEF715FC99224A
:1045B000314918A81FF0EEFE18A8FEF70DFC2F4990
:1045C0002F4A0B880F89CD888888498800910397E6
:1045D00002950190DC2118A82A4F20F037FA18A87C
:1045E00052E000BF2CCA020024A3FF1F983F002006
:1045F00074CA0200C8CA0200CC89FF1FC089FF1F0D
:104600002CCB020078CB02000CCC0200B9A3FF1F18
:10461000B8A3FF1FB0A3FF1FB4A3FF1F88CC0200E5
:10462000F81A00207CD2020040400020D4CC0200C6
:10463000B0D20200EC1A002008CD020040CD0200EA
:10464000F01A002080CD0200BCCD020024CE020072
:1046500090CE02001CCF0200C0CF020030D002007A
:10466000F0D0020040D10200A8D1020000D2020026
:10467000E0D2020014D3020070D302008C4100206B
:104680000CD402007CD40200FEF7A6FB0FCF18ADBD
:104690000FC50FCF0FC597E8070003C525F8022BFC
:1046A000120C2A70B94D18A8FEF796FB0FCD18AF63
:1046B0000FC70FCD0FC795E80F0087E80F0018A8A8
:1046C000FEF78AFBDFF828E3BEE80F0018AD0FC540
:1046D000BEE80F000FC59EE8070003C518A82A8092
:1046E000FEF77AFBDFF80CE3BEE80F000DF160087F
:1046F000A8E80F00BEE80F00A8E80F009EE803003E
:10470000B846386008F8041F18A8FEF765FBDFF804
:10471000E8C2BCE80F000DF1600EAEE80F00BCE887
:104720000F00AEE80F009CE80700AEE803002A7017
:1047300018A8FEF751FB964A964B10681D781EF09C
:104740001BFCCDE90201944B18681EF015FC2B46AA
:10475000CDE90001914A924DDC2118A820F076F9AC
:1047600018A8FEF739FB30460FF004F996F8183117
:1047700000938C4A0346DC2118A820F067F918A89A
:10478000FEF72AFB5522884918A81FF003FE18A837
:10479000FEF722FB0FCD18AE0FC60FCD0FC695E862
:1047A0000F00824D824E87E80F0018A8FEF714FB19
:1047B0000FCD0DF16009A9E80F000FCDA9E80F009A
:1047C00095E80F00A9E8070018A8A9F80030FEF73F
:1047D00003FB0FCE18AD0FC50FCE0FC50FCE0FC503
:1047E00096E8070003C5734E2A7018A8FEF7F4FA7E
:1047F0000FCE0DF1600EAEE80F000FCEAEE80F0049
:104800000FCEAEE80F0096E8030084E8030018A876
:10481000FEF7E2FA684E69495C2218A81FF0BAFD5B
:1048200018A8FEF7D9FA0FCE18AC0FC40FCE0FC4DC
:1048300096E80F0007C4A9F8003018A8FEF7CCFAD4
:104840005F4E60494B2218A81FF0A4FD18A8FEF780
:10485000C3FA0FCE18AC0FC40FCE0FC40FCE0FC4C7
:1048600096E8070003C42C46130C2A8018A804F805
:10487000023FFEF7B1FA544B544A1B78DC2118A8CA
:1048800020F0E4F818A8FEF7A7FA4122504918A82A
:104890001FF080FD18A8FEF79FFA4E4B4E4A1B787A
:1048A000DC2118A820F0D2F818A8FEF795FADFF856
:1048B0004CE1BEE80F0018AE0FC6BEE80F000FC6F1
:1048C000BEE80F000FC69EE80F0007C626F8023BA1
:1048D00018A81B0C3370FEF77FFA404A4048B2F923
:1048E00014C01378111D91E8420280FB09AE4FEA13
:1048F000E979CDF81CC0C9EB6E1E80FB06A980FBD0
:1049000001A0F617C917C6EB6916C1EB6011B2F921
:104910001090907852780092CDF818C0CDF810E041
:104920000396029101902F4ACDF81490DC2118A82B
:104930002D4E20F08BF818A8FEF74EFA0FCE0DF191
:10494000600EAEE80F000FCEAEE80F0096E8030051
:10495000386088F8001018A8FEF73EFADFF8A0E0EB
:10496000BEE80F0018AE0FC6BEE80F000FC6BEE8C7
:104970000F000FC69EE80700130C03C62A8018A874
:104980002370FEF729FA922218493BE0A8D40200CE
:10499000749DFF1F649DFF1F709DFF1F58D502006F
:1049A0007CD60200C8D5020024D60200ACD6020094
:1049B000DCD6020018D70200ACD7020050D70200A4
:1049C00028D80200DCD702000442002064D802008C
:1049D000A4D8020054190020E8D802006441002045
:1049E0001F85EB5160D902003CDA0200A0DA020018
:1049F000D8D4020004D502002CD5020020D9020030
:104A000064DA02009C4D18A81FF0C4FC18A8FEF739
:104A1000E3F95C22994918A81FF0BCFC18A8FEF71E
:104A2000DBF96522964918A81FF0B4FC18A8FEF718
:104A3000D3F94D22934918A81FF0ACFC18A8FEF733
:104A4000CBF90FCD18AC0FC40FCD0FC43C462B686B
:104A500024F8023B1B0C18A82370FEF7BDF9FFF7E2
:104A6000C1BA601C0A22002121F05EFC43B21F2B58
:104A700000F25681DFE803F0403A34302C2824203D
:104A80001C161616161616101010101010101010F6
:104A900010101010101010100F3840B2FEF7A6FEC4
:104AA000FFF7A0BA083840B209F094FDFFF79ABAB0
:104AB000FEF7ACFAFFF796BAFEF7FAF9FFF792BAEB
:104AC00001F0AEF9FFF78EBAFEF73CFBFFF78ABAAA
:104AD00003F0E8F9FFF786BA07F0C6FBFFF782BAE2
:104AE0000121694801F0BEFDFFF77CBA4FF0FF30AD
:104AF000FEF77CFEFFF776BAFFF7E4F9FFF772BA2C
:104B0000624C60602061606114F08EFE6048FEF7C8
:104B100063F951462046FBF77FFFFFF763BA5D4814
:104B20000EF02EFFFFF75EBA584C18AB204601215D
:104B30006360C4F810A0C4F814A0FBF76DFF5246E0
:104B400051462046FBF768FEC4F804A0FFF74ABAB6
:104B5000211D50480EF082FDFFF744BA05224E4950
:104B6000204620F0CBF880B9012378727B73FFF7E1
:104B700039BA01464548FCF703F8FFF733BAA11DDF
:104B800044480EF0FFFFFFF72DBA052243492046A7
:104B900020F0B4F8002800F0C880032240492046E5
:104BA00020F0ACF8002840F08980E51C28463A49FE
:104BB00020F084FA60B1344BB3F97C300BB9002398
:104BC0007B600121002005F08FF9364B01221A701D
:104BD0003549284620F072FA002800F0AA8005F036
:104BE000E1F9FFF7FFB904340EAD204629460A2249
:104BF00021F09AFB2B689C4207B202D01E1C18BF02
:104C0000012618460A22294621F08EFB2B689C4279
:104C100002B222D00BB306B3002F1EDD002A1CDD2A
:104C200039461C480EF0A6FD00287FF4DBA918A821
:104C30001E4B1F4A64211FF009FF18A8FEF7CCF88D
:104C4000FFF7D0B91B48FEF7C7F8FFF7CBB91148FB
:104C50000EF0FAFD3873FFF7C5B900923B4618A86D
:104C6000154A64211FF0F2FE18A8FEF7B5F8FFF709
:104C7000B9B90121FFF732BA48DC020034DB020087
:104C800090DB0200F8DB0200983F0020AC9BFF1F86
:104C900070DC02004040002090DC020098DC020042
:104CA000A0DC0200CC89FF1F60C80200243F002066
:104CB00050C90200C8C9020074C902000422B649E2
:104CC000204620F01BF8002855D00422B349204686
:104CD00020F014F800283BD00422B149204620F0EF
:104CE0000DF8002800F029810422AE49204620F06A
:104CF00005F8002800F0DF800322AB4920461FF0B2
:104D0000FDFF002800F02C810522A84920461FF055
:104D1000F5FF002840F0AC80A54B1870FFF762B992
:104D2000A448FEF759F8FFF75DB902F083FFFFF7DB
:104D300059B92846A04920F0C1F900287BD09F4BE3
:104D40001B68002B72D001237B72BB72FFF74AB93C
:104D5000043418A920460A22189421F0E5FA18A96B
:104D600004460A22086821F0DFFAC1B2E0B208F076
:104D70004DFAFFF737B904340EA920460A220E94E3
:104D800021F0D2FA8E4C031C18BF01230EA90E98F5
:104D9000E3730A22237421F0C7FA031C18BF01230E
:104DA0000EA90A220E98637421F0BEFA031C18BFE4
:104DB00001230EA90A220E98A37421F0B5FA031C50
:104DC00018BF01230EA90A220E98E37421F0ACFA51
:104DD000031C18BF01230EA90A220E98237521F087
:104DE000A3FA031C18BF01230EA90A220E986375AB
:104DF00021F09AFA031C0EA918BF01230A220E986B
:104E0000A37521F091FA0EA9031C18BF01230A22F1
:104E10000868E37521F088FA031C18BF01234FF4DA
:104E20007A70237606F08CFCFFF7DCB86548FDF756
:104E3000D3FFFFF7D7B8E578A5F12B035D4204F166
:104E400004045D41264601343378013B1F2BF9D918
:104E500003225D4930461FF021FF002840F03281D7
:104E6000574B5D704FF47A7006F06AFCFFF7BAB8E2
:104E70000322564920461FF041FF002800F0B2806F
:104E8000B9F13A0F77D00422514920461FF036FF7E
:104E9000002840F0E5802379202B66D03D2B64D09C
:104EA0004C4B93F8B124002A3FF49CA80A2283F8C3
:104EB000F823FFF797B804340EA920460E9421F08A
:104EC00075F90EA90446086821F070F9424B1C6080
:104ED000586005461EF050F8CDE9020120461EF04C
:104EE0004BF83E4ACDE90001642118A81FF0AEFD41
:104EF00018A8FDF771FF24F000401EF03DF824A330
:104F0000D3E900231EF01CFB80B925F000401EF001
:104F100033F81FA3D3E900231EF012FB4FF0010367
:104F200000B9034683F001035FFA83F82C4B83F842
:104F30007E8008F00BFAFFF755B8043418A9204614
:104F40000A22189421F0F0F918A904460A220868E8
:104F500021F0EAF90146204608F0CEF8FFF742B802
:104F6000201D02F073FEFFF73DB8611D194803F0E4
:104F7000F7FCFFF737B820461FF022FE231813F87E
:104F8000012D1F2A58D80138F9E700BFAFF3008080
:104F90007B14AE47E17A843F18DD020020DD020079
:104FA00028DD020030DD020054DD020058DD020081
:104FB0004E9DFF1FECC90200BCC90200B4A3FF1F35
:104FC00024A3FF1FA4DC0200B8DC020060DD0200A5
:104FD000E8DD02001C9EFF1FF81A002038DD0200E9
:104FE000983F00200EA81FF025FB18AC3969BC4A79
:104FF0000E9B009101926421BA4A029420461FF050
:1050000025FD2046FDF7E8FEB74B0093B74AB84BA5
:10501000642120461FF01AFD2046FDF7DDFE012326
:1050200000932046A423B34A64211FF00FFD2046BD
:10503000FDF7D2FEFEF7D6BF23180D210A22661C0B
:10504000002521545A709D7030461FF0B9FD01466D
:10505000304612F025FBA84B83F83954FEF7C2BF47
:105060000422A64920461FF049FE002849D1237991
:10507000202B01D03D2B2ED1631D0EAD18462946A5
:105080000A222B6021F050F92E683378202B074636
:1050900002D02C2B40F0C78001360023009332460B
:1050A000394601232E60944804F07AFD00943B4673
:1050B00018A8934A64211FF0C9FC18A8FDF78CFEBC
:1050C000FEF790BF03228F4930461FF0E7FD68B915
:1050D0008D4B9D70C6E6234618A88C4A64211FF0AC
:1050E000B5FC18A8FDF778FEFEF77CBF04228849BE
:1050F00030461FF0D3FD002840F0A180824BDD70C8
:10510000B0E60522834920461FF0F8FD002866D04E
:105110000322814920461FF0F1FD00284FD00622CE
:105120007E4920461FF0EAFD002842D003227C4938
:1051300020461FF0E3FD8046B8B93D21201D1FF039
:10514000D3FC189060B118A901300A2221F0ECF8C4
:10515000E378632B00F08380752B79D0612B50D0DE
:105160007048FDF739FEFEF73DBF03226E49204629
:105170001FF0C4FD002840F0938004226B492046B4
:105180001FF0BCFD002800F08480204604226849FE
:105190001FF0B4FD002840F09E80664B1B78002B6A
:1051A0006ED06548FDF718FE6448FDF715FEFEF762
:1051B00019BFA11D624807F045FDFEF713BF033478
:1051C000204618A90A22189421F0AEF8189B9C4298
:1051D00024D021465A4807F099FCFEF703BF053456
:1051E00018A90A222046189421F09EF8C0B2003077
:1051F00018BF012007F014FB5248FDF7EDFDFEF744
:10520000F1BE0028504B14BF012200221A703EF458
:10521000E9AE4E4B83F80080FEF7E4BE484807F045
:1052200031FCFEF7DFBE0346009418A8484A64210B
:105230001FF00CFC18A8FDF7CFFDFEF7D3BE04222B
:10524000444930461FF02AFD80B92F4B5D7109E6B5
:105250000030414B18BF01201870FEF7C3BEB0FAF2
:1052600080F0344B40091870FEF7BCBE04223B4965
:1052700030461FF013FD002878D1234B1D71F1E556
:1052800008F0D8FB00288FD03548FDF7A5FDFEF7C4
:10529000A9BE08F097FB3348FDF79EFDFEF7A2BEBE
:1052A0000622314920461FF029FD8046002868D19A
:1052B000201D3D211FF018FC002860D04146013020
:1052C0000A2221F031F8003018BF0120002370704D
:1052D0003B70FEF787BE0420FEF788FAFEF782BE19
:1052E000E89BFF1F64DD0200EB18002090DD020048
:1052F000BCA3FF1FB4DD02001C9EFF1FF0DD0200F7
:10530000F8DD0200BCDC020024A3FF1F50DE020017
:10531000C0DC02006CDE020080DE020084DE0200DF
:105320008CDE020090DE0200E0DC0200E8DE02001B
:1053300040DF0200141B002048DF0200A8DF02004B
:105340006441002074DE02000C8AFF1F241E00202E
:1053500020DE0200C8DC0200008AFF1FD0DC020051
:105360008CDF0200F0DE0200F0DF0200042272494E
:1053700030461FF093FC30BB704B9D7172E50120ED
:10538000A1E703226E4920461FF0B8FC002844D054
:1053900003226C4920461FF0B1FCF0B120461FF0FB
:1053A0000FFC012803467EF61DAE674A0194642176
:1053B000009518A81FF04AFB18A8FDF70DFD15F081
:1053C0004DFDFEF70FBE0322604930461FF066FC1C
:1053D000002850D1594BDD7144E50334204618A90B
:1053E0000A220E94189420F09FFF189C0E9B0A220C
:1053F00005460EA920461C1B18BF012420F094FF6F
:105400000E9A189B9A423FD0002C3DD004283BD8DE
:105410004F4B23F81050FEF7E5BD0334204618A982
:105420000A220E94189420F07FFF189C0E9B0EA960
:105430001D1B4FF00A020746204618BF012520F029
:1054400073FF0E9B189C0A22064618A918469C4218
:105450000CBF002405F0010420F066FF0E9A189B93
:105460009A4214D09CB1BFB1C1B2F2B23848FBF736
:105470003FF8FEF7B7BD0422364930461FF00EFC58
:1054800080B92E4B1D72EDE43348FDF7A5FC304882
:10549000FBF766F9FEF7A6BDC1B22D48FBF74CF845
:1054A000FEF7A0BD02222D4930461FF0F7FB10B9D0
:1054B000224B5D72D6E40422294930461FF0EEFBF0
:1054C00010B91E4B9D72CDE40422264930461FF0D0
:1054D000E5FB10B9194BDD72C4E4042222493046C1
:1054E0001FF0DCFB10B9154B1D73BBE403221F49F1
:1054F00030461FF0D3FB10B9104B5D73B2E40222AB
:105500001B4930461FF0CAFB10B90C4B9D73A9E430
:105510000522184930461FF0C1FB10B9074B5D76D4
:10552000A0E43046052214491FF0B8FB00287FF4A0
:1055300099AC024B9D7695E4D8DC020024A3FF1FB2
:10554000F8DF0200FCDF02003CE00200E0DC0200C9
:105550008C410020E4DC020000E00200ECDC0200F0
:10556000F0DC0200E4E80200F8DC020000DD0200EA
:1055700004DD020008DD020010DD020030B51F2846
:1055800091B005463C4C09D96369E218C62B1076E8
:1055900013DC0133E21800216361117694F90B30BA
:1055A000354A012B14D00A2D22D00D2D20D063694D
:1055B000314CC62B13DC11B030BD00236361237660
:1055C00094F90B300122012B84F8E0202A4AEAD119
:1055D0001378002BE7D1284615F024FDE3E7234498
:1055E000002526481D76FDF7F7FB656111B030BD3B
:1055F00094F8E000204D68BB6B69002B22DD2B4442
:10560000052218761E4905F118001FF077FB30B10E
:1056100006221C4905F118001FF070FB28BB1A4B2D
:1056200058681EF0FBF819491EF004FA1DF0A4FC9E
:10563000174ACDE9000103A832211FF007FA03A899
:10564000FDF7CAFB94F90B30012B0AD000236361EC
:1056500011B030BD00230F4885F8E030FDF7BCFBEA
:10566000F4E70D48FDF7B8FBF0E705F118004FF03F
:10567000FF31FEF7A1FCE5E7E49BFF1FB0E002006D
:1056800080E0020088E00200F4410020001BB74CDB
:1056900090E0020064E00200A8E0020030B51F289C
:1056A00091B00546394C06D9B4F9E230E218622BC4
:1056B00082F8E4000FDD94F90B30344A012B17D047
:1056C0000A2DB4F9E23025D00D2D23D0622B2F4CBA
:1056D00015DC11B030BD01331BB2E218A4F8E23082
:1056E00094F90B300021012B82F8E410274AE7D10E
:1056F0001378002BE4D1284615F094FCE0E723440E
:105700000025234883F8E450FDF766FBA4F8E25037
:1057100011B030BD002B1D4D24DD2B44002083F83B
:10572000E40005221B4905F1E4001FF0E7FA30B15F
:105730000622194905F1E4001FF0E0FAD8B9174B29
:1057400058681EF06BF816491EF074F91DF014FC31
:10575000144ACDE9000103A832211FF077F903A80C
:10576000FDF73AFB94F90B30012B0AD00023A4F883
:10577000E23011B030BD05F1E4000521FEF71CFC5C
:10578000F0E70948FDF728FBF0E700BFE49BFF1FA7
:10579000B0E0020080E0020088E00200F441002056
:1057A000001BB74C90E00200A8E002002DE9F04396
:1057B0009FB015F0F1FA142817DC0028064640F0D7
:1057C0000681864E337803BB854B5B78EBB1854B06
:1057D000D6F848111A68521AB2F57A6F15D91B68B3
:1057E000C6F84831012333700FE01426002415F069
:1057F00097FA051E04F10104A5F10A0304DB752BD9
:1058000040F2C580B442F2DB744E7748734C03F02B
:10581000B9FD337B002B40F0B48011F0B1FF0A28B2
:10582000A8BF0A20002805466F4F6ADD0024B8464D
:1058300052E0C1B26C4803F00FFE002849D0337B20
:10584000002B43D1D8F8FC93B9F1000F33D00522D7
:10585000664948461FF052FA28B106226449484674
:105860001FF04CFA38BB97F900345E4A6149126860
:10587000486803F5827347F823201DF0CFFF5E4987
:105880001EF0D8F81DF078FB5C4ACDE900014621F6
:1058900005A81FF0DBF805A81FF092F94FF0000EE5
:1058A00097F90014CDF800E0034605AA4E4804F02D
:1058B00077F9D7F8FC9399F80030202B06D92B2BD9
:1058C00076D097F900144846FEF776FB464804F078
:1058D0005FF90134A54214D011F05EFF002810DBFF
:1058E000431E7E2BF5D897F8B034002BA1D0337827
:1058F000C1B2002B9ED10846039115F093FB03998A
:1059000098E7DFF8D8800A2505E0C4B22046FFF703
:10591000C5FE013D14D00FF02DF8002800F1FF3333
:105920000EDB7E2BF5D896F84C31002BEDD098F895
:105930000030C4B2002BE9D1204615F073FBE5E737
:1059400097F83A34284C013B012B02D91FB0BDE82F
:10595000F083244AD4F8F41313685B1AB3F57A7F02
:10596000F4D91368264A0094642105A81FF06EF844
:1059700005A8FDF731FA042384F83A341FB0BDE8D6
:10598000F08301211F480DF05FFF207345E7134EA0
:1059900033781BB10A2D1DD00D2D1BD0114B1B6868
:1059A000C6F84831E8B200233370FFF7E7FD2CE773
:1059B00097F900340093144A4B46462105A81FF07E
:1059C00045F805A8FDF708FAD7F8FC9379E73FF703
:1059D0000DAF19E70D48FDF7FFF9DFE7E49BFF1F67
:1059E0000488FF1F7C3F00201C9EFF1F80E00200F8
:1059F00088E00200F4410020001BB74C90E0020058
:105A000004E1020040400020E0E00200CCE002009F
:105A10002DE9F04F83B00C4683461FF0D1F8214B9F
:105A20001B788246EBB994B31F4F0028D7F800804B
:105A300017DD5E46054640F2DC5915F0FFFA041EFC
:105A4000304609DDAC42A8BF2C462D1B214615F07F
:105A500021FA002D264404DD3B68C8EB03034B45C7
:105A6000EBD9124B93F90010052915D0CBB2042BBA
:105A700003D9012003B0BDE8F08F00200090534609
:105A80005A460B4804F08CF803B0BDE8F08F01468D
:105A9000584615F0FFF9E4E7584651460EF0ECFE83
:105AA0000120E7E7E49BFF1F7C3F00200488FF1FE5
:105AB0001C9EFF1F38B50378232B03D0BDE8384068
:105AC000FFF7A6BF044CFF2394F900502370FFF7A3
:105AD0009FFF257038BD00BF0488FF1F2DE9F04FE0
:105AE000384D394E394F9DB000241AE003A81FF0FD
:105AF00067F83A7880461AB9014603A815F0CAF942
:105B000096F90010052952D0CBB2042B06D80022FA
:105B10000092434603AA2E4804F042F801347F2C39
:105B200042D0E1B2274817F07FFA0021254816F04D
:105B300049FD4FF47A736A7B296900932148012358
:105B400017F08CFB234601900094224A642103A89D
:105B50001EF07CFF9DF80C30232BC7D1FF2303A838
:105B600096F9009033701FF02BF897F80080DFF85B
:105B700058B08246B8F1000F11D1014603A815F0C4
:105B800089F99BF90010052916D0CBB2042B06D851
:105B9000CDF80080534603AA0D4804F001F8013403
:105BA0007F2C86F80090BCD11DB0BDE8F08F414637
:105BB00003A80EF061FEB1E7514603A80EF05CFEAB
:105BC000EDE700BF144500200488FF1FE49BFF1F82
:105BD0001C9EFF1F34E1020008B5054BC822597B0B
:105BE000186917F0A9FD003018BF012008BD00BFDB
:105BF000144500202DE9F041664C4FF4FA72617BA8
:105C0000206917F099FD002877D02069D0F8385125
:105C1000D0F83431ED1A0D2D40F3B38017F0CEFDDE
:105C20004FF0000760F30F2720695B4E17F0C6FDA9
:105C300060F307072069378017F0C0FD4FF00007B9
:105C400060F30F27206917F0B9FD60F3070720699B
:105C5000778017F0B3FD4FF0000760F30F2720693E
:105C600017F0ACFD60F307072069B78017F0A6FDB9
:105C70004FF0000760F30F27206917F09FFD60F3D6
:105C800007072069F78017F099FD4FF0000760F3D0
:105C90000F27206917F092FD60F30707206937810D
:105CA00017F08CFD4FF0000760F30F27206917F005
:105CB00085FD60F307077F422069778117F07EFD3D
:105CC0004FF0000760F30F272069334C17F076FD83
:105CD000B17B60F307077F42B781A1B12189628957
:105CE000A069A389276966691B1AC91B921B2181B8
:105CF0006281A3812846BDE8F081274E0546B17B2D
:105D0000254C0029EAD1254B25481E680268964299
:105D100031D31E6802F57A72B24234D326696069C3
:105D20001F68B4F90880A369B4F90AC0B4F90CE09B
:105D3000464484447344BA422661C4F814C0A36143
:105D40001CD1184F184887FB06E2F617C6EBA216BF
:105D500087FB0C2E87FB03274FEAEC72DB17C3EBA4
:105D6000A713C2EBAE12A36126616261FFF7A2FE28
:105D70000123A37302E021616161A1612846BDE8AE
:105D8000F081054EBBE71B680A3303602846BDE877
:105D9000F08100BF14450020409DFF1F7C3F002084
:105DA0000C88FF1FD34D62105CE1020038B5084D2E
:105DB000084C29692046FAF7A1FD69692046FAF7DF
:105DC0009DFDA9692046BDE83840FAF797BD00BFA0
:105DD000409DFF1FAC9BFF1F38B50E4C237BA3B922
:105DE0000D4BB3F90030002B0FDD2046FAF7DEFD36
:105DF0000A4D28612046FAF7D9FD68612046FAF776
:105E0000D5FD0123A861AB7338BD23690C33236131
:105E100038BD00BFAC9BFF1F0C420020409DFF1F00
:105E200000B50B490B4AB1F91C30B1F92000B1F9AA
:105E30001E10C3B00190009103A8FA211EF006FEC7
:105E400003A80021FFF736FE43B05DF804FB00BF56
:105E5000409DFF1F74E1020070B50D4C82B00E46EC
:105E600001462046154617F0DFF8F1B2204616F03D
:105E7000A9FBE9B2204616F0A5FB00230093627B44
:105E800021692046012317F0E9F902B070BD00BF77
:105E90001445002070B5154C154E82B00546317979
:105EA000204617F0C1F8E9B2204641F2883516F0D5
:105EB00089FB627B216900950023204617F0CEF90B
:105EC00001233279617B20690195009317F0C4FBAF
:105ED0002069D0F83831D0F834219B1A002BF8DD36
:105EE00017F06CFC00B202B070BD00BF144500207A
:105EF0000C88FF1F70B50E4B0E4C82B006460D4647
:105F00002046197917F090F8F1B2204616F05AFBA6
:105F1000E9B2204616F056FB41F288330093627BCB
:105F200021692046012317F099F902B070BD00BF26
:105F30000C88FF1F1445002030B5224C83B0682127
:105F4000204617F071F83B21204616F03BFB4FF43A
:105F50007A730093627B21692046002317F07EF953
:105F6000054658B1431E0021042B26D8DFE803F074
:105F7000191D210315001448FFF79CFD0122002381
:105F80008DE80C002069617B0E23682217F0C2F9AE
:105F9000B5FA85F0400903B030BD0C48FFF78AFD23
:105FA000ECE70B48FFF786FDE8E70A48FFF782FDBC
:105FB000E4E70948FFF77EFDE0E70848FFF77AFDD0
:105FC000DCE700BF14450020E4E1020008E2020023
:105FD00084E10200A4E10200C4E1020024E2020024
:105FE000F0B5104C054683B00E46204629461746AC
:105FF00017F01AF8314620464FF47A7616F0E2FA96
:10600000627B216900962046002317F027F9617B07
:106010002069019601243B462A46009417F01CFB98
:1060200003B0F0BD14450020F0B53A4C83B00C210C
:10603000204616F0F9FF4FF47A750221204616F03B
:10604000C1FA627B216900950023204617F006F90A
:106050000123617B2069019500930C2217F0FCFA63
:10606000002805DD206917F0A9FB0128064601D0AC
:1060700003B0F0BD0C21204616F0D6FF00212046CB
:1060800016F0A0FA627B216900950023204617F0E4
:10609000E5F8617B2069019500960A230C2217F030
:1060A000DBFA022815DC0C211A4816F0BDFF0A2184
:1060B000184816F087FA0121164816F083FA0023D3
:1060C0000093627B21691348012317F0C7F803B0DE
:1060D000F0BD2069104F17F071FB206917F06EFBBF
:1060E000206917F06BFB0025206917F067FB064657
:1060F000206917F063FB002805DB002EA4BF06EB28
:10610000002627F815600135032DEDD1206917F021
:1061100055FBC8E7144500205C9DFF1F70B56E4C11
:106120006E4E0C2382B019462046736016F07CFF39
:1061300020460A2141F2883516F044FA2046002113
:1061400016F040FA627B216900950123204617F082
:1061500085F83179204616F067FF20460A2116F0AF
:1061600031FA20460F2116F02DFA627B2169009545
:106170000123204617F072F83179204616F054FFBB
:1061800020460A2116F01EFA2046002116F01AFABF
:10619000627B216900952046012317F05FF8682390
:1061A00019462046736016F03FFF2046272116F05F
:1061B00009FA2046002116F005FA627B2169009554
:1061C0000123204617F04AF83179204616F02CFFBB
:1061D00020462A2116F0F6F92046002116F0F2F9A1
:1061E000627B216900950123204617F037F8317949
:1061F000204616F019FF20462D2116F0E3F920461F
:10620000002116F0DFF9627B216900950123204609
:1062100017F024F83179204616F006FF2046302189
:1062200016F0D0F92046002116F0CCF9627B2169E6
:1062300000950123204617F011F83179204616F019
:10624000F3FE2046342116F0BDF92046132116F046
:10625000B9F9627B216900950123204616F0FEFF03
:106260003179204616F0E0FE20466A2116F0AAF9A0
:106270002046002116F0A6F9627B216900950123D2
:10628000204616F0EBFF3179204616F0CDFE204671
:10629000372116F097F92046122116F093F9627B08
:1062A000216900950123204616F0D8FF3179204658
:1062B00016F0BAFE2046382116F084F92046012156
:1062C00016F080F9627B216900952046012316F0C3
:1062D000C5FF02B070BD00BF144500200C88FF1F31
:1062E0002DE9F0410F4C104D82B02979204616F06F
:1062F0009BFE6B21204616F065F941F2883600219D
:10630000204616F05FF9627B216900962046012342
:1063100016F0A4FF804648B1B8FA88F0400902B0F0
:10632000BDE8F081144500200C88FF1F642010F0A8
:10633000D1FB65272979A94816F076FE6B21A7487D
:1063400016F040F9627B216900960023A34816F0FD
:1063500085FF01232A79617B20690196009317F05C
:106360007BF92069D0F83831D0F834219B1A002B02
:10637000F8DD17F023FA00B2092817DD29799748CC
:1063800016F052FE6B21954816F01CF9092193482E
:1063900016F018F9627B2169009601238F4816F0E8
:1063A0005DFF642010F096FB013FC3D129798B4833
:1063B00016F03AFE1B21894841F2883616F002F9A0
:1063C0001021864816F0FEF8627B216900960123B1
:1063D000824816F043FF2979804816F025FE1C21DB
:1063E0007E4816F0EFF808217C4816F0EBF80C27F1
:1063F000627B216900960123784816F02FFF394609
:1064000076486F6016F010FE0A21744816F0DAF82C
:106410000021724816F0D6F8627B216900960123AC
:106420006E4816F01BFF29796C4816F0FDFD0A2115
:106430006A4816F0C7F80F21684816F0C3F8627B67
:10644000216900960123654816F008FF2979634801
:1064500016F0EAFD0A21614816F0B4F800215F4801
:1064600016F0B0F8627B2169009601235B4816F0B4
:10647000F5FE6823194659486B6016F0D5FD2721B3
:10648000564816F09FF80021544816F09BF8627B9E
:10649000216900960123514816F0E0FE29794F4802
:1064A00016F0C2FD2A214D4816F08CF800214B4809
:1064B00016F088F8627B216900960123474816F0A0
:1064C000CDFE2979454816F0AFFD2D21434816F041
:1064D00079F80021414816F075F8627B2169009631
:1064E00001233E4816F0BAFE29793C4816F09CFD7F
:1064F00030213A4816F066F80021384816F062F864
:10650000627B216900960123344816F0A7FE2979A1
:10651000324816F089FD3421304816F053F8132123
:106520002E4816F04FF8627B2169009601232B4814
:1065300016F094FE2979294816F076FD6A2127483D
:1065400016F040F80021254816F03CF8627B2169DE
:1065500000960123214816F081FE29791F4816F084
:1065600063FD37211D4816F02DF812211B4816F047
:1065700029F8627B216900960123184816F06EFE07
:106580002979164816F050FD3821144816F01AF8EB
:106590000121124816F016F8627B2169009601234A
:1065A0000E4816F05BFE39460C4816F03DFD0A21F8
:1065B0000A4816F007F80121084816F003F80023EE
:1065C0000093627B21690548012316F047FEB8FA63
:1065D00088F0400902B0BDE8F08100BF14450020FA
:1065E0002DE9F0411C4C9DF8186094F800E00D4630
:1065F00090461F46BEF1000F1BD089B9B0F97C3020
:10660000002B0DDD154B164A1968D2F808E05A68C0
:1066100090F85130C4F804E04166826680F87E301C
:1066200001212570C4F80C80276126722175BDE810
:10663000F0810029F4D090F87E305BB91A46012130
:1066400080F8502080F8513080F87E10084606F01F
:10665000DDFDE5E7227AF2E7649DFF1F049EFF1F40
:10666000C89DFF1FF0B5A5B051BB234E836F3268A4
:1066700093422CD0214DB0F97C20697D95F920E022
:10668000044606EB83000027806802900491009284
:10669000CDF804E01A4A0397782106A81EF0D6F92F
:1066A000394606A8FFF706FAA06FB4F97C10AA696C
:1066B0006B7DEA6186E8030084F8443025B0F0BDC4
:1066C0000E4D836F697DB0F97C200B4ED6E7B0F993
:1066D0007C207168094D8A4201D0697DCEE7A969A5
:1066E0000029EBD0EC69A142697DC7D190F8444004
:1066F0008C42C3D1E2E700BF1C88FF1F649DFF1FCF
:1067000048E202002DE9F041B0F97C5092B0044615
:1067100065B1012D06D12C4E4FF07C5130681DF033
:1067200091FA10BB002012B0BDE8F081274B284D34
:106730001B7813B92B78002BF4D0A36F2249254A7C
:1067400000200860581E01210090A4F87C1000244D
:1067500003A83C212C701EF079F9214603A8FFF70D
:10676000A9F9002012B0BDE8F081A76F1A4A0023F2
:10677000336000267B1E00933C213B46A4F87C60DE
:1067800003A81EF063F9A16F144832460139FAF7E5
:1067900045FBA36F124A009080463C2103A81EF0DF
:1067A00055F9314603A8FFF785F9B8F1000FB9D0C4
:1067B000B7420C4A0C49064B0E70D4BF0027012784
:1067C00082F821701D70ADE7E89BFF1FEC9BFF1F57
:1067D000F19BFF1F64E2020090E20200AC9BFF1FEE
:1067E000C0E20200649DFF1FED9BFF1FF0B5B0F9F2
:1067F0007C2095B0002304468DF819308DF81A30AE
:106800008DF81B30082A00F21581DFE812F019001C
:106810007300D0001301130113017E00AC000900C6
:10682000AF4BB04A1B78002151623BB9AE4BC06CF4
:1068300019681DF0E9F9002840F0828115B0F0BD1B
:10684000A74B1B781BB9A94B1B78002BF6D0A84B84
:10685000A8491868A44AA84B84F861000025C4F828
:106860009C10002000210627C4E9240100262946A7
:1068700084F8605084F87F50A564A4F87C709F4829
:1068800016601D70FFF716F929469D48FFF712F9AB
:106890000DF11B030DF119020DF11A0199480DF0CC
:1068A0000FF89DF81930002B40F0FF809DF81A304A
:1068B0003BB195489549964A0023012404700B701A
:1068C00013709DF81B302BB100219248FFF7F2F8AE
:1068D0009DF81B30904A3220937604F031FF50220D
:1068E00000218E481DF054FE0021084606F08EFC63
:1068F00015B0F0BD83480CF077FB002840F0A7806E
:106900000923A4F87C3015B0F0BD774B18681CF053
:1069100033FB6FA3D3E9002306460F461CF010FE9D
:1069200020B16F4B1B78002B00F08D80304639462C
:106930004FF033327A4B1CF003FE00283FF47EAF59
:10694000684BDB6A0122002BA4F87C207FF776AF2E
:10695000A36707A8734A32211EF078F807A8002120
:10696000FFF7A8F86AE75E4B1D78002D40F0A18084
:106970005D4B18681CF000FB4FF03332684B1CF085
:10698000DFFD00283FF45AAF564BDB6A0122002B93
:10699000A4F87C207FF752AFA36707A8624A322190
:1069A0001EF054F8294607A8FFF784F846E7554833
:1069B0000CF046F94A4B1E7828B94F4B1B7813B997
:1069C000002E3FF43BAF206B464D1CF0D5FACDE9CD
:1069D0000401686A02961CF0CFFA544ACDE900011E
:1069E00007A832211EF032F807A80021FFF762F84D
:1069F0004F4A95F82910127E95F92830019100929E
:106A000007A84C4A32211EF021F807A80021FFF701
:106A100051F8354A08231068A4F87C301CF0ACFA11
:106A20002DA3D3E900231CF049F91CF0F1FDE0642B
:106A300015B0F0BD304B4048012200211A70FFF71D
:106A400039F815B0F0BD0723A4F87C30F6E6022330
:106A5000A4F87C302068FBF7E3F86068FBF7E0F807
:106A6000A068FBF7DDF8E068FBF7DAF82069FBF7D0
:106A7000D7F86069FBF7D4F8A069FBF7D1F8E069B3
:106A8000FBF7CEF8206AFBF7CBF8606AFBF7C8F893
:106A90000023E36623676366A366A362E36208F0EC
:106AA00055F9012384F87E30C8E6012005F0B8FED0
:106AB000FCE60C4A2148D36A06210133A4F87C1075
:106AC0000021D362FEF7F6FFB8E600BFAFF3008007
:106AD0009A9999999999B93F9A9999999999A93FA8
:106AE000EC9BFF1F649DFF1FE89BFF1FF19BFF1F97
:106AF000C089FF1FDB0F4940ED9BFF1FE4E202004E
:106B0000F0E2020040400020108AFF1F541E0020C7
:106B1000551E002014E3020024A3FF1FEC180020E0
:106B20003333F33F70E30200A8E3020024E30200E2
:106B30001C88FF1F4CE30200C4E302008CE3020048
:106B40000923A4F87C3002480CF01CFB76E600BF59
:106B50004040002010B50446124894F87810F9F728
:106B6000EBFE2068FBF71EFE6068FBF71BFEA068CB
:106B7000FBF718FEE068FBF715FE2069FBF712FE35
:106B80006069FBF70FFEA069FBF70CFEE069FBF7FD
:106B900009FE206AFBF706FE606ABDE81040FBF7BD
:106BA00001BE00BFAC9BFF1F38B5154D04462846FB
:106BB000F9F70EFF2B7BA0670BB10023A3672068BA
:106BC000FBF78EFE6068FBF78BFEA068FBF788FE84
:106BD000E068FBF785FE2069FBF782FE6069FBF742
:106BE0007FFEA069FBF77CFEE069FBF779FE206A77
:106BF000FBF776FE606ABDE83840FBF771BE00BF68
:106C0000AC9BFF1F2DE9F04F044685B0374DDFF8F0
:106C100000B1C068364FDFF8FCA004F130064FF039
:106C2000000833465A4605F13001CDF80080FBF7E5
:106C300029FB04F128092F4B206900935A464B4643
:106C400007F11C01FAF71CFA20372B4BA069DFF87B
:106C5000C8B0CDF80490029705F134010093274A9B
:106C6000274B284FFAF7F6FA4B4604F1340105F1A9
:106C70003809A06852463C35FAF790F960690096E9
:106C80004B4629465A46FAF7B9FB606A00964B46CE
:106C900029465A4604F13809FAF7B0FB31464B460B
:106CA000206A194E3A46FAF77DFB2546174BE069F4
:106CB000009349460AF1040204F13C03FBF7E2FAAF
:106CC00055F8700BCDF800803A4604F16C0133465C
:106CD000FBF7D8FA6068CDF800802946331D3A1DCD
:106CE000FBF7D0FA05B0BDE8F08F00BF649DFF1F31
:106CF0001C88FF1F9A99993EB41E0020601E002038
:106D00005C1E0020049EFF1FF81A0020F49DFF1F48
:106D100060190020D09DFF1FD89DFF1FF8B50446C5
:106D20000023002500210020C4F88030C4F8A030E2
:106D3000C4F8A430C4E91601C4E92201C4E924015D
:106D400084F8505084F8515084F87F504FF4B87054
:106D500015F02CFC344E07463146FAF70DFF27603C
:106D60004FF4B87015F022FC31460746FAF704FFDD
:106D700067604FF4BC7015F019FC2C490646FAF711
:106D800003F9A6604FF4BC7015F010FC28490646C4
:106D9000FAF774FBE6604FF4C27015F007FC254962
:106DA0000646FAF75DF926614FF4C27015F0FEFB56
:106DB00021490646FAF71CFB66614FF4C67015F0D0
:106DC000F5FB1E490646FAF737FAA6614FF4B8708C
:106DD00015F0ECFB1A490646FAF7CEFEE6614FF4D1
:106DE000BE7015F0E3FB17490646FAF7CFFA2662A4
:106DF0004FF4C27015F0DAFB13490646FAF7F8FAB9
:106E00004FF6FF732046666284F87E50A567A4F8AB
:106E10007C5084F8405084F84150A4F84230FFF789
:106E2000F1FEA5642046F8BDD0E30200D8E30200DD
:106E3000E0E30200E8E30200F0E30200F8E302000E
:106E400000E4020008E4020010E4020038B5044641
:106E500000680D46FAF712FF40BB2946A068FAF712
:106E60000DFF48BB2946E068FAF708FF20BB29461A
:106E70002069FAF703FFF8B929466069FAF7FEFEC0
:106E8000D0B92946A069FAF7F9FEA8B92946E06900
:106E9000FAF7F4FE80B92946206AFAF7EFFE58B9EE
:106EA0002946606ABDE83840FAF7E8BE29466068BE
:106EB000FAF7E4FE0028D0D0012038BD30B50446F2
:106EC000C5B0C0690D46FBF747FF98B1E069694658
:106ED0004FF487726D46FBF7D7F8C0F587723A49D1
:106EE00028441DF05BFF28460121FEF7E3FD012049
:106EF00045B030BD2946206AFBF72EFF38B1206A25
:106F000069464FF487726D46FBF7BEF8E5E7294600
:106F1000606AFBF721FF60B92946A069FBF71CFFF7
:106F200078B1A06969464FF487726D46FBF7ACF8FB
:106F3000D3E7606A69464FF487726D46FBF7A4F8A1
:106F4000CBE729466069FBF707FF60B92946A068CF
:106F5000FBF702FF78B1A06869464FF487726D466F
:106F6000FBF792F8B9E7606969464FF487726D469E
:106F7000FBF78AF8B1E729462068FBF7EDFE38B148
:106F8000206869464FF487726D46FBF77DF8A4E7E9
:106F900029462069FBF7E0FE38B1206969464FF4C5
:106FA00087726D46FBF770F897E72946E068FBF7B4
:106FB000D3FE00289CD0E06869464FF487726D4686
:106FC000FBF762F889E700BFE8FD020010B5044650
:106FD0000068FAF725FE6068FAF722FEA068FAF763
:106FE0001FFEE068FAF71CFE2069FAF719FE6069D7
:106FF000FAF716FEA069FAF713FEE069FAF710FE39
:10700000206AFAF70DFE606AFAF70AFE0023E366CB
:1070100023676366A366A362E362BDE8104007F0DE
:1070200095BE00BF00238362C36270472DE9F04F15
:10703000554D2B78A9B00446002B00F0918195F8AE
:107040004010002900F0D88194F87E30002B00F029
:10705000388194F87F306E6866634B4A002B00F0ED
:107060009B8094F8627077B9484B516A18681CF09D
:1070700023FB20F000484046D4F8A4101CF0E2FDA9
:1070800008B1C4F8A480D4E922231046194638A3D5
:10709000D3E90023CDE908011BF0C2FFD4E9242382
:1070A0001BF00CFE80468946C4E9248932A3D3E94B
:1070B00000231CF045FA002800F058824FF0010A26
:1070C000404649462CA3D3E9002384F860A01BF076
:1070D000F3FD29A3D3E9002380468946C4E9248926
:1070E000CDE9062394F861001CF098FB1BF044FFE7
:1070F00002460B46DDE906011CF0BCF842464B4651
:107100001CF000FA002800F0468201210AF1010A71
:1071100084F8841084F860A0DDE90823D4E916011E
:107120001BF07EFFC4E92201002F40F034824FF0B3
:107130007C51D4F8A4001CF085FD002800F02382C7
:10714000134A144BC4F8A020C4F8A430D4F880002B
:107150001BF012FF0AA3D3E900231BF061FF1CF010
:1071600057FA8246C4F8800017E200BFAFF30080F0
:10717000FCA9F1D24D62503F182D4454FB21194017
:10718000AE47E17A14AEEF3F649DFF1F049EFF1FE0
:107190000000A0409A99993E1178A364002940F01C
:1071A0000481536A236395F92830974E23B1974B96
:1071B000197E002900F0808295F82930924A002B30
:1071C00000F01B82137A002B00F03D832B782BB943
:1071D000606A94F841304370FAF724F9206A4378E2
:1071E0000BB9E3695B784370FAF7ECF80021E069CA
:1071F000FBF750F82B78002B40F0048295F84330D1
:10720000814E002B40F01A8196F84230002B40F05E
:10721000B98296F92830002B04DD7C4B1B7E002BB5
:1072200040F01A83A06894F8413043700021F9F7C8
:10723000C5FED4F82880D4F82C9095F808B008F151
:10724000004609F10047BBF1000F0CD1276B414606
:1072500038461CF031FA4946064638461CF02CFAEE
:1072600000230746E36394F840302BB195F8009073
:10727000B9F1000F00F0268100236666A766B846C4
:10728000B14684F84130E66B494630461CF016FAA8
:107290004146E06630461CF011FA236820671A78F0
:1072A000002A40F0A28160680378002B40F09981A9
:1072B0002368574A5B78002B00F0958013680133F0
:1072C0001360B4F97C30002B42DD524F3A78002A2B
:1072D0003ED00026504ADFF834E184F87E60002377
:1072E00031463046CEF81C30136053606B622B631E
:1072F0006B63EB6385F8436085F8296085F8286047
:1073000005F084FF02F04EFE444B454885F82060AE
:1073100031461E703E70FEF7CDFB424B4248A4F84A
:107320007C6001221A70EE6285F8416005F084FBF2
:10733000304605F075FA95F821303C4A324D16700A
:10734000002B52D1002384F87F3029B0BDE8F08FA4
:1073500095F84120002AF8D0002BF6D12D4FB8E740
:10736000836F002B04DD95F82130002B00F0428163
:107370002046FFF73BFA2E78234B002E7FF464AEB5
:1073800093F84030002B3FF45FAE31462848FEF7BB
:1073900091FB94F87E30002B40F084810121002283
:1073A00085F8411085F8402050E695F808B0EB6864
:1073B0002363BBF1000F7FF411AF2E694FF07C51B6
:1073C00030461CF083FA8046C4F8288006F100405D
:1073D0004FF07C511CF07AFA08F10046814600F12A
:1073E0000047E0622FE713606BE731461148F9F779
:1073F000C7FB85F82160A5E701230F4885F84030D9
:10740000FEF758FBB7E700BF649DFF1F1C88FF1FF6
:10741000F41A0020ED9BFF1FF81A0020F19BFF1FBC
:10742000F0E40200FC89FF1F64410020108AFF1F66
:107430004CE40200AC9BFF1F18E4020096F84430B5
:10744000002B40F08381696AE86CDFF8F8B24FF0F6
:10745000000A1CF03BFA51461CF0EAFBB64B002830
:1074600000F0A1811E68216F30461CF02FFA1BF03E
:1074700083FDCDE90601DBF848001BF07DFD804669
:10748000304689461BF078FD0022AC4B1BF0C8FD4E
:1074900002460B46404649461BF010FC02460B468E
:1074A000DDE906011BF0E6FE1CF0B2F84FF00047E4
:1074B000804600F10046A062C4F82CA09BF808B0FA
:1074C000D146C0E6606F1BF057FD93A3D3E90023BC
:1074D0001BF0A6FD1CF09CF8616E069030460891EA
:1074E0001CF0EAF8D4F868808346414638461CF020
:1074F000E3F801460B90824658461CF0E7F900215C
:107500001CF0A0FB002800F088802AF000412BF03E
:1075100000401CF0D1F81BF02FFD81A3D3E900231C
:10752000CDE90C011CF00CF88246002840F0B88030
:10753000DDE90C017CA3D3E900231BF0E3FF002865
:107540006BD0D346DDF818900B9948461CF05CFBD5
:10755000002800F06781494640461CF0AFF84FF024
:10756000010A8046A066DDF820906DE094F860A0E6
:1075700050461BF0EFFC6EA3D3E900231BF050FD37
:10758000CDE90601AEE56E49D4F8A0001CF05AFB27
:1075900000287FF4D5ADD4F880A0494640461CF0C1
:1075A00037F81BF0E9FC18F0F7FC80468946504696
:1075B0001BF0E2FC42464B461BF032FD1CF028F863
:1075C000A36C2A78C4F898000133A3645D4B002AA9
:1075D0007FF4EBAE596A2163BFB91CF06FF82063EA
:1075E000E1E50021FAF756FE62E618460021FAF7B7
:1075F00051FE58E6FFF786F8BDE6137A002B7FF4BC
:10760000EDADFBE595F808B0D7E6012F7FF4CBADE3
:1076100031461CF053F86063C5E54FF0010A0123C1
:1076200084F84130594606981CF0EEFA002800F024
:10763000EA80089906981CF041F8814660664FF090
:10764000010BBAF1000F34D1314638461CF034F842
:1076500020F000401BF090FC31A3D3E900231BF085
:1076600051FF00283FF40FAE414648461CF024F875
:1076700020F000401BF080FC29A3D3E900231BF07D
:1076800041FF00283FF4FFADBBF1000F00F0EB809D
:10769000BAF1000F7FF4F7ADC4F86480C146F2E59B
:1076A000CA46BCE731462848FEF704FA94F87E3013
:1076B00074E6636E089345E7E06894F841304370E0
:1076C000FAF7E8FD276BD6F8248007F10047276317
:1076D000384641461CF0B6FA88B996F842303BB1BC
:1076E0000026384631461CF08FFA002840F0D18041
:1076F00008F10048384641461CF086FA08B1C4F843
:1077000030802B7A0F4A002B00F0A48092F82930A9
:10771000002B3FF463AD59E5FCA9F1D24D62503F17
:107720007B14AE47E17A843F7B14AE47E17A84BF95
:10773000182D4454FB2119404088FF1F0000E03FF2
:107740000000E040649DFF1F90E40200B06C1BF05D
:1077500013FCCDE90401F06C1BF00EFCCDE9020135
:10776000706A1BF009FC4C4ACDE9000164210FA8A6
:107770001DF06CF90FA80021FEF79CF9002386F894
:10778000443060E6A06994F841304370F9F77CFD1D
:10779000D4F82880D4F82C9096F808B009F1004766
:1077A00008F100464FE51F68E16E38461CF08EF880
:1077B0001BF0E2FBCDE90601DBF848001BF0DCFB27
:1077C0008046384689461BF0D7FB0022334B1BF01E
:1077D00027FC02460B46404649461BF06FFA02461C
:1077E0000B46DDE906011BF045FD1BF011FF4FF0D4
:1077F0000046814600F10047E062C4F828A09BF8EB
:1078000008B0D0461FE5DDF81890584609F1004150
:107810001CF0FAF978B3494608981BF04DFF8146F1
:1078200060660CE709F100410B981CF0EDF938B3E4
:10783000494640461BF040FF4FF0010A8046A066D3
:10784000DDF8209000E7606994F841304370F9F763
:10785000E9FD56E71378CEE4206994F8413043708F
:10786000F9F724FC94E7BAF1000F3FF415AFC4F820
:107870006890C84607E5666684F84100B146DEE6D2
:10788000A76684F84100DDF82090B8464FF0010A61
:10789000DAE6266335E700BFBCE402000000E03F03
:1078A00000220023C0E924230023054A80F8611048
:1078B000C0F89C2080F8603080F87F308364704787
:1078C000DB0F49402DE9F04F434C444BD4F8008086
:1078D000C0F89C3000250446B1B080F8618080F883
:1078E0006050856408460F4616461BF033FB0022A5
:1078F0003B4B1BF0BFFC1BF08BFE0FF2C40BDBE914
:1079000000ABAF4214BF01222A464FF00003C4F877
:107910008000C4E924AB84F87F20C4F8A03046D0AE
:107920005FFA88F01BF016FB02460B4626A1D1E950
:1079300000011BF09FFC02460B46C4E9222324A150
:10794000D1E900011BF096FC18F066FC254F80463B
:10795000386889461BF0FEFA02460B464046494607
:107960001BF088FC18F0DCFB80468946E06C84F84C
:107970006260C4E916891BF0FFFAD4E922233F684C
:1079800094F861400694CDE90801CDE900230597FC
:10799000154A0496CDE902890AA896211DF056F8E9
:1079A00029460AA8FEF786F831B0BDE8F08F3946BF
:1079B0000E48FEF77FF831B0BDE8F08FAFF30080DE
:1079C000182D4454FB21F93F09944A702F8BB8407D
:1079D000182D4454FB210940C089FF1FDB0F49408B
:1079E00000005940B0A3FF1F08E5020050E5020067
:1079F0000B4B1B68022B0DDDB3F5967F06DC0949A6
:107A00004FF4167292FBF3F30B807047054B022282
:107A10001A807047034B4FF496721A80704700BF6C
:107A2000C089FF1FC09DFF1FF0B56F4B1C7895B03C
:107A3000CCB96E4D2B78002B40F0CB806C4B6D4C4D
:107A40001B78012B0CBF0B2006200DF005FD00302C
:107A500018BF0120638888B1312B00F0B48011D8A1
:107A6000013363800EE0614C2378002BE6D10121C5
:107A700012200DF0FFFC01232370DFE7012B6ED0F5
:107A8000002B6ED15C4B93F820202AB95B4A126818
:107A9000C2F3401283F82420594B1B78002B50D19D
:107AA000584B1B78E3B158490B78002B5CD0574AF0
:107AB000574D148852884FF49673002003FB02F24E
:107AC000087003FB04F353496A602B600B604A6043
:107AD00000204FF00046504B18605E6015B0F0BDBE
:107AE0004B4E2488376871684C48484A494DC4F564
:107AF000967301FB03F107FB03F380FB01EC57884E
:107B0000128880FB030EC917DB17C1EB6C11C3EBA6
:107B10006E13686804FB071104FB02347160346063
:107B2000081A1BF07FFE3E4900F100401BF0CEFE1C
:107B300006462868201A1BF075FE39491BF0C6FE60
:107B4000C9E7FEF757F848B300236360FEF7F4F97E
:107B50000028A5D101463348FDF7ACFFA0E7324A23
:107B60001070013B63808DE7294D2C486A682C68B2
:107B7000264F40F22B1101FB04F401FB02F180FBC4
:107B8000012680FB0423C8173A887988E417C4EBE0
:107B90006313C0EB66101344421894E76268234BEA
:107BA00001321340002B626019DB1F2BCED10092F3
:107BB00002A800231E4A46211CF048FF02A800210B
:107BC000FDF778FFC2E7184A012101331170638085
:107BD00058E7214612200DF04DFC2C702EE7013B9A
:107BE00063F01F030133E0E7591E00200688FF1FE2
:107BF000D08AFF1FC09DFF1F6441002010F00F407E
:107C0000EC410020FC89FF1FFF89FF1F381E002068
:107C1000349DFF1F301E00203C1E0020B5814E1BEE
:107C2000E62A3136D0E50200EC9BFF1F1F000080E2
:107C300098E50200044B00229A60DA601A619A61AA
:107C4000DA611A62704700BFC09DFF1FF0B583B0B4
:107C500002AC0A2244F8040D21461EF065FB324BAB
:107C600000B21880002859D0214601982F4D304E7F
:107C70001EF09CFA2146286001981EF097FA2146D2
:107C8000686001981EF092FA1CF022F821462881C3
:107C900001981EF08BFA2146E86001981EF086FAE2
:107CA0002146286101981EF081FA706228891BF034
:107CB000B9FD69681BF00AFE1BF05EF90B4602462F
:107CC00017A1D1E900011BF0D5FA1BF0A1FC00229D
:107CD000B062214601981EF027FB2146C0F3C00385
:107CE00000F0010EC0F38002C0F34007019886F84F
:107CF0002E3085F814E086F82D2086F82C701EF0C2
:107D000055FA0C491BF096FE1BF0BCFF2146E88299
:107D1000002201981EF008FB074B187003B0F0BD5D
:107D2000182D4454FB2119400C4200204088FF1FAD
:107D3000C09DFF1FB4A1013BD08AFF1F70B51E4B31
:107D40001E4C19881E4D1F4E2046F8F70FFE1E4B85
:107D500020461978F8F7F0FD20462968F8F7CEFD9F
:107D600069682046F8F7CAFD29892046F8F7FEFD24
:107D7000E9682046F8F7C2FD29692046F8F7BEFDFC
:107D80002046716AF8F7BAFD96F82E0096F82D1085
:107D900096F82C202B7D01EB400102EB410103EB17
:107DA00041012046C9B2F8F7C7FDE98A2046BDE87F
:107DB0007040F8F7DBBD00BF0C420020AC9BFF1FFA
:107DC0004088FF1FC09DFF1FD08AFF1FF8B5304CB1
:107DD000237B23B122691C2313442361F8BD204671
:107DE000F8F708FE2B4B00B20028188047DD20462C
:107DF000F8F7EEFD284B294D18702046F8F7D6FD10
:107E000028602046F8F7D2FD68602046F8F7F2FDBA
:107E100028811BF007FD6968214E1BF057FD1BF000
:107E2000ABF802460B4618A1D1E900011BF022FA7B
:107E30001BF0EEFBB0622046F8F7B8FDE860204684
:107E4000F8F7B4FD28612046F8F7B0FD70622046CF
:107E5000F8F7BEFD0346C3F34001C3F3800200F010
:107E60000107C3F3C00320462F7586F82C1086F84F
:107E70002D2086F82E30F8F7BDFDE882F8BD226986
:107E80001A2313442361F8BD182D4454FB211940D3
:107E9000AC9BFF1F0C420020D08AFF1F4088FF1FB1
:107EA000C09DFF1FF0B5264B264CB3F90070264B42
:107EB000E08A1B78254ED3B0109304EB87039B69AF
:107EC00011931BF0AFFC22491BF000FD1BF054F88E
:107ED000257D96F82C2096F82D3005EB420202EB1A
:107EE000830296F82E30CDE90E0102EBC302706AD0
:107EF0000C921BF041F8CDE90A0120691BF03CF817
:107F0000CDE90801E0681BF037F823890493CDE937
:107F1000060160681BF030F8CDE9020120681BF013
:107F20002BF83B46CDE900010A4A13A8FA211CF0C0
:107F30008DFD13A80021FDF7BDFD53B0F0BD00BFBE
:107F40000C4200204088FF1FD08AFF1FC09DFF1FEA
:107F5000B4A1013BF0E502002DE9F84FA44DA54C7A
:107F6000B5F904001BF05EFC00F10046B5F9000015
:107F70001BF058FC314600F1004018F0CBF9616A63
:107F80001BF09AFBD4F814B02063594605461BF049
:107F900093FB1AF0F1FF8AA3D3E9002306460F46AC
:107FA0001BF0CEFA002800F09D8028461AF0E4FF6E
:107FB00085A3D3E900231AF07FFE1BF029FB0546B9
:107FC00020638D4BDFF82CA2B3F902001BF02AFCD2
:107FD0008A4B19681BF07AFC1AF0CEFF78A3D3E91C
:107FE00000231BF01DF80022854B1BF043F91BF00A
:107FF0000FFB2946606306461BF060FB0021074625
:1080000028461BF01FFEB8B358461AF0B5FF70A300
:10801000D3E90023804689461BF074FA60B34046DA
:10802000494669A3D3E900231AF048FE6AA3D3E9BD
:1080300000231AF0F5FF80468946384671491BF047
:1080400045FC1AF099FF02460B46404649461AF095
:1080500035FE80468946DAF838006A491BF036FC5E
:108060001AF08AFF02460B46404649461AF026FEA1
:108070001BF0CEFA82461CE0002128461BF0C4FD0E
:10808000002872D1604958461BF020FC5D498046AB
:1080900038461BF01BFC014640461BF00FFB5949BC
:1080A0008046A06B1BF012FC014640461BF006FB0D
:1080B000824650461AF060FF41A3D3E90023804670
:1080C00089461BF03DFA002847D145A3D3E9002398
:1080D000404649461BF016FAD8B9A763C4F814A065
:1080E000BDE8F88F304639463DA3D3E900231BF0A5
:1080F00009FA00283FF465AF28461AF03DFF32A385
:10810000D3E900231AF0DAFD1BF082FA054620635A
:1081100057E7404649462CA3D3E900231AF0CEFD89
:108120001BF076FA824628461AF026FF26A3D3E9EA
:1081300000231AF0C1FD8046304689461AF01CFF24
:1081400002460B46404649461AF0B8FD1BF060FA5D
:10815000C4F814A0A063BDE8F88F404649461AA3AE
:10816000D3E900231AF0A8FDDAE758461AF004FF15
:108170001DA3D3E90023804689461BF0E1F90028BE
:1081800080D04046494610A3D3E900231AF094FD5D
:1081900011A3D3E900231AF043FF804689463846ED
:1081A00018491BF093FB1AF0E7FE02460B464046C7
:1081B00049461AF083FD80468946A06B11494DE778
:1081C000182D4454FB210940182D4454FB2119401B
:1081D000182D4454FB21F9BF000000E0CFF7EF3F1A
:1081E000182D4454FB2109C0182D4454FB21F93F9C
:1081F000409DFF1FC09DFF1F489DFF1F58E10200CB
:1082000000806640AA01033A7FBE7F3F2DE9F04718
:10821000A74BDFF8C4921B68D9F80000A54ADFF825
:10822000BC821B1A934240F210810123002088F87F
:108230000030A14CA14F94F82D30002B00F0EA80C3
:108240003B78A56A002B40F0EA8000F10040294607
:108250001BF03CFB0646E063954BD9F804001B6815
:10826000944A1B1A934240F2E080012388F80130BF
:10827000002094F82E30DFF84082002B00F0BF8001
:108280007B78002B40F0BF8000F1004029461BF0B6
:108290001DFB8246C8F84000894FD7F80C80314654
:1082A00040461BF013FB3E696064814651463046F0
:1082B0001BF00CFB3F68A06449461BF0FDF93946F2
:1082C0001BF0B8FB7F49804AE06491E80840D2F88F
:1082D000009094F82C101360C9EB03005368C2F8A7
:1082E00004E0C3EB0E0911B14042C9F100091BF0D3
:1082F00099FA29461BF0EAFA41461BF0E7FA804654
:1083000048461BF08FFA29461BF0E0FA31461BF075
:10831000DDFA41460646E069DFF89C911BF0CEF994
:108320003146E061206A1BF0C9F9314620624046BF
:108330001BF0C4F94FF07C511BF0C8FA054601460A
:10834000A0691BF0BBF94146A06130461BF0B4F9AF
:1083500039461BF06FFB1AF00FFE00225B4B1AF040
:108360005FFE06460F4620691AF006FE32463B467F
:108370001AF0A4FC1BF04CF9804617F057FE01469A
:1083800028461BF0A3FA0146A0681BF097F9A060ED
:10839000404617F087FE014628461BF097FA014633
:1083A000E0681BF08BF9E06040461AF0E5FD3246CC
:1083B0003B461AF083FC1BF02BF906461AF0DCFD55
:1083C00035A3D3E9002304460D461BF0B9F8002875
:1083D00053D133A3D3E90023204629461BF092F85A
:1083E000002846D030A3D3E90023204629461AF0BE
:1083F00065FC1BF00DF9C9F81000BDE8F0877B782B
:10840000002B7FF441AF29461BF060FA8246C8F882
:10841000400041E73B78A56A002B7FF416AF294660
:108420001BF054FA0646E06316E798F80120F2B90B
:10843000274A5068D8B1834288BF18461BF0EEF92E
:10844000014624481BF0F6FA13E798F8002062B9B9
:108450001F4A106848B1834288BF18461BF0DEF9F6
:1084600001461C481BF0E6FAE3E60020E1E60020A6
:10847000FFE6C9F81060BDE8F0870BA3D3E900233D
:10848000204629461AF018FC1BF0C2F8C9F8100063
:10849000BDE8F087AFF30080182D4454FB2109405C
:1084A000182D4454FB2109C0182D4454FB211940B8
:1084B000041000E0006CDC02C09DFF1F001B0020C8
:1084C0004088FF1F041B0020441E00200000E03FE6
:1084D0001C1E0020001BB74C0C1B0020181E002087
:1084E00070B5544C94F850309AB073B1656D002D4E
:1084F00056DB514A514B1288DB8A9A4244D3002DF5
:1085000057D0013D65651AB070BD4B4B4B4A1B8877
:10851000D28A4B4E9A4239D940F67722934235DDC2
:10852000626D484B434D013283FB0210D117C1EB02
:10853000A0114FF47A7000FB11216429626544D0C8
:1085400042F210739A4227DD3F4D2B781BB96B78AE
:108550000BB9AB7873B100213C48FDF7ABFA0023AF
:108560000122EB822B772B836B776B83AB772A828D
:108570006A82AA823178C1B1354B364A63651021CF
:108580000123116084F850301AB070BD3378002B8D
:10859000C6D163651AB070BD3378002BD4D1F3E730
:1085A0000135AFD105236365EEE72B48FDF782FA6D
:1085B000E2E729462948FDF77DFA294A204B84F84D
:1085C0005050102111601D70DEE742F20F708242A0
:1085D000B6DCC2F51C52103283FB0203D217C2EB89
:1085E000A31301A81F4A1CF031FA002101A8FDF7CE
:1085F00061FA6A6D1C4941F2873301209A42087082
:108600009EDD114D2B7823B96B7813B9AB78002B15
:1086100096D000211548FDF74DFA00230121626D27
:10862000EB822B772B836B776B83AB772982698205
:10863000A98285E7C09DFF1FEE4100204088FF1FF3
:1086400004420020D34D62106441002080E6020005
:10865000E0FCFFFF08F00F4098E6020018E6020079
:1086600004F00F402CE60200ED9BFF1F5CE60200C9
:1086700038B5114D114C28891BF0D4F869681BF0EE
:1086800025F91AF079FC02460B4609A1D1E900014F
:108690001AF0F0FD1AF0BCFF094BA0621A684FF403
:1086A000967393FBF2F3238038BD00BFAFF30080D5
:1086B000182D4454FB2119404088FF1FC09DFF1F07
:1086C000C089FF1FF0B5A5B090F9F8335C4A0546A4
:1086D000782105A81CF0BAF905A81CF071FA95F8E4
:1086E000393405AA04461618072B0BD8DFE803F027
:1086F000886C737A818F9604C0F1780251493046B4
:108700001CF04CFB30461CF05BFA95F838740444BE
:1087100005AB1E19052F00F28880DFE807F032391B
:1087200040474E03C4F17802474930461CF036FBFF
:1087300030461CF045FA05AB04441E1995F8C404F4
:1087400095F8C31495F8C22495F8C13402900191AC
:108750000092C4F178013D4A30461CF077F930466A
:108760001CF02EFA05AB02199E18C2F178023046B1
:1087700037491CF013FB05A80021FDF79BF925B034
:10878000F0BDC4F17802334930461CF007FBE6E740
:10879000C4F17802304930461CF000FBDFE7C4F139
:1087A00078022E4930461CF0F9FAD8E7C4F1780275
:1087B0002B4930461CF0F2FABAE7C4F17802294995
:1087C00030461CF0EBFAB3E7C0F178022649304698
:1087D0001CF0E4FA96E7C0F17802244930461CF018
:1087E000DDFA8FE7C0F17802214930461CF0D6FA55
:1087F00088E7C0F178021F4930461CF0CFFA81E7C4
:10880000C0F178021C4930461CF0C8FA7AE7C0F182
:1088100078021A4930461CF0C1FA73E7C0F17802B9
:10882000174930461CF0BAFA6CE730461CF0C8F91C
:1088300005AB0444022F224603EB040695D97DE7DD
:1088400094E90200F0E9020044EA02004CEA020066
:10885000BCCF0200FCE9020008EA020018EA0200AC
:108860002CEA020034EA0200B4E90200C4E9020082
:10887000CCE90200D4E90200A8E90200DCE9020028
:10888000E4E90200F0B50446ADB000F2F4401CF09B
:1088900097F9B4F8D8E494F8B23494F8C42494F86E
:1088A000C37494F8C26494F8C154CDF820E004F283
:1088B000E4410A91099004F2C54194F8B304079188
:1088C00094F83814069294F9F823009283F0010387
:1088D000029001910A4A05977821049603950DA804
:1088E0001CF0B4F80DA80021FDF7E4F8054B93F94E
:1088F000003013B12046FFF7E5FE2DB0F0BD00BFFC
:1089000060EA0200EF9BFF1FF0B5ABB0B0F8364451
:10891000B0F82434B0F82C14B0F83424B0F82A7429
:10892000B0F832640894B0F828540791B0F8304495
:108930000692B0F82614B0F82E2400920191074A4E
:1089400005970496039502940BA878211CF07EF8F5
:108950000BA80021FDF7AEF82BB0F0BD8CEA0200A9
:108960002DE9F0410B7890F8B26482B0652B054692
:10897000019146D06E2B11D001AC08460A22214647
:108980001DF0D2FC064601980178002940F09A803B
:108990004E48FDF78FF802B0BDE8F081002380F863
:1089A000B03486F00106084601AC0A2221461DF0CB
:1089B000BBFC019B1A7812B1B0F57A7F56DC00211E
:1089C0004348FDF777F8019B03E0222A1DD00133CD
:1089D00001931A78002AF8D100213E48FDF76AF881
:1089E00086F0010385F8B234002E39D13A4B93F862
:1089F000B334002B48D10A2385F8F83302B0BDE820
:108A0000F081012380F8B034CBE75C1C01945B78E3
:108A10001BB932E014F8013F7BB3222BFAD14FF09F
:108A2000000884F800800199102205F2E440671CD8
:108A30001CF0B4F985F8F484019763785BB1222BBC
:108A400018BF3B4602D124E0222A23D001330193F0
:108A50001A78002AF8D100212048FDF72BF89AE770
:108A6000012385F8F83302B0BDE8F081B5F8D814D9
:108A70008842AAD0A5F8D804ABE700211848FDF732
:108A800019F802B0BDE8F08131461648FDF712F83A
:108A900081E73B465A1C01925B781BB90DE012F846
:108AA000013F53B1222BFAD10023137001991022F8
:108AB00005F2F4401CF072F992E700210A48FCF735
:108AC000F9FF68E7003618BF01266EE7F8EA0200F2
:108AD000B4EA020038EB02001C9EFF1FD4EA020039
:108AE00060EB020018EB02008CEB020081F0010247
:108AF00080F8B22439B9074B93F8B3343BB90A2351
:108B000080F8F8337047012380F8F8337047024843
:108B1000FCF7D0BF1C9EFF1F18EB020030B590F889
:108B2000B534022BA5B004462BD0032B13D0012B58
:108B300009D000215E48FCF7BDFF002384F8B5345E
:108B4000002025B030BD5B4A02231268C0F8B8246B
:108B500080F8B534F4E75749D0F8BC340A68D21A23
:108B6000B2F57A7FECD9544A92F90020002A7BD1E1
:108B70004FF0FF30002384F8B53484F8393425B041
:108B800030BD90F83924022A15D0032A1CD0042ABB
:108B90005BD0484BD0F8B8241B689B1A8B42CFD9C6
:108BA000454B93F90030002180F83814002B69D12F
:108BB0006FF00100DEE7404B93F900301BBB002350
:108BC00084F8C0340120D5E790F8C0243A4B013234
:108BD00093F90030D2B280F8C0241BBB0021374883
:108BE000FCF768FF94F8C034C822022BA4F80824CC
:108BF000BED900213248FCF75DFF002384F8C03461
:108C00006FF00100B6E72B4AD0F8B83411682D4A4E
:108C1000CB1A03A882211BF019FF03A80021FCF73F
:108C200049FFCCE72349D0F8B834086894F9F81321
:108C300001910092C31A244A03A882211BF006FF67
:108C400003A80021FCF736FFC8E71B4A194D92F92B
:108C50000020EAB92A68C4F8BC240133002284F851
:108C6000B53484F8C0246BE70968184ACB1A03A806
:108C700082211BF0EBFE03A80021FCF71BFF4FF045
:108C8000FF3077E71248FCF715FF6FF0010071E73E
:108C9000D0F8B83429680F4ACB1A03A882211BF0F8
:108CA000D5FE03A80021FCF705FF94F8B534D1E701
:108CB000B4EC02007C3F0020EF9BFF1F18EC020089
:108CC00028EC0200B4EB0200D8EB020088EC0200B2
:108CD00078EC020050EC0200F0B590F8B534BFB06B
:108CE0000446002B40F0A380B0F80854002D6DD14D
:108CF00090F9F8230F2A40F3C480632A00F214820B
:108D0000DFE812F08C002101440156016801920154
:108D1000A701D40169001202C301C301C301C30149
:108D2000C3011801060112021202120212021202FB
:108D30001202120212021202120212021202120293
:108D40001202120212021202120212021202120283
:108D50001202120212021202120212021202120273
:108D60001202120212021202120212021202120263
:108D70001202120212021202120212021202120253
:108D80001202120212021202120212021202120243
:108D90001202120212021202120212021202120233
:108DA0001202120212021202120212021202120223
:108DB0001202120212021202120212021202120213
:108DC000120212021202120212028C00013DA0F8DD
:108DD00008543FB0F0BD94F83834032B00F068829B
:108DE000BF4B94F8C414B3F90030994213D094F8EF
:108DF000C12494F8C36494F8C25403918DE86400CC
:108E00004121B84A0CA81BF021FE0CA80021FCF758
:108E100051FE94F9F823013284F8F82394F8393498
:108E2000012BD6D1012384F8B5343FB0F0BD022B1D
:108E300037D0032B10D0012B62D00021AA48FCF7B9
:108E400039FE002384F8B534002294F8F833134433
:108E500084F8F8333FB0F0BDA449D0F8BC340A68B8
:108E6000D21AB2F57A7FEFD9A14A92F90020002AEE
:108E700040F0D481FF22002384F8B53484F83934DB
:108E8000E3E79A4B01921B689A4A009541210CA88E
:108E90001BF0DCFD29460CA8FCF70CFE94F9F82326
:108EA0002BE790F83924022A00F09981032A00F078
:108EB0007681042A00F0BF818C4BD0F8B8141B686F
:108EC00042F210725B1A9342BED9894B93F900307B
:108ED000002180F83814002B40F01782D4F80434B5
:108EE000062BB8BF0F224FF00003A8BF002284F862
:108EF000F82384F8B53484F8393484F8B13468E759
:108F00007A4A02231268C0F8B82480F8B5349BE787
:108F1000774B94F8B21493F90030002940F069813E
:108F200023B194F8B334002B40F00382002384F87B
:108F3000383473E794F8B254002D00F08C8110237C
:108F400084F8F8336AE76A4A94F8B43492F9002056
:108F500001330221002584F8B43484F8F81384F82E
:108F6000C054002A3FF45AAFB4F8D834019304F245
:108F7000F44300930CA804F2E4435F4A41211BF040
:108F800065FD29460CA8FCF795FD47E70D215B48D8
:108F90000EF086FB564B93F90030012284F83924F9
:108FA000002B3FF43FAF00215548FCF783FD35E728
:108FB0000A2154480EF074FB4D4B93F90030012206
:108FC00084F83924002B3FF42DAF00214E48FCF7E4
:108FD00071FD23E704F2E44504F2F4462B464B4AC4
:108FE000009641210CA81BF031FD0CA81BF0E8FDF8
:108FF00001460CA80EF054FB3D4B93F900300122C2
:1090000084F83924002B3FF40DAF2B46404A0096DC
:1090100041210CA81BF01AFD0CA80021FCF74AFD09
:109020002046FFF74FFBF9E6002584F8B4540D21E4
:1090300038480EF035FB2E4B93F90030012284F8AE
:109040003924002B3FF4EEAE29463348FCF732FDBD
:10905000E4E6B4F8D834314A41210CA81BF0F6FC00
:109060000CA81BF0ADFD01460CA80EF019FB204B1F
:1090700093F90030012284F83924002B3FF4D2AE5A
:1090800000212748FCF716FDC8E6D2B2A2F10A0378
:10909000DBB2E11891F80A14002940F0F5800132A2
:1090A00084F8F8230023C4F80434B7E60A211548ED
:1090B0000EF0F6FA94F83834032B04BF052384F835
:1090C00038340B4B93F90030012284F83924002BFB
:1090D0003FF4A8AE00211348FCF7ECFC9EE600BF6D
:1090E0000C4200203CEE0200B4EC02007C3F002069
:1090F000EF9BFF1FD8EC0200FCEC020030ED0200F9
:1091000040ED020060ED02006CED020094ED020003
:109110008CED0200ACED0200BCED0200E8ED0200B7
:10912000FCED020020EE0200632584F8F85304F2FF
:10913000F4401BF045FDB4F8D86494F8B23494F8C8
:10914000C41494F8C374099004F2E4420A9200959E
:10915000089604F2C54294F8C264079294F8C15488
:10916000069194F8B314059794F83824019283F08B
:1091700001030291714A049678211DA803951BF002
:1091800065FC1DA80021FCF795FC6D4B93F90030A0
:10919000002B3FF443AE2046FFF794FA3EE690F8EA
:1091A000C024674B013293F90030D2B280F8C0245A
:1091B000002B40F0978000216248FCF77BFC94F87C
:1091C000C034C822022BA4F808247FF653AE002135
:1091D0005D48FCF76FFC002384F8C0347EE6584BF2
:1091E00093F90030002B6AD1002384F8C0340122A7
:1091F00041E6002184F8F813002B6FD10F2153486A
:109200000EF04EFA0123002184F8393484F8B33487
:1092100084F8F8134E48FCF74DFC87E609684D4A80
:10922000CB1A1DA882211BF011FC1DA80021FCF700
:1092300041FCFF221FE6424A474D92F90020002AD6
:1092400067D12A68C4F8BC240133002284F8B534FD
:1092500084F8C024F8E5414B93E807000CAB03C346
:109260000CA81A7008210EF01BFA012384F8393477
:1092700029463B48FCF71EFCD4F8043484F8C0545B
:109280000133C4F80434C9E5364A41210CA81BF067
:10929000DDFB0CA81BF094FC01460CA80EF000FAB4
:1092A000012384F8393400212F48FCF703FCF9E648
:1092B0000521012384F8381484F8B13490E5264A56
:1092C000D0F8B8341168294ACB1A1DA882211BF0A6
:1092D000BDFB1DA80021FCF7EDFB85E72448FCF74A
:1092E000E9FB8BE71C49D0F8B834086894F9F81307
:1092F00001910092C31A1F4A1DA882211BF0A6FBF0
:109300001DA80021FCF7D6FB55E71B48FCF7D2FB54
:10931000E4E5D0F8B8342968184ACB1A1DA8822190
:109320001BF094FB1DA80021FCF7C4FB94F8B53496
:1093300087E71348FCF7BEFBF8E500BF60EA0200D0
:10934000EF9BFF1F18EC020028EC020038EF020030
:1093500048EF020088EC02007C3F00209CEE0200F7
:10936000A8EE020074EE020088EE0200B4EB0200E8
:1093700008EF0200D8EB020078EC020050EC02008B
:10938000D4EE020090F83A34013B012B36D9F0B507
:1093900090F8F05397B00DB117B0F0BD04460EF041
:1093A000E1F91428F8DDB4F9EE73B4F8EC23BA1A35
:1093B00012B282421146A4F8F22320DD94F8B034B0
:1093C000A4F8F203002B38D194F8EB33014602AE37
:1093D0001D4A0091304650211BF038FB30461BF0EF
:1093E000EFFB014630460EF05BF9184A1268C4F8EC
:1093F000F423012384F83A3417B0F0BD704794F891
:10940000EB3304EB430002AEB0F82E240132A0F897
:109410002E2494F8B024002ADAD00D4A00970B4687
:10942000304650211BF012FB29463046FCF742FB28
:1094300094F8EB33B4F9F213CAE702AE034600978F
:109440003046044AEDE700BFBCEF02007C3F00203D
:1094500098EF02007CEF02002DE9F047D0F8AC3421
:10946000BCB004460D4663B9202936D894F83A6456
:10947000012E12D00A2D49D0002528463CB0BDE867
:10948000F0876C2B2CDCC21882F83B1494F83A64F9
:109490000133012EC4F8AC34ECD194F83B343E2BAC
:1094A000E8D1B4F9EC03B4F9F2130023C4F8AC34F6
:1094B00020440EF0F5F8B4F8EC13B4F8F233B4F934
:1094C000EE230B441BB202219A42A4F8EC3384F839
:1094D0003A1408BF84F8F063CCE784F83B14D5E76E
:1094E0000344002683F83B64A84A04F23B43B421BA
:1094F0000FA81BF0ABFA31460FA8FCF7DBFAC4F853
:10950000AC64C4F8046584F83964AFE7D4F8AC34CB
:10951000012BB1DD234404F23B474FF0000983F8EF
:109520003B949B4938461BF0C9FD9A490B908046F5
:1095300038461BF0C3FD98490C90824638461BF014
:10954000BDFD96490D90064638461BF0B7FD4745D0
:1095500002460E9000F08B80D4F80455002D03DDF8
:1095600094F83934052B35D0FEB10A2238460DA9BE
:109570001CF0DAFE0D9B1B782C2B024601D104282F
:109580005BD900218648FCF795FA94F83934052B0D
:109590004FF000053FF471AF00232846C4F8AC3407
:1095A000C4F804353CB0BDE8F087FAB138460A2269
:1095B0000EA91CF0B9FE0E9B1B782C2B00F0D4805A
:1095C000784B93F90030002BDFD000217648FCF770
:1095D00071FADAE7C4F8FC7338461BF0F1FA281A7E
:1095E0000028C4F804053EDD012546E76F490992CD
:1095F00038461BF063FD099A002800F0E580694BAE
:1096000093F90030002B40F0BC80384622211BF03B
:109610006BFA0028B9D004F5986504F2C446431CDF
:1096200018460A220BA90B931CF07EFE05F8010FC9
:10963000B54200F090800B98F1E75D4B5D481E68E5
:10964000A71802F5827104EB42020125002387F876
:109650000A5444F821601946A2F82454A2F82E3482
:10966000FCF728FA91E784F83994012594E70CA9CE
:109670002A4604F588601CF057FE061E05DB0C9B8D
:10968000002B00F03A81042E04DD4D46052384F8BA
:109690003934F2E6013318462A460CA984F80064EE
:1096A0000C931CF041FE0C9DC4F80405AA4601353C
:1096B00028460C951BF084FA0B9B9F42804600F0D5
:1096C0001E8100933C4A3B46B4210FA81BF0BEF913
:1096D00049460FA8FCF7EEF9C84504DBD4F8AC34D2
:1096E000984540F3198100213448FCF7E3F900253F
:1096F00094F8B034FBB1D4F8FC33E3B138461BF036
:109700005FFA0C9AD4F8AC14137807975778D4F80A
:109710000425009201900593049303910697B421C8
:10972000CDF808800FA83346254A1BF08FF90FA803
:109730000021FCF7BFF904EB460308F10108B3F878
:1097400024240132A3F82424D4F80435C8EB0303FD
:10975000C4F804359AE794F8C134002B3FF415AFF0
:10976000032384F8383410E704283FF629AF231880
:1097700004EB400083F80A64A0F82464A0F82E6487
:1097800003E711460F48FCF795F93EE7D0EF0200DA
:10979000F0EF020048EA0200F8EF020004F00200D5
:1097A000F8F00200EF9BFF1F20F1020048F10200D9
:1097B0007C3F0020DCF002000CF0020034F00200DC
:1097C00088F0020058F10200BC49099238461BF0AB
:1097D00075FC002800F0B380B94B099A93F900306A
:1097E000002B40F09480222138461BF07DF9431C69
:1097F0001946122204F2C5400B931BF0CFFA94F8DD
:10980000C534202B9CBF5F2384F8C53494F8C6343C
:10981000202B9CBF5F2384F8C63494F8C734202BD8
:109820009CBF5F2384F8C73494F8C834202B9CBFB6
:109830005F2384F8C83494F8C934202B9CBF5F237D
:1098400084F8C93494F8CA34202B9CBF5F2384F871
:10985000CA3494F8CB34202B9CBF5F2384F8CB34DC
:1098600094F8CC34202B9CBF5F2384F8CC3494F83C
:10987000CD34202B9CBF5F2384F8CD3494F8CE34B4
:10988000202B9CBF5F2384F8CE3494F8CF34202B58
:109890009CBF5F2384F8CF3494F8D034202B9CBF36
:1098A0005F2384F8D03494F8D134202B9CBF5F23FD
:1098B00084F8D13494F8D234202B9CBF5F2384F8F1
:1098C000D23494F8D334202B9CBF5F2384F8D33454
:1098D00094F8D434202B98BF5F234FF0000284F813
:1098E000D62498BF84F8D43494F8D534202B3FF68E
:1098F0004CAE5F2384F8D53447E61D46C6E69AF899
:1099000001302B2B2FD0C4F8FC530125F0E6114673
:109910006C48FCF7CFF866E742460C990B981AF0B2
:10992000D3FD3B46684AB4210FA81BF08FF8494687
:109930000FA8FCF7BFF80125C4F8FC73D8E663490B
:1099400038461BF0BBFBD0B14346614AB4210FA897
:109950001BF07CF831460FA8FCF7ACF80223354623
:1099600084F8393418E63B465A4AB4210FA81BF054
:109970006DF849460FA8FCF79DF80C9DC3E75649C2
:1099800038461BF09BFB18B1052384F83834FCE5FE
:10999000BAF1000F11D0384650491BF08FFB38B197
:1099A000D4F8DC3403220133C4F8DC3484F83A24DC
:1099B000022384F839340025EEE5494938461BF086
:1099C0007DFBA8B1474B00971B68474AB4210FA8FD
:1099D0001BF03CF80FA80021FCF76CF800250122D1
:1099E0000323A4F8EE5384F8F02384F83934D3E544
:1099F0003E4938461BF062FB0028E3D13C4938461B
:109A00001BF05CFB90B12E4B93F900304BB1B421AD
:109A10003B460FA8374A1BF019F80FA80021FCF7A6
:109A200049F8042384F839340025B5E5324938462D
:109A30001BF044FB054630B10623002584F8393479
:109A400084F83A54A8E5072384F839342B4938467A
:109A50001BF034FB0646B8B1012384F8383484F88F
:109A60000A5484F80B5484F80C5484F80D5484F888
:109A70000E5429462248FCF71DF8224BFF222046AF
:109A80001A70FEF7FFFE80E51F4938461BF016FBF3
:109A9000054600283CD0022384F8383431461B4860
:109AA000FCF708F8174B84F8B3640121FF2284F80F
:109AB000B11420461A70FEF7E5FE66E57CF102005F
:109AC000EF9BFF1F8CF1020054F00200B4F1020082
:109AD000C0F1020074F00200B8F10200D8F10200F7
:109AE000E0F102007C3F0020F0F10200E8F102000A
:109AF00004F202000CF202001CF2020030F202003A
:109B000040F202000488FF1F70F2020080F202009F
:109B1000194938461BF0D2FA0646C0B12946174803
:109B2000FBF7C8FF164BFF2220461A70FEF7AAFE6D
:109B300094F9F833002B02DD632B7FF426AD052367
:109B400084F8F83300210F48FBF7B4FF1DE53846D1
:109B50000D491BF0B3FA60B1042384F83834314660
:109B60000A48FBF7A7FF0123C4F8046484F8F8331C
:109B70000BE5054610E500BFACF20200B8F20200AA
:109B80000488FF1FE0F2020028F3020030F3020015
:109B90000023C0F8AC3480F83B34C0F8FC33704785
:109BA0002DE9F0414518A8B095F80A549DF8B88001
:109BB00004467DB190F8F05345B10E4690F8381444
:109BC000052910D0002028B0BDE8F081284628B033
:109BD000BDE8F081D0F8E0340133C0F8E034012072
:109BE00028B0BDE8F081B3F57A7F1F4618DA114638
:109BF0001A461BF0D3F8B8F1000F05D07B1C0D21DD
:109C00000A22E155E25402370023E3550120A4F86B
:109C1000EC3384F8F03384F8EB63A4F8EE73D2E706
:109C20004FF47A7200929621074A02A81AF00EFFAA
:109C300002A80021FBF73EFFD4F8E0340133C4F85A
:109C4000E0340020BFE700BF54F302002DE9F843E1
:109C5000384C06462046F6F7BBFE00F001072046CA
:109C6000F6F7B6FE94F80C800546B8F1000F43D025
:109C700023691D4425612F4D2846F6F7A9FE431E92
:109C80000F2B804617D895F80C90B9F1000F3DD0F6
:109C900028694044023087F00103206186F8B2341D
:109CA0002FBB254B93F8B334002B3AD10A2386F807
:109CB000F833BDE8F8832B7B53B1002837D000215F
:109CC0001E48FBF7F7FE237B1A4A2BB11069E1E728
:109CD00086F8F4340028F2D11648F6F78BFE87F0A8
:109CE0000103A6F8D80486F8B234002FD9D0012396
:109CF00086F8F833BDE8F8833544024606F2E441BD
:109D00002046F7F7E9F885F8E484B4E728464246A8
:109D100006F2F441F7F7E0F806EB080080F8F49457
:109D2000D1E739460648BDE8F843FBF7C3BE2869CA
:109D3000B0E700BFAC9BFF1F1C9EFF1F7CF302001F
:109D400018EB020070B500F2E445044628461AF00C
:109D500037FF94F8B214064681F001011148F6F776
:109D6000EBFDF1B20F48F6F7E7FD324629460D4804
:109D700004F2F446F7F788F830461AF021FF05465A
:109D8000C1B20848F6F7D8FD002D04DD2A46314659
:109D90000448F7F779F8B4F8D8140248BDE87040E1
:109DA000F6F7E4BDAC9BFF1F0A2380F8F833704739
:109DB00010B50F21044608480DF072FC0021012364
:109DC00084F8F81384F8393484F8B3340348BDE8D0
:109DD0001040FBF76FBE00BF38EF020048EF0200F3
:109DE000F0B53D4C3D4EDFF8F8E0FF25012284F848
:109DF000F853002584F8F02384F80E54A4F8EC53AB
:109E0000A4F8EE53A4F8F253C4F8FC5384F80054B9
:109E1000C4F80454A4F80854C4F80A54C4F81054FC
:109E2000C4F82454C4F82E5484F8385484F83954AF
:109E300084F83A54C4F8AC5484F8B05484F8B2545A
:109E400084F8B35484F8B45484F8B554C4F8145462
:109E5000C4F81854C4F81C54C4F82054C4F8285446
:109E6000A4F82C54C4F83254A4F8365484F8B1241D
:109E70000FCEC4F8C504C4F8C9149EE803003688A0
:109E8000C4F8D1340B0C45F6C15784F8C054C4F85B
:109E9000EB54C4F8F454C4F8F854A4F8D564C4F8E6
:109EA000CD24C4F8E404A4F8E81484F8EA34C4F82F
:109EB000EF5484F8F354C4F8FC54C4F80055C4F8C3
:109EC000B854C4F8BC54C4F8DC54C4F8E054C4F822
:109ED0000455A4F8D874F0BD1C9EFF1F94F3020033
:109EE00084E90200FFFFFFFF00282DE9F0410C4646
:109EF00003DD294B1860FDF77BFD284F24B90123B2
:109F000087F89530BDE8F0813A46DFF88CC0DFF87D
:109F100090E00121002302F801194FF47A71CCF886
:109F200008109846CCF804301D4607F11C0007F1D4
:109F3000550107F11A0612F8014F84B10B7805801C
:109F4000493BDBB2222B98BF1EF9038011F8013C7C
:109F500088BF4FF0010808FB03531D46A046B242DC
:109F600000F1020001F10201E5D1B8F1000F0FD1BB
:109F7000002247F2305393FBF5F50123C7F89020F8
:109F800087F89420C7F88C5087F89530BDE8F081A9
:109F9000CCF80430ECE700BFC089FF1F24A3FF1FEB
:109FA000A8F30200024B002283F89520704700BFFF
:109FB00024A3FF1F2DE9F04F054D2B7B95B01BB15E
:109FC000044C94F894303BB115B0BDE8F08F00BF5D
:109FD000C089FF1F24A3FF1FD4F89030D4F88C2031
:109FE000934280F2D381686804F1980600FB03F77E
:109FF000F119B1F1005F0AD20144B1F1005F06D955
:10A0000001339A42C4F8903040F3C0810744A28BD8
:10A01000BA48BB4994F801E000683A440133C4F8F7
:10A0200090300023B05084F8943001F19802BEF1D2
:10A03000000F40F06E82A378B14A002B40F04382BB
:10A04000E378AF4A002B40F035822379AC4A002BED
:10A0500040F0288263790BB3AA4B93F900000028E3
:10A0600000F09782DFF8D892A749D9F8000019F0DC
:10A070002DFC19F007FEA4490FFA80F8D9F8040066
:10A0800019F024FC19F0FEFD00B214AAE38C22F8AA
:10A090002C8DADF826003B441068F050E379984AC7
:10A0A000002B40F02E82A379954A002B40F01C82B1
:10A0B000237A934A002B40F00F82637A904A002B58
:10A0C00040F0C681A37A8E4A002B40F0AE81E37A3D
:10A0D000002B00F0CE808D4A8D4B5088B3F802E003
:10A0E000B3F80080B2F800C09188CEEB000E9888DB
:10A0F000ADF826E0C8EB0C0C081AADF824C0D188E6
:10A10000B3F806C0B3F808E0ADF82800CCEB0101C5
:10A11000B2F808C05889ADF82A10CEEB0C0EB2F890
:10A120000AC09989DB89ADF82CE0C0EB0C00B2F8CD
:10A130000CC0D289DFF80CE2ADF82E00D31AC1EBC7
:10A140000C017448DFF800C2734ADCF80080ADF8F7
:10A150003230DEF800C0714BD0F800E01068704A71
:10A16000ADF83010CDF83480CDF838C0CDF83CE0F3
:10A17000109012681B78119200228DF84820002B55
:10A1800000F0EB813D2001902320079033200690C2
:10A19000132005902F2004903F20012303900F20CF
:10A1A0008DF848303122212311214FF02D0E4FF030
:10A1B0001D094FF00D0C4FF01F0A02904FF0030BDA
:10A1C000DFF8888198F80080B8F1000F0AD005A95F
:10A1D0000EC90398DDF810E0DDF808C08DF848B02E
:10A1E0000190D146DFF8688198F80080B8F1000F3F
:10A1F00004D0019A8DF848C0734649464948007812
:10A2000010B18DF848101346474A12780AB18DF8FC
:10A21000483046484649474A474BB4F832E0007850
:10A22000097812681B688DF84A00BE448DF84B10FF
:10A230008DF84C208DF84D30B6440DF124080DF109
:10A240004409C446BCE80F00CC45CEF80000CEF867
:10A250000410CEF80820CEF80C30E0460EF1100EB7
:10A26000EFD1B8E80700CEF80000CEF80410CEF821
:10A270000820237B224A002B40F09180637B204AF8
:10A28000002B40F00981A37B1D4A002B40F0FA808F
:10A29000E37B002B40F0F080237C002B40F0E68035
:10A2A000637C002B40F0AD80A37C002B40F0A380AA
:10A2B000E37C002B40F09980237D002B40F08F80C1
:10A2C000637D002B40F08580A37D002B7BD1E37D57
:10A2D000002B72D1237E002B69D1637E084A002BAC
:10A2E00040F09580A37E064C002B3FF46DAE134FDB
:10A2F000D7F880300993D7E922012BE0E89BFF1FB4
:10A3000024A3FF1FF01A002000007A44488AFF1F90
:10A31000588AFF1FCC1E0020B01E0020108AFF1F8D
:10A32000D41E0020591E0020581E0020551E00205B
:10A33000541E0020F81E0020F41E0020983F00202C
:10A34000F81A00205C1E0020601E0020641E002001
:10A35000B41E002019F05CF90A90D7E9240119F025
:10A3600057F9D7F89830D5F804E0D4F890700B90EE
:10A370000C9309AD0FCDB4F850407D1E0EFB054483
:10A38000351930516960AA60EB601DE60122002397
:10A3900084F8942084F8953015B0BDE8F08F938E42
:10A3A0007D4A3B4403CAF218F050516066E77B4B8C
:10A3B0001821586AF8F7E0FC8FE7784B1721186AE4
:10A3C000F8F7DAFC86E7754B1621D869F8F7D4FC64
:10A3D0007DE7724B1521D868F8F7CEFC74E76F4B18
:10A3E00014211869F8F7C8FC6AE76C4B13219869C7
:10A3F000F8F7C2FC60E7694B12215869F8F7BCFC1A
:10A4000056E7664B11219868F8F7B6FC4CE7D2F88E
:10A4100090306868B2F84E206149013B00FB032090
:10A420003044502219F0B6FF5CE7DFF8A4E1B2F83F
:10A4300030C0BEE80F000CEB070E06EB0E0C46F822
:10A440000E00CCF80410CCF80820CCF80C303EE616
:10A4500054485549D38D096802680A92099109AA9E
:10A4600003CA3B44F218F05051602BE64B4B1021CD
:10A470005868F8F781FC13E7484B0F211868F8F784
:10A480007BFC09E7494BB2F838E007CB7744F31976
:10A49000F05159609A60FBE6D38E454A3B441288DE
:10A4A000F252F0E6938C434A3B4403CAF218F05050
:10A4B0005160CFE5538C404A3B44F11810689288B4
:10A4C000F0508A80C1E5138C3C4A3B44F118106877
:10A4D0009288F0508A80B3E5938D394A3B4403CA91
:10A4E000F218F0505160E8E53649138D91E8050007
:10A4F0000A92099009AA03CA3B44F218F05051602D
:10A50000D6E5538D304A3B4403CAF218F0505160EF
:10A51000C9E5DFF8C090DFF8C080DFF880C02B48C5
:10A52000B1F81EE099F80010BCF87CC000788DF8F6
:10A530002610D8F82011ADF824C08DF827000A9114
:10A540000DF1240CBE44BCE80300C8F8203102EB36
:10A550000E0342F80E0059606DE53C200190222068
:10A56000079032200690122005902E2004903E2065
:10A5700003900E202023302210214FF02C0E4FF09C
:10A580001C094FF00C0C4FF01E0A02904FF0020B0A
:10A5900016E6804679E500BF58190020983F002054
:10A5A000EC180020004200200C9EFF1FF441002008
:10A5B000EE41002004400020489DFF1F409DFF1FEA
:10A5C000049EFF1F349DFF1F041B0020849DFF1F5E
:10A5D000C89DFF1F799DFF1F404000202DE9F041DD
:10A5E000002984B014461D4600680BDB18F0C4FC3B
:10A5F000124ACDE90001294620461AF027FA04B094
:10A60000BDE8F0810E4B0F4A53F8B07CB2F9006000
:10A610000D4A791C43F8B01C52F8268018F0ACFCA7
:10A620000197CDE902014346009629462046074A94
:10A630001AF00CFA04B0BDE8F08100BF1CF402006F
:10A64000EC1900200C4200205888FF1FF4F3020090
:10A65000F0B5002989B0044611DBB0F9006090F92B
:10A66000035090F9024041680291104619468DE866
:10A6700030003346164A1AF0E9F909B0F0BD154E1C
:10A68000154956F8B05C896FD0F804C0039105F104
:10A69000030EAF1CCDF808E0019719466B1C94F926
:10A6A00003E0009394F902701046B4F9002004927C
:10A6B0002B46CDF81CC0CDF818E00597074A1AF0D4
:10A6C000C5F956F8B03C043346F8B03C09B0F0BDCB
:10A6D0008CF40200EC190020983F002024F40200C2
:10A6E0002DE9F043002904461F4689B01646324B37
:10A6F000B0F9040027DB1D6819F094F8294619F019
:10A70000E5F818F039FCCDE90401B4F9020019F0BC
:10A7100089F8294619F0DAF818F02EFCCDE9020183
:10A72000B4F9000019F07EF8294619F0CFF818F0B6
:10A7300023FC224ACDE90001394630461AF086F959
:10A7400009B0BDE8F083D3F800901D4D19F06AF808
:10A75000494619F0BBF818F00FFCCDE90601B4F931
:10A76000020055F8B08C19F05DF8494619F0AEF8C2
:10A7700018F002FCCDE90401B4F9000019F052F818
:10A78000494619F0A3F818F0F7FB08F1020208F1A6
:10A790000103CDE902010192009339464346304658
:10A7A000084A1AF053F955F8B03C033345F8B03C69
:10A7B00009B0BDE8F08300BF54E10200C8F4020014
:10A7C000EC1900209CF402002DE9F0430029044616
:10A7D0001F4689B01646324BB0F9040027DB1D68CE
:10A7E00019F020F8294619F071F818F0C5FBCDE9E9
:10A7F0000401B4F9020019F015F8294619F066F8B9
:10A8000018F0BAFBCDE90201B4F9000019F00AF81A
:10A81000294619F05BF818F0AFFB224ACDE9000198
:10A82000394630461AF012F909B0BDE8F083D3F882
:10A8300000901D4D18F0F6FF494619F047F818F042
:10A840009BFBCDE90601B4F9020055F8B08C18F075
:10A85000E9FF494619F03AF818F08EFBCDE90401FA
:10A86000B4F9000018F0DEFF494619F02FF818F08F
:10A8700083FB08F1020208F10103CDE90201019214
:10A880000093394643463046084A1AF0DFF855F837
:10A89000B03C033345F8B03C09B0BDE8F08300BFDD
:10A8A00058E10200C8F40200EC190020D4F40200C0
:10A8B000F0B5002987B00FDBB0F90050B0F90410F3
:10A8C000B0F902400094019110461946134A2B46F4
:10A8D0001AF0BCF807B0F0BD114CB0F9041054F8F0
:10A8E000B05CB0F90270B0F90060029605F1020C9C
:10A8F00005F1010E049110461946CDF804C02B460F
:10A90000CDF800E00397074A1AF0A0F854F8B03CDD
:10A91000033344F8B03C07B0F0BD00BF30F502008F
:10A92000EC19002004F502002DE9F043002987B05E
:10A93000044616461F4622DB2A4D40686B68C01A43
:10A9400018F070FF284900F1004018F0BFFF18F020
:10A9500013FB22682B68CDE90201D01A18F062FFC0
:10A96000214918F0B3FF18F007FB204ACDE9000198
:10A97000394630461AF06AF807B0BDE8F083DFF8D0
:10A9800064904068D9F80030194DC01A18F04AFF99
:10A99000154955F8B08C18F099FF18F0EDFA2268B7
:10A9A000D9F80430CDE90401D01A18F03BFF0E4964
:10A9B00000F1004018F08AFF18F0DEFA08F10103F8
:10A9C000CDE902010093394643463046094A1AF060
:10A9D0003DF855F8B03C023345F8B03C07B0BDE84F
:10A9E000F08300BF301E0020E62A313674F50200E5
:10A9F000EC1900203CF50200F0B50029044687B0B0
:10AA000015461E4640680FDB18F0B6FACDE9020184
:10AA1000206818F0B1FA124ACDE900013146284603
:10AA20001AF014F807B0F0BD18F0A6FACDE9040149
:10AA30000C4F206857F8B04C18F09EFA631CCDE913
:10AA400002010093314623462846074A19F0FEFFCB
:10AA500057F8B03C023347F8B03C07B0F0BD00BF38
:10AA6000BCF50200EC19002080F50200F0B50029C9
:10AA7000044687B015461E4640680FDB18F07CFA86
:10AA8000CDE90201206818F077FA124ACDE90001F9
:10AA90003146284619F0DAFF07B0F0BD18F06CFA1D
:10AAA000CDE904010C4F206857F8B04C18F064FA57
:10AAB000631CCDE902010093314623462846074A2C
:10AAC00019F0C4FF57F8B03C023347F8B03C07B068
:10AAD000F0BD00BFBCF50200EC190020C8F5020073
:10AAE000F0B5002985B00ADB046841680091104682
:10AAF00019460E4A234619F0A9FF05B0F0BD0C4CCB
:10AB0000416854F8B05C066801966F1C02911046CB
:10AB1000194600972B46074A19F098FF54F8B03CA5
:10AB2000023344F8B03C05B0F0BD00BF30F602007F
:10AB3000EC19002004F60200F0B5002985B00CDB0A
:10AB4000B0F90040B0F902100091104619460F4AC2
:10AB5000234619F07BFF05B0F0BD0D4CB0F9021093
:10AB600054F8B05CB0F9006001966F1C0291104679
:10AB7000194600972B46074A19F068FF54F8B03C75
:10AB8000023344F8B03C05B0F0BD00BF70F60200DF
:10AB9000EC1900203CF60200F0B50029044687B00D
:10ABA00015461E4640680FDB18F0E6F9CDE90201B4
:10ABB000206818F0E1F9124ACDE900013146284633
:10ABC00019F044FF07B0F0BD18F0D6F9CDE9040143
:10ABD0000C4F206857F8B04C18F0CEF9631CCDE943
:10ABE00002010093314623462846074A19F02EFFFA
:10ABF00057F8B03C023347F8B03C07B0F0BD00BF97
:10AC0000BCF50200EC19002078F60200F0B500292E
:10AC1000044687B015461E46B0F902001CDB18F04A
:10AC200001FE18F0A9F900221F4B18F023FBCDE913
:10AC30000201B4F9000018F0F5FD18F09DF91A4B67
:10AC4000002218F017FB194ACDE9000131462846C9
:10AC500019F0FCFE07B0F0BD18F0E4FD18F08CF917
:10AC60000022114B124F18F005FBCDE90401B4F995
:10AC7000000057F8B04C18F0D5FD18F07DF900220F
:10AC8000094B18F0F7FA631CCDE902010093314635
:10AC900023462846074A19F0D9FE57F8B03C02333C
:10ACA00047F8B03C07B0F0BD00408F40E8F6020026
:10ACB000EC190020B0F60200F0B50029044689B076
:10ACC00015461E46B0F906001DDB18F043F90022B8
:10ACD000214B18F0CFFAD4F802300293CDE90401E9
:10ACE000B4F9000018F09EFD18F046F91B4B002245
:10ACF00018F0C0FA1A4ACDE900013146284619F089
:10AD0000A5FE09B0F0BD18F025F90022124B154F31
:10AD100018F0B0FAD4F802300493CDE90601B4F982
:10AD2000000057F8B04C18F015F900220B4B18F042
:10AD3000A1FAA21C631CCDE90201019200933146E5
:10AD400023462846084A19F081FE57F8B03C0333E1
:10AD500047F8B03C09B0F0BD000059400000244065
:10AD600040F70200EC190020F4F602002DE9F04152
:10AD7000002904468CB015461E46C0681ADB18F040
:10AD8000FBF8CDE90601A06818F0F6F8CDE904015A
:10AD9000606818F0F1F8CDE90201206818F0ECF8CD
:10ADA0001A4ACDE900013146284619F04FFE0CB091
:10ADB000BDE8F08118F0E0F8CDE90A01A068DFF8FD
:10ADC000548018F0D9F8CDE90801606858F8B07CD3
:10ADD00018F0D2F8CDE90601206818F0CDF8FC1C77
:10ADE000BA1C7B1CCDE904010192009331463B461D
:10ADF00028460294064A19F029FE58F8B03C04335C
:10AE000048F8B03C0CB0BDE8F08100BF90F70200FC
:10AE100050F70200EC19002070B5002982B01446EA
:10AE20001D461FDB008818F0FDFC254918F002FEC6
:10AE300018F0A2F84FF03332224B18F0F1F81EA3AD
:10AE4000D3E9002318F0ECF81E4B4FF0333218F022
:10AE500011FA1D4ACDE900012946204619F0F6FDF8
:10AE600002B070BD194B008853F8B06C721C43F8E7
:10AE7000B02C18F0D7FC124918F0DCFD18F07CF863
:10AE80004FF033320F4B18F0CBF80BA3D3E900236C
:10AE900018F0C6F84FF033320A4B18F0EBF933468E
:10AEA000CDE900010A4A2946204619F0CFFD02B03B
:10AEB00070BD00BFAFF300803333333333333040E2
:10AEC00000F0FF453333F33FD0F70200EC190020C8
:10AED000A8F70200F0B50029044689B015461E46C1
:10AEE000806835DB18F09AFC18F046F800223C4BDD
:10AEF00018F096F838A3D3E9002318F0BBF9CDE990
:10AF00000401606818F08AFC18F036F80022344B0F
:10AF100018F086F830A3D3E9002318F0ABF9CDE997
:10AF20000201206818F07AFC18F026F800222C4B59
:10AF300018F076F828A3D3E9002318F09BF9294AE2
:10AF4000CDE900013146284619F080FD09B0F0BD79
:10AF500018F064FC18F010F80022214B224F18F072
:10AF60005FF81DA3D3E9002318F084F9CDE90601A9
:10AF7000606818F053FC17F0FFFF0022184B18F020
:10AF80004FF815A3D3E9002318F074F9CDE90401B3
:10AF9000206857F8B04C18F041FC17F0EDFF002284
:10AFA0000F4B18F03DF80CA3D3E9002318F062F919
:10AFB000A31CCDE9020100933146234628460B4AE3
:10AFC00019F044FD57F8B03C033347F8B03C09B0E2
:10AFD000F0BD00BFAFF300800000000060E39641C9
:10AFE00000408F4024F80200EC190020D8F702003E
:10AFF0002DE9F043002997B0044615461E4639DB7B
:10B00000406A17F0B9FFCDE91201206A17F0B4FFCA
:10B01000CDE91001E06917F0AFFFCDE90E01A0699D
:10B0200017F0AAFFCDE90C01606917F0A5FFCDE983
:10B030000A01206917F0A0FFCDE90801E06817F0C8
:10B040009BFFCDE90601A06817F096FFCDE904014A
:10B05000606817F091FFCDE90201206817F08CFFBE
:10B060002E4ACDE900013146284619F0EFFC17B011
:10B07000BDE8F0831E9B406A294FA3F10F02092A05
:10B0800097BF284BDFF8A49003EB8202D2F82490FC
:10B0900017F072FFCDE91401206A57F8B08C17F051
:10B0A0006BFFCDE91201E06917F066FFCDE91001F1
:10B0B000A06917F061FFCDE90E01606917F05CFF30
:10B0C000CDE90C01206917F057FFCDE90A01E068CE
:10B0D00017F052FFCDE90801A06817F04DFFCDE948
:10B0E0000601606817F048FFCDE90401206817F0F9
:10B0F00043FF08F10903CDE902010093CDF8049064
:10B10000434631462846084A19F0A0FC57F8B03C9F
:10B110000A3347F8B03C17B0BDE8F08390F802005E
:10B12000EC190020A8F302003CF8020034F80200F9
:10B130002DE9F04300290446AFB015461E46006CC9
:10B1400065DB17F019FFCDE92401E06B17F014FF60
:10B15000CDE92201A06B17F00FFFCDE92001606B54
:10B1600017F00AFFCDE91E01206B17F005FFCDE9AE
:10B170001C01E06A17F000FFCDE91A01A06A17F080
:10B18000FBFECDE91801606A17F0F6FECDE9160165
:10B19000A06C17F0F1FECDE91401606C17F0ECFE25
:10B1A000CDE91201206A17F0E7FECDE91001E06950
:10B1B00017F0E2FECDE90E01A06917F0DDFECDE942
:10B1C0000C01606917F0D8FECDE90A01206917F07B
:10B1D000D3FECDE90801E06817F0CEFECDE9060107
:10B1E000A06817F0C9FECDE90401606817F0C4FE3D
:10B1F000CDE90201206817F0BFFE474ACDE9000102
:10B200003146284619F022FC2FB0BDE8F08317F034
:10B21000B3FECDE92C01E06BDFF8048117F0ACFE42
:10B22000CDE92A01A06B58F8B07C17F0A5FECDE956
:10B230002801606B17F0A0FECDE9260107F10F038E
:10B24000206B249307F11209CDF8949017F094FE27
:10B25000CDE92201E06A17F08FFECDE92001A06A56
:10B2600017F08AFECDE91E01606A17F085FECDE970
:10B270001C0107F10E02A06C1B9207F10B031A933D
:10B2800017F07AFECDE91801606C17F075FECDE974
:10B290001601206A17F070FECDE91401E06917F07D
:10B2A0006BFECDE9120107F10A02FB1DA0691192A4
:10B2B000109317F061FECDE90E01606917F05CFE96
:10B2C000CDE90C01206917F057FECDE90A01E068CD
:10B2D00017F052FECDE90801A06817F04DFECDE948
:10B2E0000601606817F048FECDE90401206817F0F8
:10B2F00043FE3B46CDE90201CDF800903146284699
:10B30000064A19F0A3FB58F8B03C133348F8B03C98
:10B310002FB0BDE8F08300BFACF90200B0F8020026
:10B32000EC1900202DE9F041002982B007461446AF
:10B33000984619DB061F4C37002556F8040F17F006
:10B340001BFEC5EB0803CDE90001224A1946204641
:10B3500019F07CFB204619F033FCBE42054404443E
:10B36000EBD102B0BDE8F0811B4D1C4A55F8B03C52
:10B3700003F1130100912046414619F067FB55F88F
:10B38000B03C2046143345F8B03C19F019FC3E1F80
:10B39000034605464C3756F8040F1C4417F0ECFDE5
:10B3A000C5EB0803CDE900010A4A1946204619F009
:10B3B0004DFB204619F004FCB74203460544EAD190
:10B3C000074AC5EB0801201802B0BDE8F04119F0AA
:10B3D0003DBB00BF20FA0200EC19002004FA020075
:10B3E000BCCF02002DE9F041002904468AB0154681
:10B3F0001E46C0681ADB17F0BFFDCDE90601A06844
:10B4000017F0BAFDCDE90401606817F0B5FDCDE98C
:10B410000201206817F0B0FD184ACDE9000131465D
:10B42000284619F013FB0AB0BDE8F08117F0A4FD1F
:10B43000CDE90801A068124F17F09EFD57F8B08CB7
:10B44000CDE90601606817F097FDCDE90401206899
:10B4500017F092FD08F10303CDE902010093314694
:10B4600043462846074A19F0F1FA57F8B03C04332E
:10B4700047F8B03C0AB0BDE8F08100BF74FA0200A2
:10B48000EC19002024FA02002DE9F0430029AFB0A6
:10B49000044616461F4690F8245054DB006A17F005
:10B4A0006BFD94F9292094F928301992CDE91A01FD
:10B4B000E069189317F060FD94F9272094F926307D
:10B4C0001592CDE91601A069149317F055FDCDE949
:10B4D0001201C5F3001EB4F90E30CDF844E005F0BA
:10B4E0000101B4F90C001091C5F34002B4F90A103F
:10B4F0000F92B4F908200E93B4F906300D90B4F908
:10B5000004000C91B4F902100B92B4F900200A93D4
:10B510000990C5F3C003606907920693089117F07C
:10B520002BFDCDE90401C5F380052069029517F0D4
:10B5300023FD4F4ACDE900013946304619F086FA1D
:10B540002FB0BDE8F0834B4A4B4BB2F90E10B2F965
:10B550000C002D91B2F90A102C90B2F908002B9131
:10B56000B2F906102A90B2F904E02991B2F902006A
:10B57000B2F90010CDF8A0E0B3F90E202790B3F98E
:10B580000C002691B3F90A102592B3F908202490F3
:10B59000B3F906002391B3F90410DFF8E480229296
:10B5A000B3F90220B3F9003058F8B09C1F922190F3
:10B5B00020911E93206A17F0DFFCCDE91C0194F95D
:10B5C000292094F92830E0691B921A9317F0D4FCD3
:10B5D000CDE9180194F9272094F92630A069179233
:10B5E000169317F0C9FCCDE91401C5F300111391AE
:10B5F00005F00102B4F90E101292C5F34003B4F93C
:10B600000C201193B4F90A301091B4F908100F927C
:10B61000B4F906200E93B4F904300D91B4F9021078
:10B620000C92B4F900200B930A91C5F3C003606932
:10B630000992089317F0A0FCCDE90601C5F3800537
:10B640002069049517F098FC09F11503CDE9020172
:10B65000009339464B463046084A19F0F7F958F836
:10B66000B03C163348F8B03C2FB0BDE8F08300BFC3
:10B67000A8FB0200288AFF1F188AFF1F84FA020015
:10B68000EC1900202DE9F047284D294C86B00646DC
:10B690000068904699460F4618F0C0F8296818F0DF
:10B6A00015F9216818F008F801464FF07E5018F09F
:10B6B000C1F98246706818F0B1F8696818F006F9A7
:10B6C000616817F0F9FF01464FF07E5018F0B2F9AB
:10B6D000002F10DB17F050FCCDE90201504617F0A7
:10B6E0004BFC144ACDE900014946404619F0AEF939
:10B6F00006B0BDE8F08717F03FFC0F4CCDE9040120
:10B70000504617F039FC54F8B03C0C4A5D1CCDE9AA
:10B71000020100954946404619F098F954F8B03CAA
:10B72000023344F8B03C06B0BDE8F087E889FF1F5B
:10B73000F089FF1F74F50200EC190020F8FB0200ED
:10B740002DE9F041204EDFF888E0204FCEF80800C8
:10B7500032460023012102F801199846CEF8043040
:10B760001D4606F11C0006F1550106F11A0C12F8EF
:10B77000014F84B10B780580493BDBB2222B98BF87
:10B7800017F9038011F8013C88BF4FF0010808FB4E
:10B7900003531D46A046624500F1020001F102017B
:10B7A000E5D1B8F1000F0CD1002247F23053C6F8B2
:10B7B000902093FBF5F586F89420C6F88C50BDE8F0
:10B7C000F081CEF80430EFE724A3FF1FA8F30200B6
:10B7D000C089FF1F70B4084D084CD5F890306668DA
:10B7E00005EB40005C1E838B05F1980006FB0433DB
:10B7F000184470BC18F0CEBD24A3FF1FC089FF1FE2
:10B80000114AD2F89030D2F88C0083421ADA0F49EC
:10B8100010B44C6802F1980104FB0311B1F1005F10
:10B8200005D30133C2F89030012010BC7047214489
:10B83000B1F1005FF5D901339842C2F89030F0DCE5
:10B840000020F2E70020704724A3FF1FC089FF1FDC
:10B85000034B03EB400080F8541080F855207047EC
:10B8600024A3FF1F2DE9F04FADF2344D031E0D93BD
:10B8700040F39F82AC4A19465268AC4B02FB01333D
:10B880000E931A46B2F1005F06D2A74B5B681344D1
:10B89000B3F1005F00F28282A54F002407F11D067C
:10B8A000A0460DF1440917F8012FE3B2002A37D062
:10B8B000013B192B00F2F881DFE813F0DE011302DF
:10B8C0000902BE0197018D017B0154011301EC00B7
:10B8D000E200A6007F0075006A006A006A006A0044
:10B8E0006A006A006A006A006A006A001A0043027D
:10B8F0000E9A30880D991044C8F57A734A46FFF7BE
:10B9000011FD484619F05CF911AB804403EB0809BE
:10B910000D9B013300F0EF81864D2868F9F746FF53
:10B9200001341B2C06F10206BDD10D9D002D2ADB32
:10B930000D220A23002489F8002011A8012189F88A
:10B94000013089F80240FAF7B5F87B4A02F8AC0CEE
:10B95000002800F01D822346784C794E94F8F013AD
:10B9600042F8A83C376871B93368DB1BC72B0AD88B
:10B97000704D2868F9F71AFF94F8F0331BB9336853
:10B98000DB1BC72BF5D90D980DF2344DBDE8F08FB8
:10B9900030880E9B009418444A46C8F57A730D9976
:10B9A000FFF726FBADE70E9A30880D991044C8F5D5
:10B9B0007A734A46FFF78EFAA3E70D9A3388002A76
:10B9C000C8F57A7AC0F2FD810E9AD05A17F02AFF94
:10B9D0005C4918F02FF817F0CFFA4FF033325A4B7A
:10B9E00017F01EFB4EA3D3E9002317F019FB4FF00D
:10B9F0003332554B17F03EFC544ACDE90001514615
:10BA0000484619F023F87CE70E993388DFF850A1F7
:10BA1000C8584F4D0B440F9317F000FFDAF8001091
:10BA200017F054FF296817F047FE01464FF07E508B
:10BA300018F000F80F9B8346586817F0EFFEDAF80D
:10BA4000041017F043FF696817F036FE01464FF007
:10BA50007E5017F0EFFF0D9B002BC8F57A75C0F2F2
:10BA6000D78117F089FACDE90201584617F084FA18
:10BA7000384ACDE900012946484618F0E7FF40E77B
:10BA80000E9A30880D991044C8F57A734A46FFF72C
:10BA9000FBFC36E70E9BB6F800B003EB0B050D9BE5
:10BAA000E868002BC8F57A7AC0F2F88117F064FADA
:10BAB000CDE90601A86817F05FFACDE904016868CE
:10BAC00017F05AFACDE902010E9B53F80B0017F05C
:10BAD00053FA214ACDE900015146484618F0B6FF15
:10BAE0000FE7B6F800B00E9B0D9A5B44002AC8F52C
:10BAF0007A7A5868C0F2478217F03EFACDE902011F
:10BB00000E9B53F80B0017F037FA144ACDE90001E9
:10BB10005146484618F09AFFF3E600BFAFF30080A5
:10BB20003333333333333040C089FF1FBCA3FF1F8F
:10BB300023A3FF1FF0410020EC1900201C9EFF1FD3
:10BB40007C3F002000F0FF453333F33FD0F7020085
:10BB5000F089FF1F74F5020090F70200BCF50200A7
:10BB6000E889FF1FB6F800B00E9B0D9A5B44002ACF
:10BB7000C8F57A7A5868BFDA17F0FEF9CDE9040102
:10BB80000E9BB34D53F80B0055F8B0BC17F0F4F909
:10BB90000BF10103AF4A0093CDE902015B46514628
:10BBA000484618F053FF55F8B03C023345F8B03C16
:10BBB000A7E60E9B328898180D9B002BC8F57A716A
:10BBC000C0F237820E9B9B58426800924846A24AB8
:10BBD00018F03CFF95E60E9A30880D991044C8F590
:10BBE0007A734A46FEF7A0FE8BE635880E9B0D9AC7
:10BBF0002B44002AC8F57A7AB3F90200C0F27A81A0
:10BC000017F010FE17F0B8F90022944B17F032FB32
:10BC1000CDE902010E9B585F17F004FE17F0ACF956
:10BC200000228E4B17F026FB8D4ACDE900015146CC
:10BC3000484618F00BFF64E6B6F800B00E9B0D9A6C
:10BC40005B44002AC8F57A7A5868BFF655AF17F0FA
:10BC500093F9CDE904010E9B7D4D53F80B0055F887
:10BC6000B0BC17F089F90BF10103CDE90201009393
:10BC700051465B467B4A93E70E9B30881A180D9B12
:10BC8000002BC8F57A71C0F293810E9B55681B5E3C
:10BC9000029592F90300019092F902200092484621
:10BCA000714A18F0D3FE2CE633880E9AD0580D9BBB
:10BCB000002BC8F57A75C0F29F8117F05DF96B4AC9
:10BCC000CDE900012946484618F0C0FE19E60E9A53
:10BCD00030880D991044C8F57A734A46FEF774FD12
:10BCE0000FE60E9A30880D991044C8F57A734A46CB
:10BCF000FEF7F6FC05E65E4BDFF89881D3F800A06E
:10BD00005C4DDFF84C91DFF890B10FE0F9F7D2FE0F
:10BD100009F8AC0C2868F9F749FD554B1B68CAEBCC
:10BD20000303642B08D89BF8F0332BB998F8003044
:10BD3000012111A8002BE9D14FF000080DF14409B1
:10BD4000EBE50E9BB6F800B003EB0B050D9BE86826
:10BD5000002BC8F57A7AC0F2F58017F00DF9CDE91D
:10BD60000601A86817F008F9CDE90401686817F022
:10BD700003F9CDE902010E9B53F80B0017F0FCF814
:10BD80003D4ACDE900015146484618F05FFEB8E54E
:10BD900052F8A83C691E0D910133DDE5374A0D9933
:10BDA000D2F89020013191420D91BFF6ECAD0E9387
:10BDB00072E5334A264B0E92012243F8B02C0E9ABC
:10BDC00060E5234A0E9952F8B05CC85A6B1C42F8E1
:10BDD000B03C17F027FD2B4917F02CFE17F0CCF8DC
:10BDE0004FF03332284B17F01BF917A3D3E9002388
:10BDF00017F016F94FF03332234B17F03BFA2B466E
:10BE0000CDE90001214A5146484618F01FFE78E569
:10BE100017F0B2F8DFF838A0CDE90401584617F062
:10BE2000ABF85AF8B03C1A4ACDE90201581C009010
:10BE30002946484618F00AFE5AF8B03C02334AF840
:10BE4000B03C5EE5AFF300803333333333333040FF
:10BE5000EC19002080F5020030F6020000408F400F
:10BE6000E8F6020078F602008CF402001CF40200EE
:10BE70007C3F0020F041002074FA020024A3FF1F41
:10BE8000BCA3FF1F00F0FF453333F33FA8F70200C8
:10BE9000F8FB0200EE9BFF1F1C9EFF1F17F06CF8C3
:10BEA000CDE90A01A86817F067F8CDE908016B4BE6
:10BEB000686853F8B05C17F05FF8CDE906010E9B97
:10BEC00053F80B0017F058F8EA1CCDE904016B1C7D
:10BED000A81C02920190009351462B46604A4846A6
:10BEE00018F0B4FD5D4B5D4A53F8B03C043342F8A2
:10BEF000B03C06E517F096FC17F03EF80022594BCF
:10BF0000DFF858B117F0B6F9CDE904010E9B585F80
:10BF10005BF8B05C17F086FC17F02EF80022514B4E
:10BF200017F0A8F96B1CCDE90201009351462B468E
:10BF30004D4A484618F08AFD5BF8B03C02334BF896
:10BF4000B03CDEE417F018F8CDE90801A86817F056
:10BF500013F8CDE90601414B686853F8B05C17F05F
:10BF60000BF8CDE904010E9B53F80B0017F004F811
:10BF7000EB1CCDE90201009351462B463B4A484653
:10BF800018F064FDAEE716F0F7FFCDE904010E9B53
:10BF9000324D53F80B0055F8B0BC16F0EDFF0BF125
:10BFA0000103CDE90201009351465B46304AF7E5B3
:10BFB0005368079392F903300693284D92F902E0F3
:10BFC0000E9A55F8B03CDFF8C0C0CDF814E0105E12
:10BFD0000490DCF878200392D81C9A1C0290581C1C
:10BFE0008DE80500234A484618F030FD55F8B03C6E
:10BFF000043345F8B03C84E4184B1F4A53F8B0AC06
:10C00000B2F900201D490F920AF1010E43F8B0EC7D
:10C0100051F822B016F0B0FF0F9A0092CDE902015C
:10C02000CDF804A05B462946154A484618F00EFD97
:10C0300067E40A4D406855F8B03C02900E9882586B
:10C0400001925A1C009248460E4A18F0FFFC55F81F
:10C05000B03C023345F8B03C53E400BFEC1900207B
:10C0600050F7020000408F40B0F6020024FA0200B0
:10C07000C8F5020024F402000C4200205888FF1F7B
:10C08000F4F3020004F60200983F0020F0B5494B9B
:10C090006B216A201627142683F87110022166226C
:10C0A0000124042583F86A7083F8866003274B26F1
:10C0B00083F8570083F8590083F85B0083F85F002A
:10C0C0004FF04A0E0A2083F85C1083F85E1083F864
:10C0D000601083F8621083F8641083F8661083F8A8
:10C0E0006C10002183F8544083F86E4083F855208B
:10C0F00083F85D2083F8692083F8652083F8672042
:10C1000083F8872083F8565083F8685083F8587076
:10C1100083F85A7083F8707083F8616083F8636005
:10C1200083F86D6083F86BE083F86FE083F88850E4
:10C1300083F8892083F8732083F8752083F87720AB
:10C1400083F8792083F87B2083F87D2083F87F2093
:10C1500083F8812083F8832083F885201C705C702D
:10C16000DC705C711C729C7283F8720083F874003E
:10C1700083F8760083F8780083F87A0083F87C00EF
:10C1800083F87E0083F8800083F8820083F88400BF
:10C1900099709971D971D97219735C73D9731974C3
:10C1A00059749974D974197559759975D975197621
:10C1B0009976F0BD24A3FF1F38B50F480023194618
:10C1C000012510F8014F05FA03F2002C03F10103D9
:10C1D00008BF00221B2B1144F3D1084C237B0BB169
:10C1E00001F100610648F4F789FB21680448BDE8C5
:10C1F0003840F4F783BB00BF23A3FF1FC089FF1F94
:10C20000AC9BFF1F38B5144BB3F90030002B1EDD7B
:10C210001248F4F7CBFB124A04460023012000FA2F
:10C2200003F1214203F1010314BF012100211B2B63
:10C2300002F8011FF3D10B4D0848C4F3C0642C73FE
:10C24000F4F7B4FB2860BDE83840FBF7D1BB034AE4
:10C2500013690833136138BD0C420020AC9BFF1FEB
:10C2600023A3FF1FC089FF1FF0B5244A244BD2F837
:10C270008C40D2F89000177ED17D967D557DC9B057
:10C280001A94147D1990D07C189792F812E01791A7
:10C29000517C1696D77B1595967B1494557E1390FA
:10C2A0001C7B1868CDF848E053781191517B0F96AC
:10C2B0000C950E9410970D900B91D67A957AD479AF
:10C2C000507A117A099696790895557907941479D8
:10C2D0000690D0780591917800910190049603958D
:10C2E0000294117B0A91074A1CA8AF2118F0AEFBFB
:10C2F0001CA80021F9F7DEFB49B0F0BD24A3FF1F05
:10C30000C089FF1F24FC0200F0B5144B144C1A78AE
:10C3100098681E695D68D968277863689DB00B923C
:10C320000990A268206904930592089607950691E2
:10C330000A9716F021FECDE90201E06816F01CFE16
:10C34000084ACDE900010CA8402118F07FFB0CA899
:10C350000021F9F7AFFB1DB0F0BD00BFD489FF1F6E
:10C360005419002050FD02002DE9F04F244D9FB0DC
:10C37000002405F1080B05F1100A05F118095BF816
:10C38000240055F82470C01B17F04CFA01461D48D4
:10C3900017F050FB1C49804617F04CFB06464AF844
:10C3A0002460384617F03EFA414617F08FFA1749D5
:10C3B00017F082F9144917F03DFB074649F824703D
:10C3C000404616F0D9FDCDE90401384616F0D4FDFB
:10C3D000CDE90201304616F0CFFD2346CDE900013C
:10C3E0000B4A5A2107A818F031FB0134002107A895
:10C3F000F9F760FB022CC2D11FB0BDE8F08F00BF7F
:10C40000D889FF1F00400E440000C8420000484386
:10C4100080FD02002DE9F04F03229FB04A490546F6
:10C4200018F06CFC18B100201FB0BDE8F08F1EACF6
:10C43000281D44F8600D0A22214619F075FF434D6E
:10C440002146E8600A22069819F06EFF21466860CE
:10C450000A22069819F068FF214628610A220698E8
:10C4600019F062FF2146A8600A22069819F05CFFC5
:10C470002B78002B57D1364A1370364B4FF480225D
:10C480001A6021460A220698334E19F04DFF0030FB
:10C4900018BF0120287006F1080B06F1100A06F1FA
:10C4A000180900245BF8240056F82470C01B17F00C
:10C4B000B9F90146294817F0BDFA2949804617F015
:10C4C000B9FA05464AF82450384617F0ABF9414608
:10C4D00017F0FCF9234917F0EFF8214917F0AAFAF1
:10C4E000074649F82470404616F046FDCDE90401A0
:10C4F000384616F041FDCDE90201284616F03CFD14
:10C500002346CDE90001184A5A2107A818F09EFADF
:10C510000134002107A8F9F7CDFA022CC2D101207D
:10C520001FB0BDE8F08F60B109490B7813B9012342
:10C5300085F824300D4B01204FF4802208701A60DA
:10C540009FE7034B187098E7A0FD0200D489FF1FF6
:10C550005419002048F00F40D889FF1F00400E44B6
:10C560000000C8420000484380FD020044F00F4034
:10C57000F8B5374C2378002B54D0364D95F824303D
:10C58000002B53D16268A668A18AE38AC2EB4212EB
:10C59000C6EB461601EB521203EB561610466260CC
:10C5A000A66017F03BF9696917F090F9E96917F08F
:10C5B00083F801464FF07E5017F03CFA0746E760DB
:10C5C000304617F02BF9A96917F080F9296A17F09E
:10C5D00073F801464FF07E5017F02CFA4FF07F5160
:10C5E00005462061384617F02DFB38BB384616F05B
:10C5F000C3FC15A3D3E9002316F084FFF0B94FF074
:10C600007F51284617F01EFB40B9284616F0B4FCAF
:10C610000DA3D3E9002316F075FF30B14FF07F531F
:10C620002361F8BD0C4BE3602361F8BDA28AE68A62
:10C6300000235201760185F82430AFE74FF07F5395
:10C64000E360DCE7AFF300809A9999999999A93F43
:10C6500054190020D489FF1F0000204110B5124C4E
:10C66000124A237811780BB10231C9B21048F4F79D
:10C6700063F9E1680E48C1F3CF01F4F777F9216956
:10C680000B48C1F3CF01F4F771F961680848C1F3B1
:10C69000CF01F4F76BF9A1680548C1F3CF01BDE8FC
:10C6A0001040F4F763B900BFD489FF1F541900206C
:10C6B000AC9BFF1F2DE9F04F4E484F4D9FB0F4F754
:10C6C00087F900F00203DBB2002B14BF0122002225
:10C6D0002A7014D010F00100484B40F08380C0B2A3
:10C6E000187070B1464B434C4FF480221A60237B84
:10C6F0007BB12369083323611FB0BDE8F08F3F4A47
:10C700001370404B3B4C4FF480221A60237B002B6C
:10C71000EFD12046F4F76EF9C3002046EB60F4F742
:10C7200069F9C30020462B61F4F764F9C300204681
:10C730006B60F4F75FF9E9682F4B4CF24F32C000A1
:10C740009142A86006D83049D96045F6C0521961B7
:10C750005A609A602D4D002405F1080B05F1100A6E
:10C7600005F118095BF8240055F82470C01B17F078
:10C7700059F80146264817F05DF92649804617F01A
:10C7800059F906464AF82460384617F04BF84146F6
:10C7900017F09CF8204916F08FFF1E4917F04AF950
:10C7A000074649F82470404616F0E6FBCDE904013F
:10C7B000384616F0E1FBCDE90201304616F0DCFB0D
:10C7C0002346CDE90001154A5A2107A818F03EF981
:10C7D0000134002107A8F9F76DF9022CC2D11FB06E
:10C7E000BDE8F08F1A78002A7FF479AF012285F82E
:10C7F000242074E7AC9BFF1FD489FF1F541900202D
:10C8000044F00F4048F00F4080380100D889FF1FE6
:10C8100000400E440000C8420000484380FD020072
:10C820000E4A13786BB10E4B90B1197811B90121F2
:10C8300082F824100B4A01204FF4802118701160F7
:10C840007047074A1370084B4FF480221A607047F4
:10C850001870054B4FF480221A607047D489FF1F6F
:10C860005419002044F00F4048F00F40704700BFBB
:10C8700038B5194B1B78022B04461DD9052B1BD04C
:10C880000121052008F0F6FD0121092008F0F2FD44
:10C8900001210A2008F0EEFD1049092008F0CCFC27
:10C8A0000021052008F05EFB0021092008F05AFB5A
:10C8B00000210A2008F056FB002302222380A370E7
:10C8C0006360A360E360C4F816306383A383A37737
:10C8D00022826282A28238BDD08AFF1F0080A643D6
:10C8E000F8B5044615461E46C1B101290F460FD1C1
:10C8F00073B3182008F0BEFD84F8207025BB1C4BD4
:10C9000020221A60003518BF012584F82450F8BD94
:10C9100000211848BDE8F840F9F7CCB85BB1012117
:10C92000282008F0A7FD0123E3772946282008F0F6
:10C9300019FB6584F8BD282008F09CFDE6772820C7
:10C940000EF054F96084F8BD0B4B20221A60D9E731
:10C950001946182008F08EFD84F82060182008F091
:10C960007BFD003018BF012084F82400F8BD00BF13
:10C9700008F00F40A4FD020004F00F40F8B54C1E73
:10C980009DF91850042C1AD8DFE804F0231F1A036D
:10C9900003000C1FE4B2012C1E46174605461CD1AD
:10C9A00043BB1946182008F065FD85F82060182063
:10C9B00008F052FD003018BF012085F82400F8BDB2
:10C9C000EDB2858242838377F8BD02834377458247
:10C9D000F8BDC28203770582F8BDDBB101212820B2
:10C9E00008F048FD0123EB773946282008F0BAFA11
:10C9F0006F84F8BD2146182008F03CFD85F82040E2
:10CA000097B10B4B20221A603A1C18BF012285F8FF
:10CA10002420F8BD1946282008F02CFDEE772820A8
:10CA20000EF0E4F86884F8BD024B20221A60EBE7B0
:10CA300004F00F4008F00F4038B5002501230446EC
:10CA40000382438283822946C58205770583457721
:10CA500045838577282008F00DFDE57728200EF026
:10CA6000C5F829466084182008F004FD84F8205099
:10CA7000182008F0F1FC401B18BF012084F82400A6
:10CA800038BD00BFF0B51E4A1E4DD468906851688D
:10CA900096781378A7B0059685FB046785FB00E6BA
:10CAA000E41785FB01E5C017C917C4EB6714C0EB99
:10CAB0006610B2F912705678C1EB6511B2F91050D8
:10CAC00001950694039000910497029692F8240031
:10CAD00092F82010B2F92260D57FB2F914400A4AC8
:10CAE0000B900A910DA8642109960895079417F0F8
:10CAF000ADFF0DA80021F8F7DDFF27B0F0BD00BFA6
:10CB0000644100201F85EB51BCFD02002DE9F04778
:10CB100082B002ADDFF8288145F8041D454F084674
:10CB200001240A22294619F0FFFB0A220FFA80F994
:10CB30002946019819F0F8FB0A22294606B2019805
:10CB400019F0F2FB63B219F10002A3F1020318BF5E
:10CB5000012241B2032B17D8DFE803F00C021B1BA4
:10CB6000354BC0B298825E839A770134062C08D088
:10CB70000198D6E7304B0134062C1E835A77598230
:10CB8000F6D102B0BDE8F0872B4BDE821A7719820E
:10CB9000EBE7231F13F0FF0A1BD0BAF1010F13D1EB
:10CBA000B9F1000F36D05146182008F063FC224B33
:10CBB000202283F820A05EBBC8F80020003618BFF2
:10CBC000012683F82460D0E700211C48F8F772FFA3
:10CBD000CBE7B9F1000F0FD001212820DFF85890E2
:10CBE00008F048FC01233146282089F81F3008F05E
:10CBF000B9F9A9F82260B8E7494628200E4E08F096
:10CC000039FC282086F81F900DF0F0FF7084ACE707
:10CC10003A60D3E749461820074E08F02BFC18204D
:10CC200086F8209008F018FC003018BF012086F824
:10CC300024009AE704F00F4064410020A4FD0200A4
:10CC400008F00F4070B55F4B1B78022B82B016D9ED
:10CC5000052B14D002AC084644F8041D0A222146D4
:10CC600019F062FB431EDBB2042B45B234D96B1CB6
:10CC70000BD000215448F8F71DFF02B070BD002111
:10CC80005248F8F717FF02B070BD0A2221460198FA
:10CC900019F04AFB214606460A22019819F044FB86
:10CCA00006F58064B4F5006F8CBF002401240135C3
:10CCB000062DE8D801A353F825F000BF69CD000088
:10CCC00087CC000059CD000079CD00004DCD00008B
:10CCD0002FCD000005CD00000A222146019819F051
:10CCE00023FB214606460A22019819F01DFB032D5D
:10CCF000D6DD06F6FF7441F6FE739C428CBF00241D
:10CD00000124D4E7002C48D00121182008F0B2FB00
:10CD10002F4B012283F82020002E4ED02D4A2021B7
:10CD20001160003618BF012683F82460ABE74CB3CE
:10CD300036B201212820264C08F09CFB0123314605
:10CD40002820E37708F00EF966849CE7204BC0B2F8
:10CD500098825E839C7796E71D4B1F4ADE820021F6
:10CD600011701C7718828EE7304616F05BFD014685
:10CD7000092008F061FA86E7154B40B258821E83FD
:10CD80005C7780E721462820114D08F073FB2820AE
:10CD9000EC770DF02BFF688475E7214618200C4DC9
:10CDA00008F068FB182085F8204008F055FB00309B
:10CDB00018BF012085F8240065E7084A202111608A
:10CDC000AFE700BFD08AFF1FECFD020018FE020093
:10CDD0006441002004F00F40649DFF1F08F00F40E5
:10CDE00038B50278037F9A42044608D0002B40F001
:10CDF000D380894B196811F0800500F0F580637FBE
:10CE000062789A4208D0002B40F0C380834B1968A7
:10CE100011F0080500F0EE80A37FA2789A4208D0B6
:10CE2000002B40F0B3807D4B196811F0100500F025
:10CE3000E78023785BB17A4A7A4B1268A3FB02132E
:10CE4000DB0803EB8303A2EB4303012B11D06378D0
:10CE50005BB1734A734B1268A3FB0213DB0803EB4D
:10CE60008303A2EB4303022B3ED0A378002B69D1AE
:10CE700038BD60686C4BB4F91650B4F9101083FBE0
:10CE80000023C217A2EB63132B4483EAE372A2EBE5
:10CE9000E3728A4240F39E80002940F39B80002B7E
:10CEA00040F3B7800029D2D05F4A014482FB0132AF
:10CEB000CB17C3EB621240F2535303FB02F3002B78
:10CEC000B8BF03F2FF339B1203F2FC73B3F59B6F01
:10CED0006160C0F29B8040F618319942A8BF1946A4
:10CEE000052008F03FF8B2E7A3684F4AB4F918509C
:10CEF000B4F9120082FB0312D917A1EB62122A4483
:10CF000082EAE271A1EBE271814267DC642000FBFE
:10CF100002F04549034481FB0321DA17C2EB61119A
:10CF200040F2535202FB01F10029B8BF01F2FF3178
:10CF30008912A36001F2FC71092008F013F8A378AC
:10CF4000002B95D0364A374B1268A3FB0213DB083F
:10CF500003EB8303A2EB4303032B89D1E368324A3B
:10CF6000B4F91A50B4F9140082FB0312D917A1EBDB
:10CF700062122A4482EAE271A1EBE27181420EDD83
:10CF800000280CDD002A0DDC40420BE00123A370D9
:10CF90004FE7012363703FE7012303702FE764200D
:10CFA00000FB02F02049034481FB0321DA17C2EBA6
:10CFB000611140F2535202FB01F10029B8BF01F2A6
:10CFC000FF318912E36001F2FC710A20BDE83840AC
:10CFD00007F0C8BF642101FB03F163E7002895DD7A
:10CFE000002A96DC404294E72946052007F0BAFF64
:10CFF000257004E72946092007F0B4FF65700BE7A8
:10D0000029460A2007F0AEFFA57012E74FF49B6196
:10D0100066E7494246E700BFD0F00F4090F00F406E
:10D020007C3F0020CDCCCCCC1F85EB5110B5094CFA
:10D0300000212046F3F780FC20460021F3F796FC00
:10D0400020460021F3F75AFC20460021BDE810409D
:10D05000F3F754BCAC9BFF1F10B50A4C237B1BB1EC
:10D0600023690B33236110BD2046F3F7B1FC204642
:10D07000F3F7C0FC2046F3F799FC2046BDE81040CA
:10D08000F3F794BCAC9BFF1F08B50021142008F0F7
:10D09000F1F90021132008F0EDF90021162008F025
:10D0A000E9F90021152008F0E5F90A2008F0B0F8A8
:10D0B0000D49032008F0C0F80B49092008F0BCF81E
:10D0C0000A4B0B4A0121197002F1C0034FF47A7127
:10D0D00042F8041F9342FBD106494FF47A7243F899
:10D0E000042F8B42FBD108BD00409C46FC89FF1FEA
:10D0F00068190020E81A002038B5414B414A1B78D6
:10D10000A2F88001062BA2F8821125D80D46012134
:10D1100001FA03F313F0500204461AD0002841DB51
:10D120000021022008F068F9C4F57F610F31032067
:10D1300007F018FF002D344C29DB6078002108F03F
:10D140005BF9C5F57F61A0780F31BDE8384007F085
:10D1500009BF13F02E0F00D138BD00283ADB0220A2
:10D1600008F04AF97CBB40F6FF71032007F0FAFE95
:10D17000002D254C38DB0121607808F03DF9D5B948
:10D18000A07840F6FF71BDE8384007F0EBBE60784C
:10D19000012108F031F9A07805F6FF71BDE83840AB
:10D1A00007F0E0BE022008F027F904F6FF71032023
:10D1B00007F0D8FEBEE7C5F57C61A0780D31BDE86B
:10D1C000384007F0CFBEC4F57C610D31032007F075
:10D1D000C9FECDE71146022008F00EF9C4F1640142
:10D1E000032007F0BFFEC3E76078002108F004F9D0
:10D1F000A078C5F16401BDE8384007F0B3BE00BFB8
:10D20000D08AFF1F6C190020FC89FF1F70B54A4DA2
:10D210004A4C2B78002B77D0002839D094F98431F0
:10D22000002B7BD0464E84F88511337884F8840136
:10D23000022B4FF0010132D9052B30D0032008F02A
:10D2400019F90121022008F015F901210B2008F03D
:10D2500011F901210C2008F00DF90121042008F03A
:10D2600009F9307804280EBF36493749042007F001
:10D27000E3FF002108460C2204236A70AB70FFF71D
:10D280003BFF94F884110B20BDE8704008F0B4B85F
:10D290000029C7D094F98431002BC3D13EE0072088
:10D2A00008F0E8F80121072008F0A6F80121042081
:10D2B00008F0E0F80121032008F0DCF80121022049
:10D2C00008F0D8F801210A2008F0D4F8012108203C
:10D2D00008F0D0F81C49092007F0AEFF1A490320D6
:10D2E00007F0AAFF0021084608236B70FFF704FF30
:10D2F00094F88411042008F07FF894F885110A202E
:10D30000BDE8704008F078B800288BD094F98431DB
:10D31000002B87D10023C4F8883183E794F9853145
:10D3200013B901222B70EA7000283FF47BAF002371
:10D33000C4F8883176E700BFFC89FF1F6C19002014
:10D34000D08AFF1F0050C34600D084466A4B70B598
:10D35000188816F067FA694916F0B8FA6849044661
:10D3600016F052FC002853D121464FF08B4016F0A6
:10D3700061FB644C0546D4F88801B0F5FA7F4EDCB9
:10D3800016F050FA604B614E1B783060002B4DD187
:10D39000D4F88C11284616F099FA16F073FCD4F8DC
:10D3A000903103F10043294606B2184616F08EFA72
:10D3B00016F068FC05B2564BA4F880611B78A4F8FF
:10D3C0008251062B23D8012101FA03F313F05002F6
:10D3D0001AD0002E62DB0021022008F00DF8C6F5FD
:10D3E0007F610F31032007F0BDFD002D494C4ADB62
:10D3F0006078002108F000F8C5F57F61A0780F3152
:10D40000BDE8704007F0AEBD13F02E0F21D170BD06
:10D410003C4C414DD4F88801B0F5FA7FB0DD0021D5
:10D420000846FFF7F3FED4F88801A9E7D4F88C0189
:10D43000294600F1004016F049FA16F023FCD4F812
:10D44000901106B2284616F041FA16F01BFC05B200
:10D45000B1E7002E3ADB022007F0CEFF7EBB40F69C
:10D46000FF71032007F07EFD002D2A4C38DB0121DF
:10D47000607807F0C1FFD5B9A07840F6FF71BDE82C
:10D48000704007F06FBD6078012107F0B5FFA0780C
:10D4900005F6FF71BDE8704007F064BD022007F09B
:10D4A000ABFF06F6FF71032007F05CFD9DE7C5F5B5
:10D4B0007C61A0780D31BDE8704007F053BDC6F522
:10D4C0007C610D31032007F04DFDCDE711460220B0
:10D4D00007F092FFC6F16401032007F043FDC3E7A4
:10D4E0006078002107F088FFA078C5F16401BDE8ED
:10D4F000704007F037BD00BFEE410020B4A1013BF2
:10D500000000A0406C190020EC9DFF1FEC180020CB
:10D51000D08AFF1FFC89FF1F2781B84338B5414BD4
:10D5200014201C6807F098FF80BB132007F094FFBD
:10D530003D4B003018BF012083F89401D3F8A011AF
:10D5400093F8A801384DD3F89821611A60B9A0F179
:10D550005530A0FB02E0800900EB4000A2EB401038
:10D5600005EB8000C0F8AC1193F8AC04C3F8A041FF
:10D570002D4CA8B10021C4F8B01484F8AC1493F871
:10D58000941199BB0132C3F8982138BD132007F0DC
:10D5900063FF254BB0FA80F0400983F89401CDE792
:10D5A0002248007990B12248224DA0FB02E04009B8
:10D5B00000EB4000A942A2EB001026D91E4D54F802
:10D5C0002000A5FB0141890900FB01F145F6BF5090
:10D5D00081420FD8D3F8B00400EB40000144890821
:10D5E000C3F8B01493F894110029CBD0013AC3F8D2
:10D5F000982138BD4BF67F3081429EBFD3F8B004EE
:10D6000009184908C3F8B014B9E754F820000A4CC7
:10D6100000FB01F1A4FB0101890945F6BF508142DD
:10D62000E8D8D7E7041000E06C190020FC89FF1F40
:10D63000ABAAAAAA00A60E00D34D621038B5404B83
:10D6400016201C6807F008FF80B3152007F004FFC0
:10D650003C4B003018BF012083F89501D3F8A4118A
:10D6600093F8A801374DD3F89C21611A60B9A0F155
:10D670005530A0FB02E0800900EB4000A2EB401017
:10D6800005EB8000C0F82C1393F8AD04C3F8A44157
:10D690002C4CA8B10021C4F8B41484F8AC1493F84D
:10D6A0009511A1BB0132C3F89C2138BD152007F0AC
:10D6B000D3FE244BB0FA80F0400983F89501CDE702
:10D6C0002148007998B12148214DA0FB02E0400992
:10D6D00000EB4000A2EB00103030A94254F82000CB
:10D6E0001C4D23D9A5FB0141890900FB01F145F639
:10D6F000BF5081420FD8D3F8B40400EB400001447E
:10D700008908C3F8B41493F895110029CAD0013AD6
:10D71000C3F89C2138BD4BF67F3081429EBFD3F8C1
:10D72000B40409184908C3F8B414B8E700FB01F1C0
:10D73000A5FB0101890945F6BF508142EBD8DAE724
:10D74000041000E06C190020FC89FF1FABAAAAAAF4
:10D7500000A60E00D34D621038B5414B13201C6853
:10D7600007F07AFE80B3142007F076FE3D4B0030C0
:10D7700018BF012083F89401D3F8A01193F8A801F1
:10D78000384DD3F89821611A60B9A0F15530A0FB4B
:10D7900002E0800900EB4000A2EB401005EB8000A6
:10D7A000C0F8AC1193F8AC04C3F8A0412D4CA8B15B
:10D7B0000021C4F8B01484F8AC1493F8941199BB08
:10D7C0000132C3F8982138BD142007F045FE254BDF
:10D7D000B0FA80F0400983F89401CDE7224800793F
:10D7E00090B12248224DA0FB02E0400900EB40002E
:10D7F000A942A2EB001026D91E4D54F82000A5FB2B
:10D800000141890900FB01F145F6BF5081420FD863
:10D81000D3F8B00400EB400001448908C3F8B01409
:10D8200093F894110029CBD0013AC3F8982138BD60
:10D830004BF67F3081429EBFD3F8B00409184908E7
:10D84000C3F8B014B9E754F820000A4C00FB01F10A
:10D85000A4FB0101890945F6BF508142E8D8D7E70A
:10D86000041000E06C190020FC89FF1FABAAAAAAD3
:10D8700000A60E00D34D621038B5404B15201C6831
:10D8800007F0EAFD80BB162007F0E6FD3C4B0030B8
:10D8900018BF012083F89501D3F8A41193F8A801CB
:10D8A000374DD3F89C21611A60B9A0F15530A0FB27
:10D8B00002E0800900EB4000A2EB401005EB800085
:10D8C000C0F82C1393F8AD04C3F8A4412C4CA8B1B4
:10D8D0000021C4F8B41484F8AD1493F89511A1BBD9
:10D8E0000132C3F89C2138BD162007F0B5FD244B4A
:10D8F000B0FA80F0400983F89501CDE7214800791E
:10D9000098B12148214DA0FB02E0400900EB400006
:10D91000A2EB00103030A94254F820001C4D23D94E
:10D92000A5FB0141890900FB01F145F6BF50814289
:10D930000FD8D3F8B40400EB400001448908C3F8C1
:10D94000B41493F895110029CAD0013AC3F89C2168
:10D9500038BD4BF67F3081429EBFD3F8B40409181E
:10D960004908C3F8B414B8E700FB01F1A5FB0101B5
:10D97000890945F6BF508142EBD8DAE7041000E090
:10D980006C190020FC89FF1FABAAAAAA00A60E00F2
:10D99000D34D621000EB4000C2010848131FBC3297
:10D9A00003441044002253F8041F83420A44FAD16E
:10D9B0000348A0FB02304009704700BF181B00203D
:10D9C000ABAAAAAA19482DE9F041194FA0F51A757A
:10D9D00000244FF4FA68A0F1C0010A46002352F86F
:10D9E000046F90423344FAD1A7FB03325209A4F1E9
:10D9F000040E08FB02F2AE44844651F8046F5CF852
:10DA0000043F81423344B2FBF3F34EF8043FF4D1B8
:10DA1000C034B4F5C07F01F5C070DCD10122002311
:10DA200085F8B82485F8A831BDE8F081D41B002022
:10DA3000ABAAAAAA2DE9F04FDFF8908098F8B804B5
:10DA4000ADF57F7D002800F04882012388F8A831D9
:10DA500008F5D4732293A8F104032393184F0023ED
:10DA60002193C022002124A816F092FDC02200219B
:10DA700024A816F08DFD219B229A03EB43031C0181
:10DA80005368189393681993D3681A9313691B9377
:10DA900053691C93134692691D92DA691E921A6AA1
:10DAA0005B6A2093074B1F929B681493064B0D9360
:10DAB0004FF00009239BCDF85C90129327E000BF44
:10DAC000ABAAAA2AFC89FF1F286BEE4E6C19002016
:10DAD000DDF834A035463146504616F0B3F8149BB5
:10DAE0003146002818BF4B46504614931E4616F088
:10DAF000A9F8002800F05C814FF00103DDF8549094
:10DB00000D95DBB2B9F1300F179300F05781129BDE
:10DB100053F8040F1293189B00FB03F015F00AFA58
:10DB20000022A54B15F0A6FB09F101031D46159334
:10DB300015F06EFD87FB0532EB17C3EBE20303EB39
:10DB40004303A5EB031323440E9058F82300199BBD
:10DB500000FB03F015F0EEF90022974B15F08AFB5D
:10DB600015F056FD09F1020387FB0321DA17C2EB1A
:10DB7000E10202EB4202A3EB021323440F9058F898
:10DB800023001A9B00FB03F015F0D4F900228A4B06
:10DB900015F070FB15F03CFD09F1030387FB032131
:10DBA000DA17C2EBE10202EB4202A3EB02132344B9
:10DBB000109058F823001B9B00FB03F015F0BAF9F6
:10DBC00000227D4B15F056FB15F022FD09F10403F0
:10DBD00087FB0321DA17C2EBE10202EB4202A3EB5F
:10DBE00002132344119058F823001C9B00FB03F000
:10DBF00015F0A0F90022704B15F03CFB15F008FD64
:10DC000009F1050387FB0321DA17C2EBE10202EBFE
:10DC10004202A3EB02132344834658F823001D9BC2
:10DC200000FB03F015F086F90022634B15F022FB90
:10DC300015F0EEFC09F1060387FB0321DA17C2EBAE
:10DC4000E10202EB4202A3EB02132344824658F89E
:10DC500023001E9B00FB03F015F06CF90022564BCD
:10DC600015F008FB15F0D4FC09F1070387FB03212D
:10DC7000DA17C2EBE10202EB4202A3EB02132344E8
:10DC8000064658F823001F9B00FB03F015F052F9DD
:10DC90000022494B15F0EEFA15F0BAFC09F1080321
:10DCA00087FB0321DA17C2EBE10202EB4202A3EB8E
:10DCB00002132344054658F82300209B00FB03F081
:10DCC00015F038F900223C4B15F0D4FA15F0A0FC01
:10DCD0000E9913900F9815F0EFFC24AB20F0004044
:10DCE00053F8291015F0EAFC0F991690109815F0CA
:10DCF000E3FC169B20F00041184615F0DFFC10995C
:10DD00000F90119815F0D8FC0F9B20F00041184699
:10DD100015F0D4FC11990F90584615F0CDFC0F9BCF
:10DD200020F00041184615F0C9FC59460F905046A6
:10DD300015F0C2FC0F9B20F00041184615F0BEFC08
:10DD400051468346304615F0B7FC20F00041584656
:10DD500015F0B4FC31468246284615F0ADFC20F0A3
:10DD60000041504615F0AAFCDDF84CA006462946B5
:10DD7000504615F0A1FC20F00041304615F09EFC05
:10DD8000514605460E9815F097FC20F000412846B4
:10DD900015F094FC24AB0646014643F829600D9823
:10DDA00015F050FF00287FF493AE0D9DAA4692E631
:10DDB0009DF85C30A2E600BF00408F40002B40F091
:10DDC000BF80229B002403F1C00153F8042F994225
:10DDD0001444FAD1139815F0CFF8CDE90A010E9842
:10DDE00015F0CAF8CDE90801284615F0C5F8CDE9C7
:10DDF00006012846584915F01DFE15F0BDF852A33E
:10DE0000D3E9002315F00CF951A3D3E9002315F051
:10DE100031FA15F0FDFB15F0AFF8504BA3FB0434BD
:10DE2000CDE90401600915F0F9FC15F0A5F846A349
:10DE3000D3E9002315F0F4F845A3D3E9002315F046
:10DE400019FA15F0E5FB15F097F8454B454A9B6824
:10DE50000093CDE90201219B4FF42A7154A816F0DA
:10DE6000F5FD54A816F0ACFE54AB04461D1823AEC5
:10DE700056F8040F15F080F8C4F52A73CDE90001B7
:10DE8000394A1946284616F0E1FD284616F098FE54
:10DE900054AB04441D1953AB9E42E9D1C4F52A7119
:10DEA000324A284616F0D2FD002154A8F7F702FEA8
:10DEB0002B4B9C68002C14DD24AB2D4953F8240017
:10DEC00015F0C0FE08BB00212A48F7F7F3FD00203B
:10DED000002388F8A83188F8B9340DF57F7DBDE8B6
:10DEE000F08FF0D121462448F7F7E4FD229A219BD8
:10DEF00002F5C0722292239A0133C032022B219381
:10DF000023927FF4AEAD0120E2E7239DC022291DBC
:10DF100054A816F03FFA21462846303487FB0132D8
:10DF2000CB17C3EBE20303EB4303A1EB031354AAA8
:10DF3000013152F8233040F8043F8C42EED1D5E74E
:10DF4000074B9E603DE700BF0000000080842E412B
:10DF50000000000060E3964100004042ABAAAAAA7C
:10DF6000FC89FF1F3CFE020078C70200E8FD0200AA
:10DF700000002041A0FE020088FE02002DE9F047CB
:10DF8000854C864ED4F8BC043768854D14F0F4FFF8
:10DF900079A3D3E9002315F043F880463846894633
:10DFA00014F0EAFF76A3D3E9002315F039F802460E
:10DFB0000B464046494614F081FE15F029FB824687
:10DFC000C4F8BCA4D4F8C004766814F0D5FF6AA3E2
:10DFD000D3E9002315F024F880463046894614F032
:10DFE000CBFF67A3D3E9002315F01AF80B460246CE
:10DFF0004946404614F062FE15F00AFBEB68C4F88F
:10E00000C004002B40F08380DFF8A4918046D9F84B
:10E01000000020F0004014F0AFFF59A3D3E9002323
:10E0200015F08EFA00286CD0D9F8040020F00040DA
:10E0300014F0A2FF52A3D3E9002315F081FA0028BF
:10E040005FD027F0004014F097FF4FA3D3E90023DF
:10E0500015F076FA002854D026F0004014F08CFF1A
:10E0600049A3D3E9002315F06BFA002849D04D4BA2
:10E070001B78002B45D13946504615F01DFB20F08A
:10E08000004014F079FF42A3D3E9002315F03AFAD7
:10E09000B8B33146404615F00FFB20F0004014F0B5
:10E0A0006BFF3BA3D3E9002315F02CFA48B304F52A
:10E0B0001A7EDFF800C1774604F5AD6800263046C9
:10E0C000A7F1C002B94652F8041F59F8043FCB1A11
:10E0D000002BB8BF5B42974208441E44F3D1ACFB0F
:10E0E0000030B6EBD01F0CD207F5C077B845E5D1AC
:10E0F00094F8B90488B1FFF79DFC00212A48F7F78E
:10E10000D9FC1423EB6094F8B804BDE8F087013B18
:10E11000EB6094F8B804BDE8F087244F4FF4FA6937
:10E12000AEF1C0010B46002253F8046F7345324430
:10E13000FAD1A7FB02325209A0F1040C09FB02F24A
:10E14000A444F04651F8046F58F8043F7145334435
:10E15000B2FBF3F34CF8043FF4D1C030B0F5C07F0C
:10E1600001F5C07EDCD10122002384F8B82484F8B4
:10E17000A831C2E7AFF30080666666666666EE3F6A
:10E180009A9999999999A93F9A9999999999C93F71
:10E190009A9999999999B93F6C190020049EFF1F8B
:10E1A000FC89FF1F6C9DFF1FC0FE0200ABAAAAAA3C
:10E1B000DC9DFF1F8988888838B5164B1A79197C31
:10E1C0000AB141F00201144C94F8B8340BB141F09B
:10E1D00004011248F2F7B0FB94F8B83403B938BD23
:10E1E00030210E480E4DF2F7A7FB05F1C00455F89B
:10E1F000041F0A4889B2F2F7B9FBAC42F7D1094DC6
:10E2000054F8041F054889B2F2F7B0FBAC42F7D1CD
:10E2100038BD00BFFC89FF1F6C190020AC9BFF1F9D
:10E2200068190020E81A00202DE9F843254C204603
:10E23000F2F7CEFB00F00402074642B902F0FF03FA
:10E24000227B82B3226913442361BDE8F883204610
:10E25000F2F7BEFB237B05468BBB1B4A1B4E13719B
:10E2600007F0010798460123177486F8B93447462A
:10E2700086F8B83485B1002406EB08091148F2F796
:10E28000B9FB2F2CD8BF49F8240004F10104C8BF02
:10E2900086F8B974A542F1D108F1C008B8F5C07F7D
:10E2A000E8D1BDE8F8830849084B0A7107F0010777
:10E2B0000F7483F8B92483F8B824BDE8F88303B257
:10E2C0009B00BFE7AC9BFF1FFC89FF1F6C19002060
:10E2D000F0B51C4C1C4BE278A178586894F90050BA
:10E2E00094F90160AFB0129213911F7814F044FEBC
:10E2F000164B94F804E01B7809932C22CDE9100109
:10E300006179A068CDF83CE00B920A9208950D96D1
:10E310000C960E9114F030FECDE90601E0680495EC
:10E3200014F02AFE237C0093CDE902013B46084A03
:10E3300015A8642116F08AFB15A80021F7F7BAFB8F
:10E340002FB0F0BD541E0020108AFF1F3C88FF1F15
:10E3500008FF0200F0B51249124AB1F91600B1F9EE
:10E360000830B1F91470B1F91260B1F91050B1F977
:10E370000E409BB00690B1F90C00B1F90A10009163
:10E380000190059704960395029408A8462116F07B
:10E390005DFB08A80021F7F78DFB1BB0F0BD00BFA7
:10E3A000108AFF1F44FF0200F0B51249124AB1F96A
:10E3B0002600B1F91830B1F92470B1F92260B1F931
:10E3C0002050B1F91E409BB00690B1F91C00B1F984
:10E3D0001A1000910190059704960395029408A8DD
:10E3E000462116F033FB08A80021F7F763FB1BB0AA
:10E3F000F0BD00BF108AFF1F64FF0200F0B59BB0A4
:10E4000018BB3249324AB1F93600B1F93440B1F99A
:10E410002830B1F93270B1F93060B1F92E50069060
:10E42000B1F92C00B1F92A10059408AC01900091C3
:10E430000497039602952046462116F007FB2046D6
:10E440000021F7F737FB1BB0F0BD224C2249606971
:10E4500015F03CFA15F016FC1F490546206B15F027
:10E4600035FA15F00FFC0690E06A1B4915F02EFAFC
:10E4700015F008FC0590A06A174915F027FA15F069
:10E4800001FC0490606A144915F020FA15F0FAFBBB
:10E490000390206A104915F019FA15F0F3FB029069
:10E4A000E0690D4915F012FA15F0ECFB01900A49EC
:10E4B000A06915F00BFA15F0E5FB08AC00902B46AF
:10E4C0002046034A462116F0C1FAB8E7108AFF1F1A
:10E4D00084FF0200541E002000803B45F0B51E4919
:10E4E0001E4AB1F94800B1F93830B7B00090B1F91F
:10E4F0005640B1F94600B1F95460B1F944500E9458
:10E50000B1F952400D90B1F942000C96B1F950604A
:10E510000B95B1F940500A94B1F94E400990B1F908
:10E520003E000896B1F94C700795B1F93C6006942D
:10E53000B1F94A50B1F93A400590962110A80497D4
:10E5400003960295019416F081FA10A80021F7F7BE
:10E55000B1FA37B0F0BD00BF108AFF1FA4FF020060
:10E5600010B51A4CAEB0206D14F006FDCDE90E01C9
:10E57000E06C14F001FDCDE90C01A06C14F0FCFC82
:10E58000CDE90A01606C14F0F7FCCDE90801206CBC
:10E5900014F0F2FCCDE90601E06B14F0EDFCCDE9DE
:10E5A0000401A06B14F0E8FCCDE90201606B14F0EB
:10E5B000E3FC074ACDE9000110A8782116F046FADD
:10E5C00010A80021F7F776FA2EB010BD541E0020D7
:10E5D000E4FF0200F0B50138BBB0052828D8DFE819
:10E5E00010F0060064007800B500C90029007D49DC
:10E5F0007D4AB1F91600B1F90830B1F91470B1F9DA
:10E600001260B1F91050B1F90E400690B1F90C004A
:10E61000B1F90A10019005970496039502940091B0
:10E6200014A8462116F012FA14A80021F7F742FAAE
:10E630003BB0F0BD6B496D4AB1F94800B1F93830D3
:10E640000090B1F95640B1F94600B1F95460B1F902
:10E6500044500E94B1F952400D90B1F942000C961D
:10E66000B1F950600B95B1F940500A94B1F94E40A0
:10E670000990B1F93E000896B1F94C700795B1F9CF
:10E680003C600694B1F94A50B1F93A4005909621A0
:10E6900014A8049703960295019416F0D7F914A8CC
:10E6A0000021F7F707FA3BB0F0BD4E49504AB1F9E7
:10E6B0002600B1F91830B1F92470B1F92260B1F92E
:10E6C0002050B1F91E400690B1F91C00B1F91A10A2
:10E6D000A0E7484C4849606915F0F8F815F0D2FAFF
:10E6E00045490546206B15F0F1F815F0CBFA069078
:10E6F000E06A414915F0EAF815F0C4FA0590A06AFD
:10E700003D4915F0E3F815F0BDFA0490606A3A4906
:10E7100015F0DCF815F0B6FA0390206A364915F0CA
:10E72000D5F815F0AFFA02903349E06915F0CEF84C
:10E7300015F0A8FA01903049A06915F0C7F815F056
:10E74000A1FA2B4600902D4A14A86AE725492B4AC6
:10E75000B1F93600B1F92830B1F93470B1F932604D
:10E76000B1F93050B1F92E400690B1F92C00B1F951
:10E770002A104FE71F4C1B4BE278A1785868129281
:10E7800013911F7894F9005094F9016014F0F4FB90
:10E790001B4B94F804E01B780895CDE910012C225E
:10E7A0006179A068CDF83CE009930B920A920D962E
:10E7B0000C960E9114F0E0FBCDE90601E06804959B
:10E7C00014F0DAFB237C0093CDE902013B460D4AAD
:10E7D00014A8642116F03AF914A80021F7F76AF991
:10E7E0003BB0F0BD108AFF1F44FF0200A4FF0200EF
:10E7F00064FF0200541E002000803B4584FF02009D
:10E800003C88FF1F08FF020070B5032282B0B649A2
:10E81000044616F073FA002800F072810422B3490E
:10E82000204616F06BFA002800F0C1802046042232
:10E83000AF4916F063FA002840F0A881AD4CAE4D08
:10E84000B4F84820238FB4F908009B1A1BB223EABE
:10E85000E373C01A238314F07DFB02460B460020AD
:10E86000A64914F007FD14F0D3FEB4F84A10638FE4
:10E87000B4F90A2068635B1A1BB223EAE373D01A67
:10E88000638314F067FB02460B4600209B4914F09B
:10E89000F1FC14F0BDFEB4F84C10A38FB4F90C20B9
:10E8A000A8635B1A1BB223EAE373D01AA38314F0A4
:10E8B00051FB02460B460020904914F0DBFC14F09B
:10E8C000A7FEB4F84E10E38FB4F90E20E8635B1A8C
:10E8D0001BB223EAE373D01AE38314F03BFB024636
:10E8E0000B460020854914F0C5FC14F091FEB4F8E5
:10E8F0005010B4F84030B4F9102028645B1A1BB2F1
:10E9000023EAE373D01A238414F024FB02460B4657
:10E9100000207A4914F0AEFC14F07AFEB4F84230CC
:10E920006864B4F85220B4F912009B1A1BB223EAAF
:10E93000E373C01A638414F00DFB02460B460020FB
:10E940006E4914F097FC14F063FEB4F85410B4F858
:10E950004430B4F91420A8645B1A1BB223EAE373B1
:10E96000D01AA38414F0F6FA02460B46002063493D
:10E9700014F080FC14F04CFEB4F84630B4F8561095
:10E98000B4F91620E8645B1A1BB223EAE373D01AC9
:10E99000E38414F0DFFA02460B460020574914F0D6
:10E9A00069FC14F035FE2865012002B070BD514CA1
:10E9B000514DB4F84820238FB4F918009B1A1BB2AC
:10E9C000181A238114F0C6FA02460B4600204B4960
:10E9D00014F050FC14F01CFEB4F84A10638FB4F924
:10E9E0001A2068635B1A1BB2981A638114F0B2FA9A
:10E9F00002460B460020414914F03CFC14F008FE8E
:10EA0000B4F84C10A38FB4F91C20A8635B1A1BB296
:10EA1000981AA38114F09EFA02460B46002037494B
:10EA200014F028FC14F0F4FDB4F84E10E38FB4F9A0
:10EA30001E20E8635B1A1BB2981AE38114F08AFA6D
:10EA400002460B4600202D4914F014FC14F0E0FDA2
:10EA5000B4F85010B4F84030B4F9202028645B1AA0
:10EA60001BB2981A238214F075FA02460B46002056
:10EA7000224914F0FFFB14F0CBFDB4F84230686477
:10EA8000B4F85220B4F922009B1A1BB2181A638200
:10EA900014F060FA02460B460020184914F0EAFB15
:10EAA00014F0B6FDB4F85410B4F84430B4F924208E
:10EAB000A8645B1A1BB2981AA38214F04BFA0246A0
:10EAC0000B4600200D4914F0D5FB14F0A1FDB4F85D
:10EAD0004630B4F85610B4F92620E8645B1A1BB22D
:10EAE000981AE38255E700BF040003000800030002
:10EAF00010000300108AFF1F541E00200000F03F8A
:10EB000002AD201D45F8040D0A22294617F00CFC21
:10EB1000204E214C031C18BF012329460A220198CC
:10EB2000337017F001FC031C18BF012329460A2289
:10EB30000198237417F0F8FB031C18BF01230A2265
:10EB400029460198637117F0EFFB031C18BF0123DE
:10EB500029460198237117F029FB0A227060294683
:10EB6000019817F0E1FB0030019B18BF0120E07015
:10EB70001A78002A3FF418AF294618460A2217F0DF
:10EB8000D3FB003018BF0120A0700DE7002002B0B9
:10EB900070BD00BF108AFF1F541E00202DE9F04FEA
:10EBA000614A6249D268097989B04FF07E53019277
:10EBB0005F4A0793936599465D4B029103F13606D0
:10EBC00003F1460A03F12805584B00224FF0000BD1
:10EBD0000692C3F854B00392144636E04046002C27
:10EBE00071D0072C6FD014F0C7F9CDE9040101985A
:10EBF00014F0C2F94F4B002214F012FA00224E4BCF
:10EC000014F05CF802460B46DDE9040114F032FB17
:10EC100014F0FEFC8046494B5946404643F80780B5
:10EC200015F010F810B10123C3460393494640463E
:10EC300014F0EAFF20B10123CDF81C80C1460693F1
:10EC40000134082C05F1020536D036F8022F3AF8C7
:10EC5000023FB5F90010D31A394A01FA83F332F8AA
:10EC6000140003EBD3735B10181A2B8000B214F05E
:10EC7000D9FD344B53F8241014F028FE029B804633
:10EC8000A700002BC7D00021019814F0D1FF002865
:10EC9000A4D140460CB3072C1FD0012C29D0062C40
:10ECA00027D014F069F9CDE90401019814F064F952
:10ECB00019A3D3E900239FE7039B4BBB069B1BBB18
:10ECC00009B0BDE8F08F14F057F9CDE904010198BF
:10ECD00014F052F900221C4B8EE714F04DF9CDE9E7
:10ECE0000401019814F048F902460B4613F0E6FFC0
:10ECF00084E714F041F9CDE90401019814F03CF9DE
:10ED000007A3D3E9002377E7094B079A9A65D7E76A
:10ED1000064BC3F854B0D1E79A9999999999F93F5C
:10ED2000CDCCCCCCCCCCFC3FC89DFF1F541E0020CA
:10ED3000108AFF1F0000F83F0000F03F681E00200F
:10ED4000288AFF1F881E002000000440064B002276
:10ED50004FF07E519A650022D96583F8602083F8D0
:10ED6000612083F862207047541E00202DE9F04F87
:10ED7000DFF8A891644CD9F80030626EDFF8A0A1EA
:10ED80006249DAF804B00E689B1A4CF25032934292
:10ED900085B07BD8A76E3046394614F035FF002881
:10EDA00074D194F86020002A00F09A80E56E002D5E
:10EDB00040F09C80E368216F02931846984614F057
:10EDC0007BFC534914F082FD414614F077FCA368A4
:10EDD0000090616F03931846984614F06DFC4C49FF
:10EDE00014F074FD414614F069FC94F9013001936C
:10EDF00080463946304614F05FFC14F0BDF840A35D
:10EE0000D3E9002314F09CFB38B1D9F800306366D5
:10EE1000029B2367039BA66663670099404614F034
:10EE20004BFC3C4BDFF8E0800646B3F90400B3F935
:10EE30000030184414F0F6FC374920F0004014F07C
:10EE400045FD0146304614F037FC0646014658465B
:10EE5000A6674FF0010714F0D7FE08B94FF000077E
:10EE6000002D88F87C7001DD013DE566314658468D
:10EE700014F0CAFE10B39AF95C3001998B4202DD9E
:10EE80000B460133637005B0BDE8F08F94F8602045
:10EE9000D9F80010E768D4F80880A6660A25002390
:10EEA000E566616663702767C4F8748082B90023E1
:10EEB0000022A367C4F8803084F87C2094F90130E4
:10EEC000114A002BDFDD013B537005B0BDE8F08F28
:10EED00000970193009B3746CDF80C80029388E79A
:10EEE000E36E032BDCBF0133E366E0E794F9013006
:10EEF0000193E368D4F808800093EDE7AFF3008056
:10EF0000FCA9F1D24D62603F541E0020D89DFF1F26
:10EF100000002041489DFF1F6F12033A643F00200C
:10EF2000108AFF1F2DE9F04FB74C237C002283B0DD
:10EF300084F86020002B40F0B781B449606914F078
:10EF400063FE20BBB149A06914F05EFEF8B9AF4979
:10EF5000E06914F059FED0B9AC49206A14F054FEAF
:10EF6000A8B9AA49606A14F04FFE80B9A749A06AFF
:10EF700014F04AFE58B9A549E06A14F045FE30B9CC
:10EF8000A249206B14F040FE002800F0C581D4F89F
:10EF90001490A7699E4E012548463946C6F8009050
:10EFA000776084F8605014F02FFE002800F0C181D3
:10EFB000CA46D4F81C80C6F808804146384614F08A
:10EFC00023FE002840F0C7814146504614F03AFE27
:10EFD000B846276AF7603946404614F015FE002807
:10EFE00040F0B7814746D4F82480C6F810804146E7
:10EFF000384614F009FE002840F0A981B846A76AF7
:10F0000077613946404614F0FFFD002840F09D81AD
:10F010004746D4F82C80C6F818804146384614F08C
:10F02000F3FD08B147460625D4F830B0C6F81CB049
:10F030003946584614F006FE002840F083816E1EC3
:10F04000002E50DD04EB86037249D3F81480DFF8FC
:10F05000B8A1404614F0D8FD002840F0A881771EE2
:10F0600000F0A1810AEB87036A49D3F81480404677
:10F0700014F0CAFD002840F08C81B71E00F0938187
:10F080000AEB87036349D3F81480404614F0BCFDB3
:10F09000002840F07E81F71E00F085810AEB87038F
:10F0A0005C49D3F81480404614F0AEFD002840F0CF
:10F0B0007081371F00F077810AEB870A5549DAF82B
:10F0C0001480404614F0A0FD002840F06281052E17
:10F0D00000F07181D4F818804E49404614F094FD38
:10F0E000002840F055810123C846074601936E1C55
:10F0F000062E52DC04EB86034649D3F81490DFF861
:10F1000008A1484614F080FD002849D1AE1C072E06
:10F1100000F046810AEB86033E49D3F81490484636
:10F1200014F072FD002840F03181EE1C072E00F033
:10F1300037810AEB86033749D3F81490484614F018
:10F1400063FD002840F022812E1D072E00F028814B
:10F150000AEB86032F49D3F81490484614F054FD67
:10F16000002840F013816E1D072E00F019810AEB74
:10F17000860A2849DAF81490484614F045FD00281C
:10F1800040F00481012D08D0D4F82C902149484644
:10F1900014F03AFD002840F0F880D94606250726ED
:10F1A000019B04EB83034146586914F085FA8246BB
:10F1B00013F0E2FE12A3D3E9002314F0C1F90028F2
:10F1C00000F0D9804146134814F076FA514614F005
:10F1D00031FC8046384614F025FB0146404614F0C9
:10F1E0006DFA0D490D4F14F067FA0D4914F06EFBDE
:10F1F0003946804614F008FD14E000BFAFF30080EC
:10F20000FCA9F1D24D62503F541E00209A99993EBC
:10F21000EC180020CDCC4C3F00006040000040C006
:10F220005C8F423F002840F0A480C4F80C8004EBBF
:10F23000850548466D69294614F03EFA074613F0E5
:10F240009BFE5FA3D3E9002314F05CF9002800F0D3
:10F25000868029465C4814F02FFA394614F0EAFB00
:10F260000546304614F0DEFA0146284614F026FA28
:10F270004FF07E5114F020FA5449554D14F01CFA09
:10F28000544914F023FB2946064614F0DBFC002801
:10F2900063D1A66094F900304F4A132B46DC01334A
:10F2A000137003B0BDE8F08F4749606914F0CAFCE1
:10F2B00000287FF46CAE4449A06914F0C3FC002818
:10F2C0007FF465AE4049E06914F0BCFC00287FF48F
:10F2D0005EAE3D49206A14F0B5FC00287FF457AEBD
:10F2E0003949606A14F0AEFC00287FF450AE36490C
:10F2F000A06A14F0A7FC00287FF449AE3249E06A06
:10F3000014F0A0FC00287FF442AE2F49206B14F0CB
:10F3100099FC00287FF43BAE94F900300022002BCA
:10F32000A260E2602C4A01DD013B137003B0BDE82E
:10F33000F08F3946484614F085FC68B3BA4600257C
:10F340004F4636E6072506267CE6052561E60425B8
:10F3500055E6032547E602253BE6A5609AE73046D9
:10F3600013F0F8FD00221D4B13F0A8FC14F050F927
:10F3700082E7E7605BE7384613F0ECFD0022174BAD
:10F3800013F09AFC14F044F92BE70626751E07E7E4
:10F3900001277B1C0193AAE64F46CA46002508E6D2
:10F3A000D9460625FCE60123C84601939FE6731C57
:10F3B000019337469BE60123C8460193002796E652
:10F3C000FCA9F1D24D6250BFCDCC4C3F0000604053
:10F3D000000040405C8F423F541E00200000E03F90
:10F3E0002DE9F04F724D2A7885B052B9714B00214A
:10F3F00083F860205A709967D960996005B0BDE8BC
:10F40000F08FDFF8C4816B4CFFF7C8FBFFF78AFD74
:10F41000626ED8F800306849D5F804B00F689B1ABE
:10F420004CF2503293427AD8D4F868903846494624
:10F4300014F0EAFB002872D194F86020002A00F052
:10F44000A580E66E002E40F0A780E368216F02934E
:10F4500018469A4614F030F9584914F037FA5146D4
:10F4600014F02CF9A3680090616F039318469A4634
:10F4700014F022F9514914F029FA514614F01EF9FA
:10F4800094F90130019382464946384614F014F944
:10F4900013F072FD44A3D3E9002314F051F838B1FE
:10F4A000D8F800306366029B2367039BA7666367F7
:10F4B0000099DFF80091504614F0FEF8404B0746E3
:10F4C000B3F90400B3F90030184414F0ABF93D4926
:10F4D00020F0004014F0FAF90146384614F0ECF838
:10F4E000074601465846A7674FF0010814F08CFB09
:10F4F00008B94FF00008002E89F87C8001DD013E3C
:10F50000E6663946584614F07FFB10B395F95C3037
:10F5100001998B4225DD0B460133637021E094F89D
:10F520006020D8F80010D4F80C90D4F808A0A76692
:10F530000A260023E66661666370C4F87090C4F81A
:10F5400074A0D2B900230022A367C4F8803084F8E5
:10F550007C2094F90130174A002BC4BF03F1FF331C
:10F560005370A278134B002A3FF448AFDA689968C9
:10F57000D9609A6005B0BDE8F08FCDF80090019396
:10F58000009BB946CDF80CA002937DE7E36E032BF8
:10F59000DCBF0133E366D5E794F901300193E368FA
:10F5A000D4F808A00093EDE7FCA9F1D24D62603FCA
:10F5B000108AFF1F541E0020D89DFF1F000020410D
:10F5C000489DFF1F6F12033A643F00201C4B70B52B
:10F5D0001A7C1C4D29780AB141F002015A790AB10E
:10F5E00041F004011A790AB141F00801DA780AB150
:10F5F00041F010019B780BB141F020011248134CEF
:10F60000F1F79AF9686813F0B7FC0022104B13F079
:10F6100007FD13F0B5FFC1B20B48F1F78DF9A4F166
:10F62000100504F1100634F8021F0748F1F79EF99F
:10F6300035F8021F0448F1F799F9A642F3D170BDDD
:10F64000541E0020108AFF1FAC9BFF1F268AFF1F3D
:10F65000000024402DE9F0415E4D5F4C5F4E28468E
:10F66000F1F7B6F900F00103C0F3400EC0F3C0019A
:10F67000C0F30012C0F380072370C0F34013284684
:10F68000B37086F810E03171F2707771F1F7A0F97C
:10F6900014F0C4F8524914F0CDF92B7B6060002BB4
:10F6A00040F0938004F11605A71D04F1260849488F
:10F6B000F1F7A0F925F8020F4648F1F79BF9454507
:10F6C00027F8020FF3D1B4F91830B4F90800C01AC2
:10F6D00013F040FC02460B460020424913F0CAFDDD
:10F6E00013F096FFB4F90A20B4F91A307063D01AF7
:10F6F00013F030FC02460B4600203A4913F0BAFDE5
:10F7000013F086FFB4F90C20B4F91C30B063D01AA2
:10F7100013F020FC02460B460020324913F0AAFDEC
:10F7200013F076FFB4F90E20B4F91E30F063D01A4E
:10F7300013F010FC02460B4600202A4913F09AFDF4
:10F7400013F066FFB4F91020B4F920303064D01AF9
:10F7500013F000FC02460B460020224913F08AFDFC
:10F7600013F056FFB4F91220B4F922307064D01AA5
:10F7700013F0F0FB02460B4600201A4913F07AFD05
:10F7800013F046FFB4F91430B064B4F92400181A29
:10F7900013F0E0FB02460B460020124913F06AFD0D
:10F7A00013F036FFB4F91620B4F92630F064D01AFD
:10F7B00013F0D0FB02460B4600200A4913F05AFD15
:10F7C00013F026FF3065BDE8F0812B6920332B61F3
:10F7D000BDE8F081AC9BFF1F108AFF1F541E002064
:10F7E000000020410000F03F10B504460BF05CFF24
:10F7F000204610BD30B4054B054A0649802400253B
:10F800001C725D60181D30BC14F082BAFC1E002012
:10F810000088FF1FE9F700002DE9F047047984B064
:10F8200005460F461646002C40F0DE802B7B8846AE
:10F83000002B40F0EE802B7F002B40F0008195F8EC
:10F840002630002B40F0158195F82430002B40F035
:10F85000258195F82530002B40F03A812B7D002B37
:10F8600040F04F81AB7D002B40F0648195F92E3044
:10F87000002B40F0738195F83430002B40F08381E9
:10F8800095F83C30002B40F098812B8D002B40F0F8
:10F89000AD8195F82C30002B40F0BB81D5F88C3031
:10F8A000002B40F0CA8195F84130002B40F0D88100
:10F8B00095F84830002B40F0ED8195F93D30002B54
:10F8C0002DDD311B0139464A00934046722315F065
:10F8D000BDF8404615F074F9044407EB0408B5F987
:10F8E0003E303F4A0093311B01397323404615F0E7
:10F8F000ADF8404615F064F9044407EB040895F9A7
:10F9000040300093311B404601397423344A15F0CE
:10F910009DF8404615F054F9044407EB04083A23D7
:10F9200088F8003095F85090013408F10108B9F1D9
:10F93000000F40F0DC8295F85890B9F1000F40F0CC
:10F94000BE8295F86890B9F1000F40F0A08295F85A
:10F950006090B9F1000F40F0828295F87030002B72
:10F9600040F06B8295F86930002B40F0548295F896
:10F970006B30002B40F03D8295F87890B9F1000F84
:10F9800040F01F8295F88090B9F1000F40F001829D
:10F9900095F88890B9F1000F40F0E28195F8943025
:10F9A000002B40F0C281D5F89030002B40F0AE81A2
:10F9B00095F89590B9F1000F40F08F8195F89C3043
:10F9C000002B40F07681321B013A0649404615F083
:10F9D000E5F9404615F0F4F8204404B0BDE8F0879E
:10F9E00014020300E8FD0200006813F0C5FA612369
:10F9F000CDE90001D44A3146384615F027F838469B
:10FA000015F0DEF82B7B044607EB0008002B3FF4D3
:10FA100012AFA86813F0B0FA321BCDE900016223DF
:10FA200011464046C84A15F011F8404615F0C8F88E
:10FA30002B7F044407EB0408002B3FF400AFA869B8
:10FA400013F09AFAC4EB060909F1FF396323CDE9F3
:10FA50000001BD4A4946404614F0F8FF404615F003
:10FA6000AFF895F82630044407EB0408002B3FF468
:10FA7000EBAE95F827300093311B69230139B34A67
:10FA8000404614F0E3FF404615F09AF895F824300C
:10FA9000044407EB0408002B3FF4DBAE286A13F0A4
:10FAA0006BFAC4EB060909F1FF396723CDE90001C0
:10FAB000A54A4946404614F0C9FF404615F080F873
:10FAC00095F82530044407EB0408002B3FF4C6AE3C
:10FAD000286A13F051FAC4EB060909F1FF396823CB
:10FAE000CDE90001984A4946404614F0AFFF404630
:10FAF00015F066F82B7D044407EB0408002B3FF457
:10FB0000B1AE286913F038FAC4EB060909F1FF39E0
:10FB10006423CDE900018C4A4946404614F096FF23
:10FB2000404615F04DF8AB7D044407EB0408002B6C
:10FB30003FF49CAE6B7D0093311B66230139834AF1
:10FB4000404614F083FF404615F03AF895F92E3000
:10FB5000044407EB0408002B3FF48DAE95F92D30DB
:10FB60000093311B6C230139784A404614F06EFF34
:10FB7000404615F025F895F83430044407EB0408A6
:10FB8000002B3FF47DAE286B13F0F6F9C4EB0609A9
:10FB900009F1FF396D23CDE900016B4A4946404622
:10FBA00014F054FF404615F00BF895F83C3004442F
:10FBB00007EB0408002B3FF468AEA86B13F0DCF9E8
:10FBC000C4EB060909F1FF396B23CDE900015E4A58
:10FBD0004946404614F03AFF404614F0F1FF2B8DA1
:10FBE000044407EB0408002B3FF453AE311B009391
:10FBF00001396A23554A404614F028FF404614F064
:10FC0000DFFF95F82C30044407EB0408002B3FF489
:10FC100045AE6B8D0093311B6E2301394B4A404634
:10FC200014F014FF404614F0CBFFD5F88C30044498
:10FC300007EB0408002B3FF436AE311B009301396B
:10FC40007023434A404614F001FF404614F0B8FFC9
:10FC500095F84130044407EB0408002B3FF428AE2C
:10FC6000686C13F089F9C4EB060909F1FF397123B7
:10FC7000CDE90001344A4946404614F0E7FE4046CB
:10FC800014F09EFF95F84830044407EB0408002B5D
:10FC90003FF413AE311B0093013975232B4A4046C4
:10FCA00014F0D4FE404614F08BFF044407EB040824
:10FCB00003E695F89D200093311BA2F141030193C7
:10FCC00001394F23234A404614F0C0FE404614F049
:10FCD00077FF044407EB040875E6D5F8980013F0A5
:10FCE0004BF9C4EB060A0AF1FF3ACDE902014D23B4
:10FCF0005146194ACDF80090404614F0A7FE404600
:10FD000014F05EFF044407EB040857E6311B009330
:10FD100001394B230E4A404614F098FE404614F039
:10FD20004FFF044407EB040842E6311B01394C2322
:10FD30000A4A404614F08AFE404614F041FF04444B
:10FD400007EB04082FE600BF0002030014020300C3
:10FD50001800030028000300200003003000030007
:10FD6000D5F8840013F008F9C4EB060A0AF1FF3A4B
:10FD7000CDE902014A235146694ACDF80090404638
:10FD800014F064FE404614F01BFF044407EB040823
:10FD900004E6E86F13F0F0F8C4EB060A0AF1FF3A44
:10FDA000CDE90201492351465D4ACDF80090404615
:10FDB00014F04CFE404614F003FF044407EB040823
:10FDC000E6E5686F13F0D8F8C4EB060A0AF1FF3ACB
:10FDD000CDE9020148235146514ACDF800904046F2
:10FDE00014F034FE404614F0EBFE044407EB040824
:10FDF000C8E595F86C200192311B00930139472327
:10FE0000484A404614F022FE404614F0D9FE04440D
:10FE100007EB0408B0E595F96A200192311B0093C5
:10FE2000013946233F4A404614F010FE404614F084
:10FE3000C7FE044407EB040899E5B5F86E2001926B
:10FE4000311B009301394423364A404614F0FEFD2D
:10FE5000404614F0B5FE044407EB040882E5E86D63
:10FE600013F08AF8C4EB060A0AF1FF3ACDE9020161
:10FE7000432351462A4ACDF80090404614F0E6FD4F
:10FE8000404614F09DFE044407EB040865E5686EE7
:10FE900013F072F8C4EB060A0AF1FF3ACDE9020149
:10FEA000422351461E4ACDF80090404614F0CEFD44
:10FEB000404614F085FE044407EB040847E5686DEE
:10FEC00013F05AF8C4EB060A0AF1FF3ACDE9020131
:10FED0004E235146124ACDF80090404614F0B6FD2C
:10FEE000404614F06DFE044407EB040829E5E86C75
:10FEF00013F042F8C4EB060A0AF1FF3ACDE9020119
:10FF000041235146064ACDF80090404614F09EFD2C
:10FF1000404614F055FE044407EB04080BE500BF0F
:10FF2000200003002800030030B400230022FF2536
:10FF300001240570847681828375C375436080F8DF
:10FF40002E30C361036280F8243002610263C26014
:10FF5000426330BC704700BF70B490F90060857D8B
:10FF6000AE422ADA013676B20029067019DDC5B133
:10FF7000C27D184BA42404FB0234248D8C4225D06E
:10FF800002EB820402EBC40203EB8202002305E0D1
:10FF9000B2F8CC408C4202F1A40213D001339D424E
:10FFA000F6D1B5420BDDC27D0A4B1644A42202FBFA
:10FFB00006368662012070BC70470029D7DC00201D
:10FFC00070BC70475BB21E460370EAE700263346FA
:10FFD0000370E6E7181F0020817D99B110B4C37D3E
:10FFE000094A03EB83041944A42003EBC40300FB78
:10FFF000012102EB83030022C3F8A020A4338B422B
:020000021000EC
:10000000FAD110BC704700BF181F0020012380F8F0
:100010002E3070472DE9F041847D002C41D0224FD5
:100020000025A4264FF0010CC47D2C4406FB047E61
:100030009EF82480B8F1000F0ED19EF82580B8F10B
:10004000000F09D19EF86B80B8F1000F04D19EF823
:1000500026E0BEF1000F01D081F800C006FB047E4F
:100060009EF87880B8F1000F0ED19EF88080B8F12C
:10007000000F09D19EF92E80B8F1000F04D19EF82F
:1000800034E0BEF1000F01D082F800C006FB04741A
:1000900094F848400CB183F800C0847D0135AC422F
:1000A000C2DCBDE8F08100BF181F00202DE9F0413F
:1000B00082B0B0F9143000930D46064611466F2306
:1000C00017462846174A14F0C1FCF3690446B3B931
:1000D000336A63B12E19391B02390093124A4B233C
:1000E000304614F0B3FC304614F06AFD0444601C42
:1000F0000A2200232A552B5402B0BDE8F08105EBFB
:100100000008391A009302397023084A404614F057
:100110009DFC404614F054FD336A0444002BE6D0A5
:10012000D8E700BF140203003400030018000300E6
:100130002DE9F041A4B003AD29461E220646FFF783
:10014000B5FF284614F03CFDB6F914301D4A8DE881
:10015000210064210BA814F079FC0BA80021F5F70D
:10016000A9FCB37D33B3DFF868800024A42714E032
:100170008DF80C30284614F023FD23468DE821002D
:10018000114A64210BA814F061FC00210BA8F5F7BB
:1001900091FCB37D0134A3420CDDF07D204407FBCC
:1001A000008090F89E30002BE2D01E222946FFF7F7
:1001B00033FBDFE700210548F5F77CFC24B0BDE800
:1001C000F08100BF3C00030060000300500003000A
:1001D000181F00200023037303750377037180F851
:1001E000243080F8253080F82630837580F82C3054
:1001F00080F83C3080F82E3080F834300385C0F829
:100200008C3080F83D30C38780F8413080F8503022
:1002100080F8683080F8603080F8703080F869309D
:1002200080F86B3080F8783080F8803080F8883043
:10023000C0F8903080F8943080F8953080F84030E5
:1002400080F8583080F89C3080F89E30C0F8A0309C
:1002500080F84830704700BF2DE9F04F0D468BB055
:1002600090F860109DF854B001930446924621BB6B
:1002700090F85030002B6ED0D4F890206649D1F819
:100280001C110A424ED0149A4B231370012094F88B
:100290002C307BB1B4F86E30D4F8A0209A4202DD45
:1002A00094F8703013B9002800F0C5820023C4F818
:1002B000A03001200BB0BDE8F08F574BD0F8902054
:1002C000D3F81C311A42DED1544B696BD3F8088045
:1002D000404613F0F1F9814612F04EFE48A3D3E9EF
:1002E000002306460F4613F02BF9002850D146A3F1
:1002F000D3E900233046394613F004F948B144A34A
:10030000D3E900233046394612F0D8FC13F080F9C7
:100310008146286B494613F0D1F9C5F8348028632B
:1003200094F85030002B4DD03C2B3D4BE9681868B9
:1003300039D013F0C1F9E16C20F0004013F078FCE3
:100340004FF00103002839D0DBB2002B3AD0149AC9
:10035000412313709AE7826E32F47F028CD190F8B9
:100360007820002A88D190F88020002A84D1D0F803
:100370009020002A82D190F888301BBB90F89430EE
:1003800003BB90F82C30EBB901200BB0BDE8F08F27
:100390001FA3D3E900233046394612F08DFC13F039
:1003A00037F98146B5E713F087F9E16C20F000409A
:1003B00013F02AFC4FF001030028C5D10346DBB23D
:1003C000002BC4D194F85830002B3ED03C2B154B59
:1003D0005968186828D013F071F94FF07C5113F068
:1003E00075FA616D13F024FC4FF0010348B3DBB2E2
:1003F0005BB3149A4E23137048E700BFAFF300803D
:10040000182D4454FB210940182D4454FB2109C0E8
:10041000182D4454FB21194040400020C89DFF1F67
:10042000D89DFF1F049EFF1F13F048F94FF07C5129
:1004300013F04CFA616D13F0E7FB4FF00103002855
:10044000D5D10346DBB2002BD3D194F86830002B12
:1004500040F0CE8194F86030002B00F0B8809A4BC9
:100460009A495E6FE36D049330461F4613F0CCFB50
:10047000002800F0DD81304612F07EFD8EA3D3E926
:100480000023CDE9020113F05BF8002800F0D081D1
:100490008F49384613F0CEFA12F06EFD88A3D3E9E7
:1004A000002312F0BDFD13F0B3F88A4B1F6820F053
:1004B00000433846059312F05FFD874B804689461E
:1004C0003846196813F002FA12F056FD834BCDE955
:1004D0000601186812F050FD0022CDE90801804B9A
:1004E0004046494612F09CFD02460B46DDE90801F4
:1004F00012F0E4FB02460B46DDE9060112F0BAFEFB
:1005000013F086F8314613F095FA12F035FD00220B
:1005100006460F46724BDDE9020112F081FD3246BC
:100520003B4612F07DFD32463B4612F079FD4246D5
:100530004B4612F09FFE13F06BF812F01DFDDDF834
:100540001480064640460F4612F016FD0022644B0A
:1005500012F066FD02460B463046394612F0F0FFB7
:10056000002840F0A681286B20F0004012F004FD26
:10057000049B8046894623F00040554913F05AFAFF
:1005800012F0FAFC4EA3D3E9002312F049FD3246E3
:100590003B4612F091FB02460B464046494612F09C
:1005A000CFFFA0B1019901220A70149A432313705E
:1005B0006CE694F86030002B7FF451AF42464B4616
:1005C0003046394612F09EFF00287FF45FAE94F863
:1005D00069309BB13C2B434A00F034813E2B92F9A9
:1005E000002094F96A3000F073819B1AB3FA83F308
:1005F0005B091BB1149A4623137047E694F86B30DD
:100600009BB13C2B00F027813E2B374B94F86C209C
:1006100093F9003000F057819B1AB3FA83F35B091A
:100620001BB1149A4723137030E694F87830CBB19D
:100630003C2B2E4B616F18680AD013F0F9FA4FF07B
:10064000010358B1DBB26BB1149A482313701DE655
:1006500013F0DAFA4FF001030028F3D10346DBB2BE
:10066000002BF1D194F88030CBB13C2B1F4BE16FC4
:1006700058680AD013F0DCFA4FF0010358B1DBB22E
:100680006BB1149A4923137000E613F0BDFA4FF0D2
:1006900001030028F3D10346DBB2002BF1D194F81B
:1006A00094303BB3124B1B7823B3149A4C23137032
:1006B000ECE500BFAFF300809A9999999999B93FF9
:1006C000182D4454FB210940983F00200000C842E7
:1006D000000034434088FF1F889DFF1FAC9DFF1F13
:1006E0000000E03F551E0020541E0020601900202D
:1006F000B8A3FF1F94F888302BB13C2B00F0BC80CE
:100700003E2B00F0CA8094F89530002B55D03C2B3E
:1007100045D03E2B864B00F0E7809968D4F89800CE
:1007200012F0CAFF054612F027FC79A3D3E9002393
:1007300006460F4612F004FF68B177A3D3E9002301
:100740003046394612F0B8FA12F062FF054612F050
:1007500013FC06460F4672A3D3E900233046394600
:1007600012F0D0FE48B16CA3D3E9002330463946DD
:1007700012F0A4FA12F04CFF054625F0004012F0EA
:10078000FBFB69A3D3E9002312F0BCFE4FF0010389
:1007900078B1DBB28BB1149A4D23137076E5644BBC
:1007A000D4F89810986813F02FFA4FF0010300283E
:1007B000EFD10346DBB2002BEDD194F89C0000286A
:1007C0003FF465AD212850D03C2800F086803E28BB
:1007D00094F89D0000F09480CBEB0000B0FA80F01C
:1007E000400900283FF453AD149A4F2313704EE58F
:1007F000606E12F0C1FB4F4A6B6806461068C01A63
:100800000F4613F00BF812F0B7FB00224A4B12F020
:1008100031FD8046894602460B463046394612F085
:1008200071FE00283FF4C5AE149A422313702DE5E3
:100830000026002797E6638DAAF8003001200BB050
:10084000BDE8F08F94F96A3092F900209342D4BF4A
:1008500000230123CDE6394B94F86C2093F9003046
:100860009342ACBF00230123DAE694F89D00B0EB7D
:100870000B0018BF0120B4E72D4BD4F88410D868C2
:1008800013F0C2F94FF0010388B1DBB2002B3FF443
:100890003AAF149A4A231370F8E4254BD4F8841025
:1008A000D86813F0C5F94FF001030028EDD10346D5
:1008B000EBE74FF07C51404613F008F812F05CFB78
:1008C00006460F464FE69342D4BF00230123A7E616
:1008D0009342ACBF002301238BE694F89D0058455A
:1008E0002CBF002001207CE79868D4F8981013F002
:1008F000A9F94FF0010300287FF44BAF034659E7F5
:10090000584594BF002001206BE700BFAFF3008083
:10091000182D4454FB210940182D4454FB21194043
:10092000182D4454FB2109C0D5EB7BF3E9CEAA3F37
:10093000C89DFF1F7C3F002000408F40541E0020B8
:100940002DE9F04190F860300446002B31D190F849
:100950002450002D00F09D8094F895303D2B00F040
:10096000AB80674A674B92681A60002D40F08B801D
:1009700094F82530002B40F08680237F002B40F038
:10098000B08094F92E3023B15F49604A00230B7088
:1009900013705F48F6F746FB94F83C30002B00F0EC
:1009A00087805C4A5C4B0021116000221A70BDE810
:1009B000F08190F895303D2B7CD0002A00F08E809D
:1009C000E06DDFF840810D4612F0D6FA46A3D3E978
:1009D000002312F025FB0022504B12F04BFC064680
:1009E00028460F4612F0C8FA02460B4630463946F2
:1009F00012F064F912F00CFEC8F8000012F0BCFA14
:100A000039A3D3E9002306460F4612F099FDB0B191
:100A100037A3D3E900233046394612F04DF912F0DE
:100A2000F7FD054612F0A8FA2FA3D3E900230646E6
:100A30000F4612F085FD0028EAD1C8F800502EA319
:100A4000D3E900233046394612F05CFDB0B128A34B
:100A5000D3E900233046394612F030F912F0D8FDC0
:100A6000054612F089FA24A3D3E9002306460F466F
:100A700012F048FD0028EAD1C8F8005094F824503C
:100A8000002D3FF475AF264B00221A70FEF75EF979
:100A900077E790F82530002B7FF45EAF037F002BC3
:100AA0007FF45AAF90F92E30002B7FF455AF73E7E7
:100AB000BDE8F08190F82450D4F89800114E12F05F
:100AC0005BFA09A3D3E9002312F0AAFA0022134B20
:100AD00012F0D0FB12F09CFD306046E794F82450F1
:100AE0003FE7104B1D704CE7182D4454FB21094083
:100AF000182D4454FB211940182D4454FB2109C0E2
:100B0000C89DFF1F689DFF1F8C9DFF1F3488FF1F1E
:100B1000983F0020889DFF1F8D9DFF1F008066402D
:100B2000A69DFF1FA79DFF1F2DE9F041037D92B0F9
:100B3000064623B1AA4B1C78002C00F0E58096F8FD
:100B4000481029B1A74C94F87F50002D00F0148173
:100B5000B37D13B1A44B727D1A7096F92E30002B21
:100B600040F0F480337913B1A04B32681A6096F8E4
:100B70003C305BB19E4B9F489F4CA0491A7805685A
:100B8000B06B25600860002A00F01281B36E13F08C
:100B9000FF2F40F0CD8096F82430002B00F0C2806B
:100BA000974A01211170974D974C984996F8262045
:100BB000306A2B700123237008601AB1944B96F8A9
:100BC00027201A70337F43B192489349934BB469FD
:100BD000F26D0460012008701A60337B7BB1B46849
:100BE0008F49804D204613F00FF82A464FF001033D
:100BF00000B9034624F000446C6782F84030D6F810
:100C00008C20FAB100240127DFF8408204E001348F
:100C1000202C17D0D6F88C2007FA04F31342F6D014
:100C2000D8F81C517F4A1D431421234605A8C8F853
:100C30001C51013413F00AFF05A80021F4F73AFF14
:100C4000202CE7D196F93D10002908DD96F94030B7
:100C5000B6F93E20744800930123FBF78FFE96F807
:100C60004130002B4DD0706C704F12F085F956A3B7
:100C7000D3E9002312F0D4F900226D4B12F0FAFAF6
:100C800012F0C6FC386012F077F94FA3D3E90023C5
:100C900004460D4612F04AFCA8B14DA3D3E9002347
:100CA0002046294612F008F812F0B2FC064612F06F
:100CB00063F945A3D3E9002304460D4612F036FC40
:100CC0000028EAD13E6044A3D3E900232046294608
:100CD00012F018FCA8B13EA3D3E900232046294610
:100CE00011F0ECFF12F094FC064612F045F93AA31D
:100CF000D3E9002304460D4612F004FC0028EAD193
:100D00003E6012B0BDE8F08105690021284612F06E
:100D100099FF002853D0284612F0B4FF2146F9F776
:100D2000E3F80CE796F82520002A7FF439AF49E76D
:100D3000334A96F8243001211170002B7FF433AF31
:100D400096F82520002A3FF43DAF2CE70120FBF761
:100D500067FD96F92D30374A012B117878D000299C
:100D600077D196F8342022B133483449326B02608F
:100D70000A60334A1370F5E696F841202046F6F7EC
:100D8000A1FD304B96F848001B6896F8411001937E
:100D9000D4E922230091CDE90223322103462A4AD5
:100DA00005A813F053FE294605A8F4F783FECFE605
:100DB0000C49012248691A70F0F732FFE6E6F9F7AC
:100DC000F1F8BCE6AFF30080182D4454FB21094034
:100DD000182D4454FB211940182D4454FB2109C0FF
:100DE000B8A3FF1F983F00206C9DFF1F889DFF1F29
:100DF0008D9DFF1FD89DFF1F9C9DFF1FA09DFF1F66
:100E0000108AFF1F3C88FF1FA69DFF1F989DFF1F94
:100E1000641E0020AC9DFF1FA79DFF1FB09DFF1FFC
:100E20000000C842AC00030064410020689DFF1F21
:100E3000008066403488FF1F3888FF1F949DFF1F85
:100E40008C9DFF1FC089FF1F7400030040400020DD
:100E500041B108490023C8681370F0F7E1FE96F924
:100E60002D307EE7034913700869F0F7D9FE96F933
:100E70002D3076E7983F002070B5044690F90000C9
:100E8000E37D1C491C4A0344A42000FB0310A0621C
:100E9000D0F8A03012780133C0F8A03022BB174B35
:100EA0001B780BBB164A94F90030D2F8102F9342EE
:100EB00011DA1449144A154B0E681B6815686363F0
:100EC000002100222361E660656021632272FFF742
:100ED0002BFE94F900300E490E4A0F4DA08AA66AE7
:100EE000087013702E6070BD0C4A084B92681A602F
:100EF000D8E700BF181F00203488FF1FA69DFF1FE2
:100F000010300020D89DFF1F7C3F0020689DFF1FF0
:100F1000799DFF1F849DFF1F7C9DFF1FC89DFF1FA4
:100F2000827D002A55D0F8B5C37D2C4D03EB830498
:100F30001A44A42103EBC40301FB025205EB830313
:100F40000024C3F8A040A43393424FF00001F8D12D
:100F5000837E017080F82E1003B9F8BDC37D204A4E
:100F6000A42101FB03558562D5F8A0301278013326
:100F7000C5F8A030A2B11B4A1B4B92681A601B4AED
:100F800090F90030D2F8102F934204460DDB184937
:100F9000184A194DA08AA66A087013702E60F8BD11
:100FA000164B1B78002BEAD0E5E71549154A0E4B86
:100FB0000F681B68166843630021002223612846DE
:100FC000E760666021632272FFF7AEFD94F900309E
:100FD000DDE7027080F82E20704700BF181F002048
:100FE0003488FF1FC89DFF1F689DFF1F1030002021
:100FF000799DFF1F849DFF1F7C9DFF1FA69DFF1FE6
:10100000D89DFF1F7C3F002090F82E300BB1184672
:10101000704770B50446027A0169806AFFF790FC58
:1010200094F90000A57DB4F92C60A8425BDA013088
:1010300040B2002E207019DDC5B1E27D344BA421F1
:1010400001FB0231098D8E425DD002EB820102EB81
:10105000C10203EB8202002305E0B2F8CC10B142DA
:1010600002F1A4024BD001339D42F6D185423CDD12
:10107000E17D274B274A0844A42101FB00300023CF
:10108000A06284F82E30D0F8A03012780133C0F876
:10109000A030002A2ED1204B1B785BBB1F4B94F94C
:1010A0000020D3F8103F9A4211DA1D491D4A1E4B09
:1010B0000E681B6815686363002200212272236199
:1010C000E66065602163FFF72FFD94F90020174B60
:1010D000A08A17491870174D94F82E30A66A0A7026
:1010E0002E60184670BD002EA6DC012384F82E3039
:1010F000184670BD104A0C4B92681A60CEE75BB27E
:1011000018462370B2E7002003462370AEE700BF05
:10111000181F00203488FF1FA69DFF1F10300020DD
:10112000D89DFF1F7C3F0020689DFF1F799DFF1FFA
:10113000849DFF1F7C9DFF1FC89DFF1F70B5044647
:10114000807E4B4B84B038BBE269D3F81C311A4225
:101150002ED194F82E30E3B994F90010A27D91427B
:1011600017DAB8B104AA202102F8011D94F824105E
:10117000A385A06A0092019104F1080304F12C02F6
:101180002146FFF769F828B1A36A93F82C30002BA9
:1011900063D0012004B070BD226AD3F81C311A421A
:1011A000D7D000200123A07684F82E3004B070BD83
:1011B000A27D0123A376002A55D0E37D2D4D03EBBC
:1011C00083061A44A42103EBC60301FB025205EB7C
:1011D0008303C3F8A000A43393424FF00001F8D179
:1011E000E37D2170A42000FB035084F82E10A06240
:1011F000214AD0F8A03012780133C0F8A0303AB3B9
:101200001E4A1F4B92681A601E4A94F90030D2F8A9
:10121000102F934211DA1C491C4A194B0E681B68A7
:1012200015686363002100222361E6606560216325
:101230002272FFF779FC94F90030154D1549164AD2
:10124000A08AA66A08702E6094F82E001370A1E799
:10125000124B1B78002BD7D0D2E79DF80F3084F8C3
:101260002430012096E7227084F82E20104691E762
:1012700040400020181F00203488FF1FC89DFF1F1A
:10128000689DFF1F10300020D89DFF1F7C3F00206D
:101290007C9DFF1F799DFF1F849DFF1FA69DFF1F43
:1012A0002DE9F04F894685B090F89E1003930646CD
:1012B0009246002900F0C883002B40F057841C465A
:1012C0004D461F463379002B40F0D283337B8BB1E0
:1012D000B06811F051FEC4EB0A03CDE90001BD4A2C
:1012E0001946284613F0B2FB284613F069FC044463
:1012F00009EB0405337FABB1032C00F3F483B06931
:1013000011F03AFEC4EB0A07013FCDE90001B24AF1
:101310003946284613F09AFB284613F051FC044442
:1013200009EB040596F82430ABB1032C00F3D68307
:10133000306A11F021FEC4EB0A07013FCDE900013C
:10134000A64A3946284613F081FB284613F038FC9C
:10135000044409EB040596F82530ABB1032C00F3E7
:10136000B883306A11F008FEC4EB0A07013FCDE9EB
:1013700000019B4A3946284613F068FB284613F0C3
:101380001FFC044409EB040596F826308BB1032CAE
:1013900000F39A83C4EB0A01013996F82730914A89
:1013A000284613F053FB284613F00AFC044409EBCB
:1013B0000405337DABB1032C00F3BE83306911F01B
:1013C000DBFDC4EB0A07013FCDE90001864A39463F
:1013D000284613F03BFB284613F0F2FB044409EBCC
:1013E0000405B37D83B1032C00F3A183C4EB0A0190
:1013F0000139737D7D4A284613F028FB284613F0F7
:10140000DFFB044409EB040596F92E308BB1032C65
:1014100000F38883C4EB0A01013996F92D30744A30
:10142000284613F013FB284613F0CAFB044409EBCB
:10143000040596F83430ABB1032C00F36E83306BA7
:1014400011F09AFDC4EB0A07013FCDE90001694A9A
:101450003946284613F0FAFA284613F0B1FB044443
:1014600009EB040596F83C30ABB1032C00F3508334
:10147000B06B11F081FDC4EB0A07013FCDE900011B
:101480005D4A3946284613F0E1FA284613F098FBE6
:10149000044409EB040596F84130ABB1032C00F38A
:1014A0003283706C11F068FDC4EB0A07013FCDE98F
:1014B0000001524A3946284613F0C8FA284613F06C
:1014C0007FFB044409EB040596F84800C0B1032CE7
:1014D00000F3F38211F03EFD494B002211F0CAFEE9
:1014E000C4EB0A07013FCDE90001464A39462846C8
:1014F00013F0ACFA284613F063FB044409EB04052F
:1015000096F93D30002B34DD032C00F3CF82C4EB81
:101510000A0101393C4A284613F098FA284613F08C
:101520004FFB20442C27451C09F8007009EB0504EB
:10153000C5EB0A010139B6F93E30344A204613F0B2
:1015400085FA204613F03CFB2844441C09F800703F
:1015500009EB0405C4EB0A012846013996F940302D
:101560002B4A13F073FA284613F02AFB044409EBC4
:101570000405338D7BB1032C00F3BF82C4EB0A0159
:101580000139244A284613F061FA284613F018FB63
:10159000044409EB040596F82C3083B1032C00F3C6
:1015A000A782C4EB0A010139738D1B4A284613F048
:1015B0004DFA284613F004FB044409EB0405D6F861
:1015C0008C00002848D000274FF001084FF02C0B6A
:1015D00026E000BFD8000300E0000300E80003009D
:1015E000F4000300000103000C01030014010300D8
:1015F0001C01030028010300340103004001030023
:101600000000594048010300540103006001030039
:101610006C0103007801030084010300D6F88C00FC
:10162000C84A08FA07F101423B4607F1010711D009
:10163000032C03DD85F800B001340135C4EB0A0149
:101640000139284613F002FA284613F0B9FA044487
:1016500009EB0405202FE1D13A232B7096F850B006
:10166000013405F10108BBF1000F40F06A8296F8E1
:1016700058B0BBF1000F1FD0C5EB0803012B07DDED
:101680002C2388F8003096F858B0013408F101088E
:10169000706D11F071FCC4EB0A07013FCDE9000148
:1016A0005B46A94A3946404613F0D0F9404613F04C
:1016B00087FA044409EB040896F868B0BBF1000F00
:1016C0001FD0C5EB0803012B07DD2C2388F8003061
:1016D00096F868B0013408F10108706E11F04CFC06
:1016E000C4EB0A07013FCDE900015B46974A394642
:1016F000404613F0ABF9404613F062FA044409EB9C
:10170000040896F860B0BBF1000F1FD0C5EB0803CA
:10171000012B07DD2C2388F8003096F860B00134E7
:1017200008F10108F06D11F027FCC4EB0A07013F36
:10173000CDE900015B46864A3946404613F086F9FA
:10174000404613F03DFA044409EB040896F8703063
:10175000DBB1C5EB0802012A07DD2C2388F8003035
:1017600096F87030013408F10108B6F86E20009246
:10177000C4EB0A010139774A404613F067F9404645
:1017800013F01EFA044409EB040896F86930DBB143
:10179000C5EB0802012A07DD2C2388F8003096F8F3
:1017A0006930013408F1010896F96A200092C4EB0F
:1017B0000A010139684A404613F048F9404613F0DF
:1017C000FFF9044409EB040896F86B30DBB1C5EB74
:1017D0000802012A07DD2C2388F8003096F86B30C8
:1017E000013408F1010896F86C200092C4EB0A015C
:1017F00001395A4A404613F029F9404613F0E0F9FE
:10180000044409EB040896F878B0BBF1000F1FD030
:10181000C5EB0803012B07DD2C2388F8003096F870
:1018200078B0013408F10108706F11F0A5FBC4EB2A
:101830000A07013FCDE900015B46494A3946404667
:1018400013F004F9404613F0BBF9044409EB040813
:1018500096F880B0BBF1000F1FD0C5EB0803012B39
:1018600007DD2C2388F8003096F880B0013408F1A9
:101870000108F06F11F080FBC4EB0A07013FCDE9CE
:1018800000015B46374A3946404613F0DFF84046D0
:1018900013F096F9044409EB040896F888B0BBF1FC
:1018A000000F20D0C5EB0803012B07DD2C2388F89F
:1018B000003096F888B0013408F10108D6F88400A9
:1018C00011F05AFBC4EB0A07013FCDE900015B466A
:1018D000254A3946404613F0B9F8404613F070F9EE
:1018E000044409EB040896F895B0BBF1000F20D032
:1018F000C5EB0803012B07DD2C2388F8003096F890
:1019000095B0013408F10108D6F8980011F034FBC5
:10191000C4EB0A07013FCDE900015B46134A394693
:10192000404613F093F8404613F04AF9044409EB9B
:101930000408D6F8900000283BD000274FF0010B98
:1019400018E000BF8C010300A4010300AC010300F8
:10195000B8010300C4010300D0010300D801030053
:10196000E0010300E8010300F0010300FC010300B3
:10197000D6F89000824A0BFA07F101423B4607F184
:10198000010714D0032C06DD4FF02C0188F800105D
:10199000013408F10108C4EB0A010139404613F093
:1019A00055F8404613F00CF9044409EB0408202FC5
:1019B000DED196F89430B3B1C5EB0803012B05DDF9
:1019C0002C2388F80030013408F10108C4EB0A0127
:1019D00001396C4A404613F039F8404613F0F0F8EC
:1019E000044409EB040896F89C30E3B1C5EB080504
:1019F000012D07DD2C2388F8003096F89C30013447
:101A000008F1010896F89D005F4A4138C4EB0A01CD
:101A100000900139404613F019F8404613F0D0F811
:101A2000044409EB0408039B53B1C4EB0A02013AD6
:101A30005649404613F0B2F9404613F0C1F8044449
:101A4000204605B0BDE8F08F5149484613F0A6F98D
:101A5000484613F0B5F833790446074609EB00050C
:101A6000C3B1032804DD01372C232B703C4601351C
:101A7000306811F081FAC4EB0A04CDE90001454A4F
:101A80002146284612F0E2FF284613F099F8C419BF
:101A900009EB0405337B002B3FF42CAC032C7FF7C0
:101AA00017AC2C232B700134013511E42C232B703F
:101AB00096F93D300134013529E52C232B7096F839
:101AC00048000134013505E52C232B700134013524
:101AD00060E42C232B700134013542E42C232B705D
:101AE0000134013524E42C232B700134013506E444
:101AF0002C232B700134013553E52C232B70338DAF
:101B0000013401353AE52C232B7001340135C8E44A
:101B10002C232B7001340135AAE42C232B700134C3
:101B200001358CE42C232B700134013572E42C2315
:101B30002B700134013559E42C232B70013401350D
:101B40003CE4F06C11F018FAC4EB0A07013FCDE950
:101B500000015B46104A3946404612F077FF404686
:101B600013F02EF8044409EB040880E50B4B4D46B6
:101B7000186845F8030B03273C46FFF7A3BB00BFDB
:101B80008C010300080203001002030014E60200A7
:101B9000B8000300D000030098010300CC0003004C
:101BA0002DE9F04FB0F918305A1CADF21C5D074614
:101BB0001AD0C07D4F4A0344A42000FB032001A992
:101BC000012340F21152FFF76BFB02285BDC3B8BD9
:101BD000B87D01331BB28342ACBF002001203B83A0
:101BE0000DF21C5DBDE8F08F0DF10408B7F914305B
:101BF000414A40F21151404612F028FF404612F08F
:101C0000DFFFFB69044608EB00051BB300264FF01D
